:020000040800F2
:10000000F04F0020251200085D0100085F01000884
:1000100063010008670100086B0100080000000090
:100020000000000000000000000000006F01000858
:10003000710100080000000073010008750100084C
:100040003F1200083F1200083F1200083F1200084C
:100050003F1200083F120008D30100083F120008B9
:100060003F1200083F1200089F0200083F120008DC
:100070003F1200083F1200083F1200083F1200081C
:100080003F1200083F1200083F1200083F1200080C
:100090003F1200083F1200083F1200083F120008FC
:1000A0003F1200083F1200083F1200083F120008EC
:1000B0003F1200083F1200083F1200083F120008DC
:1000C0003F1200083F1200083F1200083F120008CC
:1000D0003F120008B10200083F1200083F1200085A
:1000E000770100083F1200083F120008DFF80CD02B
:1000F00002F052FA004800474D010008F04F00207E
:1001000012E01148007802280ED1002002F0CAF94E
:1001100001F007FC01F087FD01F085FC00200A4991
:100120000870012002F0BEF9EBE710B500F0FAFF0D
:10013000482002F0F3F802F0F1F902F04FF902F072
:1001400093F901F0E0FB10BD2C00002010B5FFF783
:10015000ECFFFFF7D5FF002010BD0000704700BF87
:10016000FEE700BFFEE700BFFEE700BFFEE7704707
:1001700070477047704710B54FF4806000F0C8F9C1
:1001800080B14FF48071534800F0F1FA4FF40071E0
:10019000504800F0ECFA50A002F010FA4FF48060E2
:1001A00000F0C7F94FF4006000F0B2F980B14FF4ED
:1001B0008071484800F0D9FA4FF40071454800F0CA
:1001C000D4FA49A002F0FAF94FF4006000F0B1F956
:1001D00010BD10B5012000F09BF900285ED0464804
:1001E000007810B1012855D11CE0002002F05AF926
:1001F0004FF48071414800F0B8FA4FF480713F48E5
:1002000000F0B5FA4FF480713C4800F0AEFA4FF4BC
:100210008041304800F0A9FA01203749087002F007
:1002200041F937E0002002F03DF94FF480412948C0
:1002300000F09DFA4FF40071304800F098FA4FF446
:100240000051244800F093FA4FF40051214800F087
:100250008CFA4FF400511F4800F089FA4FF4005116
:100260001C4800F082FA4FF40071244800F07DFA37
:10027000012002F069F84FF40041164800F077FAC7
:1002800002201D49087000201D490880012002F04D
:1002900009F900BF00BF012000F04BF910BD10B5F7
:1002A000102000F035F910B1102000F042F910BD17
:1002B00010B540F22551134800F08DFE012807D1FA
:1002C000104800F008FEC4B221460FA002F076F9F3
:1002D00010BD0000000C0140B0B4BCFC203120D6A1
:1002E000D0B6CF0A00000000B0B4BCFC203220D64B
:1002F000D0B6CF0A000000002C0000200010014002
:100300002E00002000380140BDD3CAD5B5BDC9CFED
:10031000CEBBBBFACAFDBEDD2025630A000000008B
:1003200036490143364A1160704770B500210023F9
:100330000F22C4784CB3324C246804F4E064C4F552
:10034000E0644FEA1421C1F1040322FA01F2447877
:1003500004FA03F1847804EA020444EA01014FEA52
:100360000111284C0678A155047804F01F054FF0C0
:10037000010404FA05F405784FEA65154FF0E0260C
:1003800006EB8505C5F8004109E0047804F01F0577
:100390000124AC401C4D0678761145F8264070BD0E
:1003A0001A4A0A4002431A4B1A60704741B1194A6F
:1003B000126842EA00024FF0E023C3F8102D07E074
:1003C000144A126822EA00024FF0E023C3F8102D0D
:1003D0007047042808D14FF0E021096941F0040179
:1003E0004FF0E022116107E04FF0E021096921F0B0
:1003F00004014FF0E0221161704700000000FA058F
:100400000CED00E000E400E080E100E080FFFF1F71
:1004100008ED00E010ED00E0002047490860474982
:10042000C1F804044649086001F104010860454828
:1004300045490860704700213F498279002A43D02E
:100440003E4AD2F8002403689A433C4BC3F8002488
:100450001A46D2F8042403689A4301F104031A608F
:10046000027911440A68036842EA03020A60334AC7
:10047000D2F80824036822EA0302304BC3F80824A8
:100480001A46D2F80C24036822EA03022F4B1A60A2
:100490004279102A10D1294AD2F8082403681A4355
:1004A000264BC3F808241A46D2F80C2403681A43D2
:1004B000224BC3F80C240DE01F49427911440A680D
:1004C00003681A430A6005E0027911440A68036868
:1004D0009A430A6070470021016001710C2141714B
:1004E0000021817170471A49096841EA0001134AE5
:1004F000C2F81014704701460020134A12680A42DD
:1005000001D0012000E0002070470F4908607047CB
:10051000014600200022084B1B6803EA0102074B3A
:10052000D3F814340B4202D00AB1012000E00020BD
:100530007047054908607047000401400000014011
:1005400008040140FFFF0F00140401400C040140A7
:100550001004014010B50446CA48844208D1012164
:10056000042000F024FB0021042000F020FB46E0E2
:10057000C548844208D10121082000F018FB002161
:10058000082000F014FB3AE0C048844208D1012161
:10059000102000F00CFB0021102000F008FB2EE0E2
:1005A000BB48844208D10121202000F000FB00213B
:1005B000202000F0FCFA22E0B648844208D1012154
:1005C000402000F0F4FA0021402000F0F0FA16E09C
:1005D000B148844208D10121802000F0E8FA0021CE
:1005E000802000F0E4FA0AE0AC48844207D10121FF
:1005F000801500F0DCFA0021A01500F0D8FA10BD3B
:1006000010B50121084600F0D2FA0021012000F0C7
:10061000CEFA10BD2DE9F04102460025002600204B
:1006200000230024002791F803C00CF00F0591F877
:1006300003C01CF0100F03D091F802C04CEA05056E
:10064000B1F800C01CF0FF0F31D0146800202BE07F
:100650004FF0010C0CFA00F3B1F800C00CEA0306ED
:100660009E4220D183004FF00F0C0CFA03F7BC43DD
:1006700005FA03FC4CEA040491F803C0BCF1280F0E
:1006800006D14FF0010C0CFA00FCC2F814C00AE0CD
:1006900091F803C0BCF1480F05D14FF0010C0CFAE2
:1006A00000FCC2F810C0401C0828D1D31460B1F877
:1006B00000C0BCF1FF0F34DD546800202EE000F1D3
:1006C000080C4FF0010808FA0CF3B1F800C00CEA6E
:1006D00003069E4221D183004FF00F0C0CFA03F762
:1006E000BC4305FA03FC4CEA040491F803C0BCF1D6
:1006F000280F05D100F1080C08FA0CF8C2F8148094
:1007000091F803C0BCF1480F07D100F1080C4FF07D
:10071000010808FA0CF8C2F81080401C0828CED353
:100720005460BDE8F0814FF6FF71018002218170B5
:100730000421C17070470246002093680B4201D02B
:10074000012000E0002070470146886880B27047B1
:1007500002460020D3680B4201D0012000E00020B7
:1007600070470146C86880B27047016170474161B7
:1007700070470AB1016100E041617047C160704794
:100780004FF480320A4382618161826182698269A9
:10079000704702460020424B18684FF6807318409D
:1007A00040EA021008433E4B186070473D49C8615B
:1007B0007047F0B50A46002300240021002500F010
:1007C0000046B6F1004F02D1354EF16901E0344EDA
:1007D0007168C0F3034583B200F44016B6F5401FBC
:1007E00008D121F070612E4E766826F070662C4F8D
:1007F0007E6012E000F48016B6F5801F06D1032655
:1008000006FA05F4A14341F0706106E0460D360199
:1008100003FA06F6B14341F0706122B1460D36018C
:1008200003FA06F6314300F00046B6F1004F02D15C
:100830001B4EF16101E01A4E7160F0BD30B500222F
:100840008B071C0F0F2303FA04F2154B08338C108F
:1008500053F824309343124C08348D1044F825305B
:1008600023468C1053F824308C07240F00FA04F42C
:1008700023430B4C08348D1044F8253030BD0A4911
:100880000860704700080140000C01400010014062
:100890000014014000180140001C014000200140EC
:1008A0000000014000002042DC002042DB480068DC
:1008B00040F00100D949086008464068D84908401E
:1008C000D649486008460068D6490840D3490860C0
:1008D0000846006820F4802008600846406820F43C
:1008E000FE0048604FF41F0088607047CB490968DC
:1008F00021F48031C94A11601146096821F4802130
:100900001160B0F5803F03D0B0F5802F0ED106E026
:10091000C249096841F48031C04A116007E0BF490B
:10092000096841F4A021BD4A116000E000BF00BF8A
:10093000704710B501460022002300204A11012A09
:1009400002D1B64C236806E0022A02D1B34C236AD6
:1009500001E0B24C636A01F01F02012494401C4282
:1009600001D0012000E0002010BD70B5002400255A
:10097000002600BF3120FFF7DCFF0646641CB4F5FB
:10098000A06F01D0002EF5D03120FFF7D2FF08B1C3
:10099000012500E00025284670BD014600209F4A41
:1009A000106820F0F80040EAC100106070479E49CE
:1009B0000860704702460020984B586820F47C106D
:1009C00042EA01031843954B586070479649086600
:1009D000704701460020914A506820F00300084308
:1009E000506070478D48406800F00C007047014629
:1009F00000208A4A506820F0F00008435060704799
:100A000001460020854A506820F4E06008435060A9
:100A1000704701460020814A506820F4605040EA47
:100A2000C1005060704729B17C4A527A02437B4B27
:100A30005A7206E0794A527AC343DBB21A40774BC6
:100A40005A72704779490860704701460020734A1E
:100A5000506820F440400843506070470021744AB9
:100A600011706E4A82F82010012802D0042808D1A3
:100A700003E001216E4A117004E005216C4A1170F7
:100A800000E000BF00BF70476A49086070476349D3
:100A9000096A0143614A11627047674908607047FB
:100AA00030B500210022002400235C4D6D6805F064
:100AB0000C0121B1042905D0082923D105E05F4D9F
:100AC000056022E05D4D05601FE0544D6D6805F442
:100AD0007012524D6D6805F48034022505EB924288
:100AE0001CB9574D554305600BE04C4D6D6815F42E
:100AF000003F03D0524D5543056002E04F4D554332
:100B0000056002E04D4D056000BF00BF434D6D68BC
:100B100005F0F00109094B4D6B5C0568DD4045604F
:100B20003E4D6D6805F4E061090A464D6B5C456811
:100B3000DD408560394D6D6805F46051C90A414D4D
:100B40006B5C4568DD40C560344D6D6805F440411F
:100B5000890B3D4D6B5CC568B5FBF3F5056130BD98
:100B600029B12E4A526902432C4B5A6104E02B4AA8
:100B700052698243294B5A61704729B1274A9269C9
:100B80000243264B9A6104E0244A92698243234B34
:100B90009A61704729B1214AD26902431F4BDA6139
:100BA00004E01E4AD26982431C4BDA61704729B1C6
:100BB0001A4AD2680243194BDA6004E0174AD26835
:100BC0008243164BDA60704729B1144A1269024316
:100BD000124B1A6104E0114A126982430F4B1A61E9
:100BE00070471A49086070470F49C86470470B493D
:100BF000C87170470948406A40F0807007494862F0
:100C0000704701460020054A92680A4201D001203F
:100C100000E00020704701498872704700100240D0
:100C20000000FFF8FFFFF6FE00004242D8004242FB
:100C300020100240800442423C04424200127A00EA
:100C400000093D0000000020100000204004424246
:100C500010B50446FC48844209D101218803FFF7FE
:100C6000A6FF00214FF48040FFF7A1FF32E0F748D4
:100C7000844209D101214804FFF7A6FF00214FF467
:100C80000030FFF7A1FF25E0F148844209D101219E
:100C90008804FFF799FF00214FF48020FFF794FFAD
:100CA00018E0EC48844209D10121C804FFF78CFF09
:100CB00000214FF40020FFF787FF0BE0E648844255
:100CC00008D101210805FFF77FFF00214FF48010B4
:100CD000FFF77AFF10BD2DE9F04786B005460E46B6
:100CE0000024A24600BFA1460027B08900B100BF82
:100CF0002F462C8A4CF6FF700440F08804432C8267
:100D0000AC894EF6F3100440B088318908437189EC
:100D100008430443AC81AC8A4FF6FF400440B089DD
:100D20000443AC8201A8FFF7BBFEC748874202D14B
:100D3000DDF810A001E0DDF80CA0A88910F4004F48
:100D400008D00AEBCA0000EB0A1031684900B0FB7A
:100D5000F1F807E00AEBCA0000EB0A1031688900DD
:100D6000B0FBF1F86420B8FBF0F004012009642125
:100D700001FB1089A88910F4004F08D0322000EB45
:100D8000C900B0FBF1F000F00700044308E0322096
:100D900000EB09106421B0FBF1F000F00F000443F8
:100DA0002C8106B0BDE8F0874FF416510160002198
:100DB0008180C18001810C214181002181817047A6
:100DC00010B502460020108A4FF2FF0318400B882E
:100DD0004C8823438C882343CC88234318431082B8
:100DE00010BD0021018041808180C180704721B108
:100DF000828942F40052828104E082894DF6FF73B9
:100E00001A4082817047F0B5034600240026002571
:100E10000020A1F510676A3F00D100BF1846C1F35A
:100E2000421401F01F06012707FA06F5012C01D133
:100E30000C3004E0022C01D1103000E014301AB163
:100E400007682F43076002E00768AF430760F0BD03
:100E500010B51AB1838A0B43838204E0838ACC43A2
:100E6000A4B22340838210BD028A4FF6F0731A4069
:100E70000282028A0A430282704782894FF2FF731C
:100E80001A40828182890A438281704721B1828916
:100E900042F00202828104E082894FF6FD731A401B
:100EA00082817047028A4FF6DF731A400282028AFB
:100EB0000A430282704721B1028A42F480420282D0
:100EC00004E0028A4BF6FF731A4002827047C1F3B6
:100ED00008028280704701468888C0F30800704786
:100EE000818941F0010181817047028BD2B2028376
:100EF000028B42EA012202837047028B02F47F4296
:100F00000283028B0A430283704721B1828A42F036
:100F10002002828204E0828A4FF6DF731A408282C6
:100F2000704721B1828A42F01002828204E0828AF4
:100F30004FF6EF731A408282704721B1828A42F0E5
:100F40000802828204E0828A4FF6F7731A40828296
:100F5000704721B1828942F40042828103E0828994
:100F6000C2F30E028281704721B1828A42F400628C
:100F7000828204E0828A4FF2FF731A4082827047B5
:100F8000828A4FF6FB731A408282828A0A438282E7
:100F9000704721B1828A42F00202828204E0828A92
:100FA0004FF6FD731A408282704702460020B1F569
:100FB000007F00D100BF13880B4201D0012000E068
:100FC0000020704701F40072B2F5007F00D100BF2D
:100FD000CA430280704770B50246002400230025F2
:100FE0000020A1F510666A3E00D100BFC1F3421592
:100FF00001F01F03012606FA03F3012D02D19689A1
:10100000334006E0022D02D1168A334001E0968A71
:1010100033400C12012606FA04F41688344013B14A
:101020000CB1012000E0002070BD10B500220023AB
:10103000A1F510646A3C00D100BF0A12012494405B
:10104000A3B2DC43048010BD0038014000440040DE
:1010500000480040004C00400050004000210020AB
:10106000674A126842F48032654B1A6000BF644AD6
:10107000126802F40030491C10B9B1F5A06FF6D126
:101080005F4A126812F4003F01D0012000E0002006
:10109000012842D15B4A126842F01002594B1A6093
:1010A0001A46126822F003021A601A46126842F0C9
:1010B00002021A60524A5268514B5A601A465268EC
:1010C0005A601A46526842F480625A601A46526860
:1010D00022F47C125A601A46526842F4E8125A60AE
:1010E0001A46126842F080721A6000BF444A1268C1
:1010F00012F0007FFAD0424A526822F00302404BBD
:101100005A601A46526842F002025A6000BF3C4AD6
:10111000526802F00C02082AF9D1704710B5FFF7A7
:101120009DFF10BD10B53648006840F001003449FD
:10113000086008464068344908403149486008461C
:101140000068324908402E4908600846006820F4CB
:10115000802008600846406820F4FE0048604FF494
:101160001F008860FFF7DAFF4FF000602849086031
:1011700010BD10B5002100200022214B5B6803F058
:101180000C0121B1042906D0082928D107E0214B00
:10119000214C236027E01F4B1F4C236023E0184B9A
:1011A0005B6803F47010164B5B6803F48032022313
:1011B00003EB904022B9194B4343174C23600DE0D9
:1011C0000F4B5B6813F4003F04D0144B4343124CA5
:1011D000236003E00F4B43430F4C236003E00D4BB0
:1011E0000D4C236000BF00BF054B5B68C3F30313C6
:1011F0000B4CE15C084B1B68CB40074C236010BDD7
:1012000000100240002002400000FFF8FFFFF6FE41
:1012100008ED00E000127A001400002000093D00F3
:10122000180000200648804706480047FEE7FEE712
:10123000FEE7FEE7FEE7FEE7FEE7FEE7FEE7FEE786
:1012400025110008ED00000808B548208DF80300BE
:1012500001210420FFF791FC01210820FFF78DFCFC
:1012600001211020FFF789FC0120ADF8000069463C
:10127000FF48FFF7CFF90220ADF800006946FC48AF
:10128000FFF7C8F90420ADF800006946F848FFF7F9
:10129000C1F90820ADF800006946F548FFF7BAF932
:1012A0001020ADF800006946F148FFF7B3F920209F
:1012B000ADF800006946EE48FFF7ACF94020ADF804
:1012C00000006946EA48FFF7A5F98020ADF8000064
:1012D0006946E748FFF79EF903208DF802001020C9
:1012E0008DF803000002ADF800006946E148FFF701
:1012F00091F94FF48050ADF800006946DE48FFF7E1
:1013000089F94FF40050ADF800006946DA48FFF75C
:1013100081F94FF40040ADF800006946D648FFF768
:1013200079F94FF40070ADF800006946D048FFF736
:1013300071F94FF48040ADF800006946CE48FFF7E0
:1013400069F94FF48070ADF800006946C848FFF7AE
:1013500061F94FF48050ADF800006946C448FFF7CA
:1013600059F908BD10B54FF48051C248FFF7FFF995
:101370004FF48051C048FFF7FAF9142000F0E4FF61
:101380004FF48051BC48FFF7F0F98021122000F0A3
:1013900021FF04213A2000F01DFFD021402000F061
:1013A00019FF1421122000F015FF8021322000F0D7
:1013B00011FF1621172000F00DFF0421182000F066
:1013C00009FF0221192000F005FF7B211A2000F0FF
:1013D00001FF0621032000F0FDFE00210C2000F09B
:1013E000F9FE00213E2000F0F5FE3A21702000F0C9
:1013F000F1FE3521712000F0EDFE1121722000F088
:10140000E9FE0021732000F0E5FE0221A22000F099
:10141000E1FE8121112000F0DDFE20217A2000F084
:10142000D9FE1C217B2000F0D5FE28217C2000F075
:10143000D1FE3C217D2000F0CDFE55217E2000F024
:10144000C9FE68217F2000F0C5FE7621802000F0D3
:10145000C1FE8021812000F0BDFE8821822000F0A5
:10146000B9FE8F21832000F0B5FE9621842000F084
:10147000B1FEA321852000F0ADFEAF21862000F053
:10148000A9FEC421872000F0A5FED721882000F006
:10149000A1FEE821892000F09DFEE021132000F04C
:1014A00099FE0021084600F095FE0021102000F072
:1014B00091FE00210D2000F08DFE2821142000F067
:1014C00089FE0521A52000F085FE0721AB2000F054
:1014D00081FE7521242000F07DFE6321252000F08F
:1014E00079FEA521262000F075FE78219F2000F0CE
:1014F00071FE6821A02000F06DFE0321A12000F004
:1015000069FEDF21A62000F065FEDF21A72000F0A4
:1015100061FEF021A82000F05DFE9021A92000F0DE
:1015200059FE9421AA2000F055FEE521132000F079
:1015300051FE61210E2000F04DFE4B210F2000F0E6
:1015400049FE0221162000F045FE37211E2000F042
:1015500041FE0221212000F03DFE9121222000F0D9
:1015600039FE0721292000F035FE0B21332000F041
:1015700031FE0B21352000F02DFE1D21372000F01B
:1015800029FE7121382000F025FE2A21392000F0A3
:1015900021FE78213C2000F01DFE40214D2000F06E
:1015A00019FE20214E2000F015FE0021692000F0D8
:1015B00011FE60216B2000F00DFE1921742000F057
:1015C00009FE4F218D2000F005FE00218E2000F045
:1015D00001FE00218F2000F0FDFD0021902000F091
:1015E000F9FD0021912000F0F5FD0021922000F08E
:1015F000F1FD0021962000F0EDFD80219A2000F001
:10160000E9FD8421B02000F0E5FD0C21B12000F0BF
:10161000E1FD0E21B22000F0DDFD8221B32000F0BB
:10162000D9FD0A21B82000F0D5FD1421432000F097
:10163000D1FDF021442000F0CDFD3421452000F003
:10164000C9FD5821462000F0C5FD2821472000F0A3
:10165000C1FD3A21482000F0BDFD8821592000F04D
:10166000B9FD88215A2000F0B5FD44215B2005E03A
:101670000010014000080140000C014000F0AAFDEC
:1016800067215C2000F0A6FD49215D2000F0A2FD4D
:101690000E215E2000F09EFD0421642000F09AFDE2
:1016A0002021652000F096FD0521662000F092FDC6
:1016B0000421942000F08EFD0821952000F08AFD81
:1016C0000A216C2000F086FD55216D2000F082FD7E
:1016D00011216E2000F07EFD9F216F2000F07AFD29
:1016E00040216A2000F076FD4021012000F072FDCB
:1016F0004021022000F06EFDE721132000F06AFD7A
:101700000021152000F066FD80214F2000F062FDD1
:101710008021502000F05EFD0021512000F05AFD94
:101720002221522000F056FD5E21532000F052FD90
:101730008021542000F04EFD9E21582000F04AFDEB
:101740000821412000F046FD00213F2000F042FD2D
:101750000521752000F03EFDE121762000F03AFDE4
:1017600000214C2000F036FD0121772000F032FDF1
:10177000C2213D2000F02EFD09214B2000F02AFD62
:101780006021C92000F026FD3821412000F022FD13
:101790004021562000F01EFD1121342000F01AFDDA
:1017A00002213B2000F016FD8921A42000F012FD4B
:1017B0000021962000F00EFD3021972000F00AFD58
:1017C0002021982000F006FD3021992000F002FD34
:1017D00084219A2000F0FEFC29219B2000F0FAFCD5
:1017E00003219C2000F0F6FC4C219D2000F0F2FC2F
:1017F0003F219E2000F0EEFC0421782000F0EAFC5E
:101800000121792000F0E6FCF021C82000F0E2FC84
:101810000F21792000F0DEFC0021C82000F0DAFC66
:101820001021792000F0D6FC7E21C82000F0D2FCE7
:101830000A21792000F0CEFC8021C82000F0CAFCEB
:101840000B21792000F0C6FC0121C82000F0C2FC69
:101850000C21792000F0BEFC0F21C82000F0BAFC5A
:101860000D21792000F0B6FC2021C82000F0B2FC48
:101870000921792000F0AEFC8021C82000F0AAFCEC
:101880000221792000F0A6FCC021C82000F0A2FCB3
:101890000321792000F09EFC4021C82000F09AFC32
:1018A0000521792000F096FC3021C82000F092FC40
:1018B0002621792000F08EFC0021092000F08AFC0E
:1018C0001021122000F086FC14213A2000F082FC46
:1018D00080213D2000F07EFC1121672000F07AFC81
:1018E000FF21682000F076FCC021402000F072FC4F
:1018F0004FF48071FF48FEF73AFF4FF40071FD4846
:10190000FEF735FF10BD10B500F032FBFFF79CFC71
:10191000FFF728FD0120FEF70CFE012000F0C2FDBC
:1019200010BD2DE9F041002674E0062096FBF0F191
:1019300000FB116001284AD100243FE0A02C3BDAD3
:101940004FF40051EB48FEF712FF4FF40051E94805
:10195000FEF70BFFE8488068C5B24FF40051E54838
:10196000FEF705FF4FF40051E248FEF7FEFEE248A5
:101970008068C7B24FF40051DE48FEF7F8FE4FF41E
:101980000051DC48FEF7F1FEDB488068C7B24FF437
:101990000051D848FEF7EBFE4FF40051D548FEF752
:1019A000E4FED5488068C7B2D448008800EB8000C8
:1019B000D34901EB40100555601C84B2B4F5A07FFB
:1019C000BCDBCE480088401CCC49088020E00024C5
:1019D0001BE04FF40051C748FEF7C9FE4FF4005119
:1019E000C448FEF7C2FEC4488068C7B24FF4005135
:1019F000C048FEF7BCFE4FF40051BE48FEF7B5FEEE
:101A0000BD488068C7B2601C84B2B4F5A07FE0DB3B
:101A1000701C86B2F02E88DB4FF40041B548FEF70B
:101A2000A4FEBDE8F08170B54021B648FFF7CAFAC0
:101A30000021B448FFF74BFA00BF4021B148FFF73F
:101A4000B4FA0028F9D0FF21AE48FFF740FA00BFF2
:101A50004021AC48FFF7A9FA0028F9D00121A94894
:101A6000FFF735FA00BF4021A648FFF79EFA00288D
:101A7000F9D00021A348FFF72AFA00BF4021A1486E
:101A8000FFF793FA0028F9D000241BE0002515E0A9
:101A900040219C48FFF796FA04EB8400984A02EB39
:101AA0004010415D9748FFF712FA00BF402195486A
:101AB000FFF77BFA0028F9D0681CC5B2A02DE7DB40
:101AC000601CC4B2282CE1DB70BD70B5064627252A
:101AD000A5E0272D7ED100240EE005EB850006EB66
:101AE0004010005D642803DA01208749085502E0B0
:101AF000002085490855641CA02CEEDB002424E05E
:101B00008148015D601E804A105C814219DD1046EB
:101B1000015DA01E105C814213DD1146601C095C52
:101B2000601E105C81420CDD1146601C095CA01E29
:101B3000105C814205DD754804600120744908602D
:101B400005E0002072490860641C9F2CD8DB00BFB0
:101B50009F2424E06C48015D0246601C105C8142B9
:101B600019DD1046015DA01C105C814213DD601E72
:101B70001146095C601C105C81420CDD601E114640
:101B8000095CA01C105C814205DD624804600120F4
:101B90006149086005E000205F490860641E002C70
:101BA000D8DC00BF5C480068012819D1584800689B
:101BB000012815D155490968564A1268881800EB62
:101BC000D0714910554A11601046006854490860A8
:101BD000002000E022E0504908604D49086003E021
:101BE0004F4800684D49086000204849086049494D
:101BF0000860002403E0002043490855641CA02C21
:101C0000F9DB4648006881B23E48FFF760F900BF43
:101C100040213C48FFF7C9F90028F9D06D1E002D7E
:101C20003FF757AF70BD10B50021002027215EE0BF
:101C3000002017E001EB8102314B03EB4212125CF2
:101C4000642A07DBFE2201EB81032D4C04EB4313D6
:101C50001A5406E0002201EB8103294C04EB4313E4
:101C60001A54401CA028E5DB01203DE001EB810275
:101C7000234B03EB4213421E9A5CFE2A15D101EB63
:101C800081021F4B03EB4212125C72B901EB81021D
:101C900003EB4213421C9A5CFE2A06D101EB81033E
:101CA000174C04EB43131A541DE001EB8102144B53
:101CB00003EB4213421E9A5CAAB901EB8102104B5E
:101CC00003EB4212125CFE2A0DD101EB810203EB01
:101CD0004213421C9A5C32B9002201EB8103084C8A
:101CE00004EB43131A54401C9F28BFDB491E0029F4
:101CF0009EDA10BD000C0140001001402E000020B3
:101D00005032002000380140504B002030000020AD
:101D10004000002034000020440000203C0000204F
:101D2000380000202DE9F0418AB00027B846002491
:101D30000025002624228B4901A800F01BFC012469
:101D400038E0012533E04FF0FF371DE04FF0FF385A
:101D500016E0E01900EB8000834901EB401005EB31
:101D60000801415C781C00EB400001AA02EB8002F4
:101D700008F1010052F8200001FB006608F101089B
:101D8000B8F1020FE5DB7F1C022FDFDB092096FB99
:101D9000F0F6FF2E00DDFF26002E00DA002604EB11
:101DA0008401724A02EB41114E5500266D1C9E2D96
:101DB000C9DD641C262CC4DD00241EE0002519E0CA
:101DC00004EB8400684901EB4010405D04EB8401A2
:101DD000664A02EB4111495D401A04EB8401624AF4
:101DE00002EB4111495D084404EB840102EB41110F
:101DF00048556D1CA02DE3DB641C282CDEDB002481
:101E00001CE0002517E004EB8400574901EB40106B
:101E1000405D642807DC002004EB8401524A02EB99
:101E20004111485506E0FE2004EB84014E4A02EBC6
:101E3000411148556D1CA02DE5DB641C282CE0DB0E
:101E40000AB0BDE8F0812DE9F04F002500260027FB
:101E5000AC467F237F2400208046814682460021B5
:101E600025E0002220E001EB810BDFF8FCE00EEB27
:101E70004B1B1BF802B09B4505DA01EB810B0EEB07
:101E80004B1B1BF8023001EB810BDFF8DCE00EEBA3
:101E90004B1B1BF802B0A34505DD01EB810B0EEBDC
:101EA0004B1B1BF80240521CA02ADCDB491C2829D2
:101EB000D7DB03EB040B0BEBDB7E4FEA6E0000BFBE
:101EC0008046002500260027AC46002139E000228C
:101ED00034E001EB810BDFF890E00EEB4B1B1BF8BD
:101EE00002B09B450FDD01EB810B0EEB4B1B1BF88A
:101EF00002B0834507DA01EB810B0EEB4B1B1BF89D
:101F000002B05F446D1C01EB810BDFF85CE00EEB6F
:101F10004B1B1BF802B083450FDD01EB810B0EEB71
:101F20004B1B1BF802B0A34507DA01EB810B0EEB4C
:101F30004B1B1BF802B0DC44761C521CA02AC8DBE9
:101F4000491C2829C3DBB7FBF5F9BCFBF6FA09EB02
:101F50000A0B0BEBDB7E4FEA6E008045B0D1BDE88B
:101F6000F08F0000C82600085032002050000020EA
:101F700008B503208DF8020014208DF8030001211C
:101F80000820FEF7FAFD4FF40060ADF80000694646
:101F9000D148FEF73FFB01210820FEF7EEFD4FF48C
:101FA0008060ADF800006946CB48FEF733FB4FF484
:101FB0008061C948FEF7D9FB4FF40061C648FEF7BF
:101FC000D4FB08BD10B54FF40061C348FEF7CDFB4C
:101FD000642000F0D6F94FF48061BF48FEF7C5FBDE
:101FE000642000F0CEF94FF40061BB48FEF7BFFB60
:101FF000642000F0C6F94FF48061B748FEF7B7FBE4
:10200000642000F0BEF910BD10B54FF40061B24875
:10201000FEF7ADFB642000F0B4F94FF48061AE48E8
:10202000FEF7A3FB642000F0ACF94FF40061AA486E
:10203000FEF79BFB642000F0A4F910BD70B50446C8
:102040004FF48061A448FEF792FB00252BE014F0CA
:10205000800F05D04FF400619F48FEF786FB04E037
:102060004FF400619C48FEF782FB6006040E64207A
:1020700000F087F94FF480619748FEF776FB642003
:1020800000F07FF94FF480619348FEF770FB642005
:1020900000F077F9072D04D14FF400618E48FEF768
:1020A00064FB681CC5B2082DD1DB70BD70B500247F
:1020B0004FF480618848FEF75AFB00251BE060065C
:1020C000040E4FF480618448FEF74FFB642000F05B
:1020D00058F94FF400618048FEF72DFB08B1601CF1
:1020E000C4B24FF480617C48FEF741FB642000F0ED
:1020F00048F9681CC5B2082DE1DB204670BD10B55B
:1021000000244FF480617448FEF731FB4FF4006106
:102110007148FEF72AFB4FF480616F48FEF725FBFC
:10212000642000F02EF94FF400616B48FEF703FBCA
:1021300008B1012400E000244FF480616648FEF7F6
:1021400016FB642000F01DF9204610BD10B54FF4B9
:1021500080616148FEF70BFB0A2000F012F94FF492
:1021600000615D48FEF703FB0A2000F00AF94FF416
:1021700080615948FEF7F9FA0A2000F002F94FF49D
:1021800080615548FEF7F3FA0A2000F0FAF810BD16
:1021900010B54FF400615048FEF7E7FA642000F0F4
:1021A000F0F84FF480614C48FEF7DFFA642000F04D
:1021B000E8F84FF480614848FEF7D9FA642000F04F
:1021C000E0F84FF400614448FEF7CFFA642000F0D5
:1021D000D8F810BD70B504460D46FFF7F3FE642035
:1021E00000F0CFF84220FFF729FFFFF788FF012812
:1021F00006D1FFF709FF39A000F0E0F9002070BD1B
:10220000052000F0BEF8E0B2FFF718FFFFF777FFF8
:10221000012806D1FFF7F8FE34A000F0CFF9002026
:10222000EDE72846FFF70AFFFFF769FF012806D10F
:10223000FFF7EAFE32A000F0C1F90020DFE7FFF768
:10224000E3FE0120DBE770B50446FFF7BBFE642028
:1022500000F097F84220FFF7F1FEFFF750FF01284A
:1022600006D1FFF7D1FE1DA000F0A8F9002070BD37
:10227000052000F086F82046FFF7E0FEFFF73FFF5D
:10228000012806D1FFF7C0FE18A000F097F9002042
:10229000EDE7FFF7B9FE4FF4FA7000F072F8FFF7C0
:1022A00091FE4320FFF7CAFEFFF729FF012806D160
:1022B000FFF7AAFE17A000F081F90020D7E76420FD
:1022C00000F05FF8FFF7F2FE0546FFF761FFFFF74A
:1022D0009BFE2846CBE70000000C0140C6F7BCFE81
:1022E000C3BBD3D0D3A6B4F00A000000D0B4BCC4A2
:1022F000B4E6C6F7B5D8D6B7CAA7B0DC0A00000066
:10230000D0B4BCC4B4E6C6F7C4DAC8DDCAA7B0DC32
:102310000A000000B6C1CAA7B0DC0A004FF0E021F5
:10232000096921F004014FF0E0221161C21700EBAE
:102330005272D2101F4B1A70194609784FF47A72F4
:1023400051431D4A118070471B49098841434FF092
:10235000E02251611146096941F00101116100BF9C
:102360004FF0E021096911F4803FF9D04FF0E021EE
:10237000096921F001014FF0E02211610021916112
:1023800070470C49097841434FF0E02251611146F2
:10239000096941F00101116100BF4FF0E0210969B5
:1023A00011F4803FF9D000214FF0E02211619161DA
:1023B00070470000480000204A00002070B5044625
:1023C0000D46E1B23548FEF782FD00BF402133489B
:1023D000FEF7EBFD0028F9D0204670BD00B585B0B2
:1023E00001210520FEF7C9FB01218803FEF7C5FB8B
:1023F0004FF40070ADF8100018208DF81300032082
:102400008DF8120004A92648FEF704F94FF4806005
:10241000ADF8100004208DF8130004A92048FEF741
:10242000F9F84FF4E13000900020ADF80400ADF869
:102430000600ADF80800ADF80C000C20ADF80A005D
:1024400069461648FEF747FC01211448FEF7CFFC09
:10245000012240F225511148FEF7D5FC40210F48DA
:10246000FEF7B0FD05B000BD08B500214FF00060DB
:10247000FDF796FF4FF4E060FDF752FF25208DF841
:10248000000000208DF8010001208DF802008DF879
:1024900003006846FDF749FF08BD00000038014011
:1024A000000801401FB5044601210520FEF765FB29
:1024B0004FF4C060FDF734FF06208DF80C000120BA
:1024C0008DF80D008DF80E008DF80F0003A8FDF7B4
:1024D0002CFF00210846FEF7B1F900208DF8080016
:1024E0000C208DF80900012C03D101208DF80A0081
:1024F00002E000208DF80A000120019001A8FDF7FC
:102500009AFF1120ADF8000048208DF803006946BD
:102510000148FEF77FF81FBD0008014008B5012102
:102520000820FEF72AFB01210820FEF726FB1020D9
:102530008DF8030003208DF802004FF48070ADF891
:10254000000069460A48FEF765F84FF40070ADF8E0
:10255000000069460648FEF75DF84FF480710448B4
:10256000FEF703F94FF400710148FEF7FEF808BDCD
:10257000000C014040EA01039B0703D009E008C9B1
:10258000121F08C0042AFAD203E011F8013B00F838
:10259000013B521EF9D27047064C074D06E0E06839
:1025A00040F0010394E8070098471034AC42F6D39A
:1025B000FDF7A0FDEC2600080C2700080FB4054B22
:1025C00010B503A9044A029800F017F810BC5DF892
:1025D00014FB0000BD2300084C00002002E008C8E6
:1025E000121F08C1002AFAD170477047002001E08D
:1025F00001C1121F002AFBD170472DE9F84F054693
:10260000924699468846002758E0252801D0514631
:1026100023E0002215F8011F10462E2915D115F8C8
:10262000011F04222A290DD06FF02F032978A1F170
:102630003004092C09D800EB800003EB400008446B
:102640006D1CF3E758F8040B6D1C2B78CBB3632B90
:1026500008D0732B10D0514618464A46904707F1D0
:1026600001072AE058F8043B8DF8003000218DF86E
:1026700001106E46012103E058F8046B4FF0FF3162
:1026800052074FF0000401D409E0641C84420BDAC5
:102690008C42FADB325D002AF7D105E0641C8C42E3
:1026A000FCDB305D0028F9D1274404E016F8010B6B
:1026B00051464A469047641EF8D26D1C287800287F
:1026C000A3D13846BDE8F88F0100000001000000EA
:1026D00001000000010000000100000001000000F6
:1026E0000100000001000000010000000C270008AC
:1026F0000000002050000000DC2500085C270008D6
:1027000050000020A04F0000EC2500080000000051
:102710000102030401020304060708090204060873
:1027200000A24A04000000000000000001020304AF
:10273000060708090000000000000000000000007B
:102740000000000000000000000000000000000089
:0C2750000000000000000000000000007D
:04000005080000ED02
:00000001FF
