:020000040800F2
:10000000081E00204D0F00086D0100086F01000858
:10001000710100087301000875010008000000006C
:100020000000000000000000000000007701000850
:1000300079010008000000007B0100087D01000834
:10004000670F0008670F0008670F0008670F0008B8
:10005000670F0008670F0008E3010008670F00083A
:10006000670F0008670F0008A9020008670F000863
:10007000670F0008670F0008670F0008670F000888
:10008000670F0008670F0008670F0008670F000878
:10009000670F0008670F0008670F0008670F000868
:1000A000670F0008670F0008670F0008670F000858
:1000B000670F0008670F0008670F0008670F000848
:1000C000670F0008670F0008670F0008670F000838
:1000D000670F0008C1020008670F0008670F0008DB
:1000E0007F010008670F0008670F0008DFF80CD0D9
:1000F00002F0F0FA004800475D010008081E0020E9
:10010000134C0025134E144F0EE0002002F012F89D
:1001100001F093FA01F073FD3178384600F0C3FD29
:100120002570012002F006F821780229FCD1ECE7C5
:1001300010B500F0A7FE482001F052FF02F034F89D
:1001400001F093FF01F0D8FFBDE8104001F066BA5E
:10015000280000202C0000200038014010B5FFF7D7
:10016000E7FFFFF7CDFF002010BD00007047FEE75E
:10017000FEE7FEE7FEE770477047704770472DE9DE
:10018000F0414FF48067384600F093F9564CBE10AA
:10019000651568B13146204600F07EFA29462046B2
:1001A00000F07AFA51A002F0A7FA384600F08EF972
:1001B0004FF40067384600F07CF900280FD0314634
:1001C000204600F067FA2946204600F063FA4BA06B
:1001D00002F092FA3846BDE8F04100F077B9BDE888
:1001E000F0812DE9F041012000F063F90028F6D0FC
:1001F000464C474D3C4E22784FF4804712B1012ABD
:100200004CD119E0002001F095FF4FF48078414671
:10021000284600F03FFA4146284600F03DFA4146A4
:10022000284600F037FA3946304600F033FA01200C
:10023000207001F07FFF31E0002001F07BFF3946A4
:10024000304600F029FA4FF400773946284600F08E
:1002500023FA4FF400584146304600F01DFA41465B
:10026000304600F017FA4146304600F015FA414694
:10027000304600F00FFA3946284600F00BFA01200C
:1002800001F0BCFEB901304600F006FA02202070F1
:10029000204900200880012001F04CFFBDE8F0411A
:1002A000012000F013B99AE710B5102000F001F911
:1002B000002804D0BDE81040102000F007B910BDA0
:1002C00010B5154C40F22551204600F05EFD012886
:1002D00008D1204600F0EBFCC1B2BDE810400FA0F1
:1002E00002F00ABA10BD0000000C0140B0B4BCFC22
:1002F000203120D6D0B6CF0A00000000B0B4BCFC3C
:10030000203220D6D0B6CF0A0000000028000020FE
:10031000001001402E00002000380140BDD3CAD596
:10032000B5BDC9CFCEBBBBFACAFDBEDD2025630A71
:10033000000000002A4908432A4908607047F0B5C8
:100340000F24C27801784FF0E0230127E2B1D3F8FF
:100350000C2D02F4E062C2F5E062120AC2F104055B
:10036000D4404678AE40827822403243120119448C
:1003700081F80024007800F01F018F40400903EB52
:100380008000C0F80071F0BD01F01F0087404809EF
:1003900003EB8000C0F88071F0BD134A11400143A7
:1003A0001248016070474FF0E02229B1D2F8101DC9
:1003B0000143C2F8101D7047D2F8101D8143C2F8E6
:1003C000101D70474FF0E021042804D0086920F088
:1003D000040008617047086940F004000861704734
:1003E0000000FA050CED00E080FFFF1F08ED00E0C3
:1003F00038480021016041608160C1603649416137
:10040000704730B5334A8179036899B311460C6857
:1004100024EA03040C604B68046823EA04034B607D
:10042000047904EB02031C68056844EA05041C60B7
:100430008B68046823EA04038B60CB68046823EAB2
:100440000403CB60A1F580614379102B05D0991886
:100450000A68006802430A6030BD01F581610A68DC
:10046000036842EA03020A604A68006842EA00023E
:100470004A6030BDFFE7007910440168994301608C
:10048000F7E70021016001710C2242718171704710
:1004900012490A6842EA00020A60704701460020D9
:1004A0000F4A12680A4200D0012070470C490860C8
:1004B000704701460020074B1A6802EA01025B6997
:1004C0000B4202D0002A00D0012070470449086086
:1004D0007047000000040140FFFF0F0010040140BE
:1004E0001404014010B59B49884209D10121042020
:1004F00000F071FA0021BDE81040042000F06BBA52
:100500009549884209D10121082000F064FA0021B0
:10051000BDE81040082000F05EBA9049884209D139
:100520000121102000F057FA0021BDE810401020F2
:1005300000F051BA8A49884209D10121202000F0F7
:100540004AFA0021BDE81040202000F044BA854955
:10055000884209D10121402000F03DFA0021BDE888
:100560001040402000F037BA7F49884209D101216C
:10057000802000F030FA0021BDE81040802000F01B
:100580002ABA7A4988420AD184150121204600F00E
:1005900022FA2046BDE81040002100F01CBA10BD30
:1005A00010B50121084600F016FA0021BDE8104000
:1005B000012000F010BA2DE9F0410022CC7804F0BF
:1005C0000F03E40601D58C7823430C884FF00F0706
:1005D00014F0FF0F4FF0010C1CD005680CFA02F468
:1005E0000E882640A64211D1960007FA06F825EAA1
:1005F000080503FA06F848EA0505CE78282E02D049
:10060000482E02D002E0446100E00461521C082A36
:10061000E4D305600A88FF2A1ED94568002202F14A
:1006200008060CFA06F40E882640A64210D1960061
:1006300007FA06F825EA080503FA06F848EA050568
:10064000CE78282E00D14461CE78482E00D10461A6
:10065000521C082AE3D34560BDE8F0814FF6FF71D4
:100660000180022181700421C17070470246002080
:1006700092680A4200D001207047806880B27047BB
:1006800002460020D2680A4200D001207047C068AC
:1006900080B2704701617047416170470AB10161E2
:1006A000704741617047C160704741F48032826198
:1006B0008161826181698069704710B52C4B1A682D
:1006C0004FF68074224042EA00100843186010BDC3
:1006D0002849C8617047F0B5254C002801DAE36964
:1006E00000E06368C0F30346420D120185B2C0F317
:1006F00001579540032F07D0C2020CD50322B24008
:10070000934343F0706209E023F07062636823F062
:100710007063636002E0AB4343F0706201B12A434F
:10072000002801DAE261F0BD6260F0BD10B58A0711
:10073000120F0F23934021F003040D4921448C68CC
:100740009C438C608B68904003438B6010BD0A49CA
:100750000860704700080140000C01400010014093
:100760000014014000180140001C0140002001401D
:100770000000014000002042DC002042AD4801683A
:1007800041F0010101604168AB4A114041600168DC
:10079000AA4A11400160016821F48021016041688A
:1007A00021F4FE0141604FF41F0181607047A149AF
:1007B0000A6822F480320A600A6822F480220A6001
:1007C000B0F5803F07D0B0F5802F03D1086840F422
:1007D000A02008607047086840F4803008607047C7
:1007E000034600205909934A01290AD002290AD058
:1007F000516A03F01F02012393400B4200D00120F5
:1008000070471168F5E7116AF3E730B500244FF43B
:10081000A0653120FFF7E4FF641CAC4201D0002842
:10082000F7D03120FFF7DCFF08B1012030BD0020F8
:1008300030BD804A116821F0F80141EAC000106023
:1008400070477F49086070477A4B5A6822F47C12DF
:100850000843104358607047794908667047754AE5
:10086000516821F0030101435160704771484068AD
:1008700000F00C0070476F4A516821F0F00101430D
:10088000516070476B4A516821F4E0610143516047
:100890007047684A516821F4605141EAC0005060D5
:1008A0007047644A19B1517A014351727047517AC5
:1008B0008143517270476349086070475D4A5168CF
:1008C00021F440410143516070475F4900220A70A2
:1008D00001F82029012805D0042802D1052081F83B
:1008E00020007047012081F82000704757490860B8
:1008F000704750490A6A02430A62704754490860C7
:10090000704710B54B4A516801F00C01514B39B397
:10091000042927D0082927D00360516801F0F0018D
:1009200009094D4B5C5C0168E1404160546804F486
:10093000E064240A1C5D21FA04F48460546804F421
:100940006054E40A1B5DD940C160526802F4404221
:10095000920B414B1B1F9A5CB1FBF2F1016110BD80
:100960000360DAE70360D8E7516801F47011536857
:1009700003F48033022404EB914133B153689B03A9
:1009800007D5364B59430160C7E7344B59430160E3
:10099000C3E7304B59430160BFE7264A19B151699B
:1009A0000143516170475169814351617047214A48
:1009B00019B19169014391617047916981439161D6
:1009C00070471C4A19B1D1690143D1617047D1699F
:1009D0008143D1617047174A19B1D1680143D16091
:1009E0007047D1688143D1607047124A19B11169CB
:1009F00001431161704711698143116170471849C2
:100A0000086070470E49C86470470A49C87170474A
:100A10000848416A41F080714162704701460020F8
:100A2000044A92680A4200D0012070470149887246
:100A300070470000001002400000FFF8FFFFF6FEC4
:100A400000004242D800424220100240800442424C
:100A50003C04424200127A000400002000093D00DC
:100A60004004424210B5DD4988420AD101218C037D
:100A70002046FFF7B0FF2046BDE810400021FFF7F9
:100A8000AABFD74988420AD101214C042046FFF76A
:100A9000ACFF2046BDE810400021FFF7A6BFD149BA
:100AA00088420AD101218C042046FFF79EFF204690
:100AB000BDE810400021FFF798BFCB4988420AD11A
:100AC0000121CC042046FFF790FF2046BDE81040EE
:100AD0000021FFF78ABFC54988420AD101210C05D0
:100AE0002046FFF782FF2046BDE810400021FFF7B7
:100AF0007CBF10BD30B585B004460D46A889208A5C
:100B00004CF6FF710840E98801432182A0894EF626
:100B1000F3110840A9882A8911436A8902431143C5
:100B2000A181A08A4FF6FF410840A9890143A18213
:100B30006846FFF7E6FEA948844201D1039800E029
:100B40000298A189090408D500EBC00101EB00104F
:100B500029684900B0FBF1F007E000EBC00101EBB0
:100B6000001029688900B0FBF1F06422B0FBF2F1BB
:100B700009010B096FF018056B4300EB8300A38993
:100B80001D044FF0320307D503EBC000B0FBF2F0B9
:100B900000F00700084306E003EB0010B0FBF2F0A2
:100BA00000F00F000843208105B030BD4FF416510E
:100BB000016000218180C18001810C2242818181FC
:100BC000704710B5038A4FF2FF0213400A884C8821
:100BD00022438C88C9880C4322431A43028210BDE9
:100BE0000021018041808180C180704721B18189CD
:100BF00041F4005181817047818921F40051818144
:100C0000704710B540F66A13C1F3421301F01F0498
:100C10000121A140012B07D0022B07D014303AB19B
:100C200002680A43026010BD0C30F8E71030F6E7A6
:100C300002688A43026010BD1AB1828A0A43828226
:100C40007047828A8A4382827047028A22F00F02AA
:100C50000282028A0A4302827047828922F4006279
:100C6000828182890A438281704721B1818941F062
:100C7000020181817047818921F0020181817047E1
:100C8000028A22F020020282028A0A43028270470C
:100C900021B1018A41F4804101827047018A21F427
:100CA000804101827047C1F30801818070478088CC
:100CB000C0F308007047818941F0010181817047CC
:100CC000028BD2B20283028B42EA01210183704778
:100CD000028B02F47F420283028B0A430283704735
:100CE00021B1818A41F0200181827047818A21F0FF
:100CF00020018182704721B1818A41F010018182F7
:100D00007047818A21F010018182704721B1818A68
:100D100041F0080181827047818A21F008018182B7
:100D2000704721B1818941F40041818170478189F7
:100D3000C1F30E018181704721B1818A41F40061C4
:100D400081827047818A21F4006181827047828AA2
:100D500022F004028282828A0A438282704721B191
:100D6000818A41F0020181827047818A21F002016B
:100D7000818270470246002012880A4200D001207A
:100D800070478A05C9430180704770B5002440F65A
:100D90006A12C1F3421301F01F05012606FA05F29B
:100DA000012B0CD0022B0DD0838A1340090A8E40F0
:100DB000008830400BB100B10124204670BD83890A
:100DC0001340F3E7038A1340F0E740F66A120A0A79
:100DD00001219140C9430180704700000038014063
:100DE0000044004000480040004C004000500040DB
:100DF00000204E490A6842F480320A604FF4A06332
:100E00000A6802F40032401C0AB99842F8D1086816
:100E1000800301D5012000E00020012830D14448A2
:100E2000026842F010020260026822F003020260CF
:100E3000026842F002020260486848604868486000
:100E4000486840F480604860486820F47C1048603E
:100E5000486840F4E8104860086840F08070086016
:100E600008688001FCD5486820F0030048604868A5
:100E700040F0020048604868C0F381000228FAD1BF
:100E80007047B5E710B52948016841F001010160DC
:100E90004168284A114041600168274A11400160B9
:100EA000016821F480210160416821F4FE01416064
:100EB0004FF41F018160FFF7E4FF20494FF000600D
:100EC000086010BD10B5194A506800F00C011C4BA9
:100ED0001C4871B104290ED008290ED00360516856
:100EE000184AC1F30311121D515C0268CA40026026
:100EF00010BD0360F3E70360F1E7516801F470117E
:100F0000536803F48033022404EB914133B15368F6
:100F10009B0307D50C4B59430160E0E70A4B59434B
:100F20000160DCE7064B59430160D8E7001002403E
:100F3000002002400000FFF8FFFFF6FE08ED00E091
:100F400000127A001400002000093D000648804786
:100F500006480047FEE7FEE7FEE7FEE7FEE7FEE79E
:100F6000FEE7FEE7FEE7FEE7850E0008ED0000085D
:100F7000F8B548208DF8030001210420FFF717FD84
:100F800001210820FFF713FD01211020FFF70FFDBD
:100F90000120ADF800006946FF4D2846FFF70BFB26
:100FA0000220ADF8000069462846FFF704FB042044
:100FB000ADF8000069462846FFF7FDFA0820ADF8B5
:100FC000000069462846FFF7F6FA1024ADF8004005
:100FD00069462846FFF7EFFA2021ADF80010694670
:100FE0002846FFF7E8FA4020ADF800006946284699
:100FF000FFF7E1FA8020ADF8000069462846FFF7C8
:10100000DAFA03208DF802008DF803402402ADF8CF
:1010100000406946E148FFF7CEFAADF80040E04EE7
:1010200069463046FFF7C7FA6000ADF80000694630
:101030003046FFF7C0FAE000ADF8000069463046E0
:10104000FFF7B9FAE010ADF8000069462846FFF74F
:10105000B2FAA000ADF8000069463046FFF7ABFADF
:101060002011ADF8000069462846FFF7A4FAADF854
:10107000004069462846FFF79EFAF8BD70B54FF468
:1010800080552946C548FFF707FBC54C2946204631
:10109000FFF702FB142000F0B1FF29462046FFF7BE
:1010A000F9FA8021122000F0F8FE04213A2000F025
:1010B000F4FED021402000F0F0FE1421122000F0B8
:1010C000ECFE8021322000F0E8FE1621172000F00F
:1010D000E4FE0421182000F0E0FE0221192000F0B7
:1010E000DCFE7B211A2000F0D8FE0621032000F050
:1010F000D4FE00210C2000F0D0FE00213E2000F0A4
:10110000CCFE3A21702000F0C8FE3521712000F09D
:10111000C4FE1121722000F0C0FE0021732000F0F7
:10112000BCFE0221A22000F0B8FE8121112000F0B7
:10113000B4FE20217A2000F0B0FE1C217B2000F0BC
:10114000ACFE28217C2000F0A8FE3C217D2000F090
:10115000A4FE55217E2000F0A0FE68217F2000F033
:101160009CFE7621802000F098FE8021812000F0F6
:1011700094FE8821822000F090FE8F21832000F0D1
:101180008CFE9621842000F088FEA321852000F0AB
:1011900084FEAF21862000F080FEC421872000F06D
:1011A0007CFED721882000F078FEE821892000F01D
:1011B00074FEE021132000F070FE0021084600F0CC
:1011C0006CFE0021102000F068FE00210D2000F0D0
:1011D00064FE2821142000F060FE0521A52000F007
:1011E0005CFE0721AB2000F058FE7521242000F0A2
:1011F00054FE6321252000F050FEA521262000F09A
:101200004CFE78219F2000F048FE6821A02000F0CD
:1012100044FE0321A12000F040FEDF21A62000F0C3
:101220003CFEDF21A72000F038FEF021A82000F0CE
:1012300034FE9021A92000F030FE9421AA2000F075
:101240002CFEE521132000F028FE61210E2000F085
:1012500024FE4B210F2000F020FE0221162000F07A
:101260001CFE37211E2000F018FE0221212000F074
:1012700014FE9121222000F010FE0721292000F009
:101280000CFE0B21332000F008FE0B21352000F06E
:1012900004FE1D21372000F000FE7121382000F0EF
:1012A000FCFD2A21392000F0F8FD78213C2000F0D7
:1012B000F4FD40214D2000F0F0FD20214E2000F0F3
:1012C000ECFD0021692000F0E8FD60216B2000F0BA
:1012D000E4FD1921742000F0E0FD4F218D2000F085
:1012E000DCFD00218E2000F0D8FD00218F2000F0D1
:1012F000D4FD0021902000F0D0FD0021912000F0CD
:10130000CCFD0021922000F0C8FD0021962000F0C5
:10131000C4FD80219A2000F0C0FD8421B02000F09F
:10132000BCFD0C21B12000F0B8FD0E21B22000F070
:10133000B4FD8221B32000F0B0FD0A21B82000F0F6
:10134000ACFD1421432000F0A8FDF021442000F062
:10135000A4FD3421452000F0A0FD5821462000F0D6
:101360009CFD2821472000F098FD3A21482000F0FC
:1013700094FD8821592000F090FD88215A2000F02A
:101380008CFD44215B2000F088FD67215C2000F08B
:1013900084FD49215D2005E0001001400008014066
:1013A000000C014000F079FD0E215E2000F075FD7B
:1013B0000421642000F071FD2021652000F06DFD06
:1013C0000521662000F069FD0421942000F065FDF0
:1013D0000821952000F061FD0A216C2000F05DFDE0
:1013E00055216D2000F059FD11216E2000F055FDB2
:1013F0009F216F2000F051FD40216A2000F04DFD3B
:101400004021012000F049FD4021022000F045FD6F
:10141000E721132000F041FD0021152000F03DFDE3
:1014200080214F2000F039FD8021502000F035FD53
:101430000021512000F031FD2221522000F02DFD2D
:101440005E21532000F029FD8021542000F025FD6D
:101450009E21582000F021FD0821412000F01DFDB3
:1014600000213F2000F019FD0521752000F015FD39
:10147000E121762000F011FD00214C2000F00DFD4F
:101480000121772000F009FDC2213D2000F005FD7B
:1014900009214B2000F001FD6021C92000F0FDFC76
:1014A0003821412000F0F9FC4021562000F0F5FCE5
:1014B0001121342000F0F1FC02213B2000F0EDFC72
:1014C0008921A42000F0E9FC0021962000F0E5FC31
:1014D0003021972000F0E1FC2021982000F0DDFC75
:1014E0003021992000F0D9FC84219A2000F0D5FC0D
:1014F00029219B2000F0D1FC03219C2000F0CDFC91
:101500004C219D2000F0C9FC3F219E2000F0C5FC2D
:101510000421782000F0C1FC0121792000F0BDFCFD
:10152000F021C82000F0B9FC0F21792000F0B5FCB3
:101530000021C82000F0B1FC1021792000F0ADFCA2
:101540007E21C82000F0A9FC0A21792000F0A5FC2A
:101550008021C82000F0A1FC0B21792000F09DFC27
:101560000121C82000F099FC0C21792000F095FCA5
:101570000F21C82000F091FC0D21792000F08DFC96
:101580002021C82000F089FC0921792000F085FC89
:101590008021C82000F081FC0221792000F07DFC30
:1015A000C021C82000F079FC0321792000F075FCEF
:1015B0004021C82000F071FC0521792000F06DFC6D
:1015C0003021C82000F069FC2621792000F065FC5C
:1015D0000021092000F061FC1021122000F05DFCC8
:1015E00014213A2000F059FC80213D2000F055FCE8
:1015F0001121672000F051FCFF21682000F04DFC14
:10160000C021402000F049FCA1152046FFF744F816
:1016100061152046BDE87040FFF73EB810B500F0F8
:101620000BFBFFF7A5FCFFF729FD0120FEF74EFF9E
:10163000BDE81040012000F07DBD2DE9F05F0025E0
:10164000DFF8E093F84FF94E4FF400584FF4A07BC9
:101650000620B5FBF0F100FB1150012821D0002439
:1016600041463846FFF718F841463846FFF712F86A
:10167000B06841463846FFF70FF841463846FFF755
:1016800009F8B068641CA4B25C45E9D36D1CADB226
:10169000F02DDDD33846BDE8F05F4FF40041FEF792
:1016A000F9BF0024A02C2DD241463846FEF7F4FFA6
:1016B00041463846FEF7EEFFD6F808A041463846C8
:1016C000FEF7EAFF41463846FEF7E4FFB0684146C0
:1016D0003846FEF7E1FF41463846FEF7DBFFB068CB
:1016E00041463846FEF7D8FF41463846FEF7D2FF5E
:1016F000B068B9F80200CE4900EB800001EB401061
:1017000000F804A0641CA4B25C45CBD3B9F8020075
:10171000401CA9F80200B9E72DE9F041C54F40216E
:101720003846FFF72EFB00213846FFF7BCFA402170
:101730003846FFF71FFB0028F9D0FF213846FFF796
:10174000B2FA40213846FFF715FB0028F9D00121F5
:101750003846FFF7A8FA40213846FFF70BFB002870
:10176000F9D000213846FFF79EFA40213846FFF7AE
:1017700001FB0028F9D00025DFF8B482002405EB36
:10178000850008EB401640213846FFF7FAFA315D34
:101790003846FFF788FA40213846FFF7EBFA002871
:1017A000F9D0641CE4B2A02CEDD36D1CEDB2282D51
:1017B000E4D3BDE8F08130B527209D4A00219C4B41
:1017C000A03A00EB800552F8204003EB4515615527
:1017D000401E0028F5DA30BD002801DC404240B24E
:1017E000704710B500211920914BA03B05E053F83C
:1017F00020201144C9B2401E40B20A28F7DA0C0971
:101800001921002209E053F82100001B40B2FFF724
:10181000E3FF1044C2B2491E49B20A29F3DA104666
:1018200010BD2DE9F34F8FB0002637460024254622
:10183000A046C146A246D3461098C0B208E07C49F3
:10184000784AA039083251F820101154401EC0B215
:101850000F998842F3DA0F98C0B207902DE00798ED
:10186000404300F078FE32463B4600F0C7FC064697
:101870000F46079800F06FFE22462B4600F0BEFC94
:1018800004460D46674807990830405C0E9048436F
:1018900000F061FE42464B4600F0B0FC80468946AF
:1018A0000E9800F058FE52465B4600F0A7FC8246B8
:1018B0008B460798401CC0B2079010990798884241
:1018C000CDDDDDE90F10401A401C019022462B4669
:1018D0002046294600F037FDCDE90C01019800F0C3
:1018E00029FE32463B46CDE90A0100F02CFDDDE938
:1018F0000C2300F022FDCDE9040152465B46204650
:10190000294600F020FDCDE90801DDE90A01424643
:101910004B4600F018FDDDE9082300F00EFDDDE97F
:10192000042300F081FDCDE9020122462B4640460A
:10193000494600F008FD04460D4652465B463046D7
:10194000394600F000FD22462B4600F0F6FCDDE9AA
:10195000042300F069FD04460D460F98C6B2344FCB
:10196000A03F10E0304600F0F6FDDDE9022300F074
:10197000EAFC22462B4600F041FC00F0F9FD47F856
:101980002600761CF6B210988642EBDD11B0BDE859
:10199000F08F2DE9F041002600272724DFF8908002
:1019A000A8F1A008651E58F8240058F825108842B0
:1019B00004D0081A40B2FFF70FFFC6B2611C58F8F6
:1019C000240058F82120904204D0101A40B2FFF7AA
:1019D00003FFC7B2052E01D9052F0FD858F82520CF
:1019E00058F82400824203DA58F82130834205DB9C
:1019F000824212DD58F8212082420EDD58F825007F
:101A000058F82110084400F095FD4FF0FF3200F027
:101A10007AFD00F0ADFD48F82400ECB2032CC1D8EB
:101A2000C7E600002C000020000C0140001001401F
:101A300004010020003801402DE9F0410026002774
:101A4000002100222724DFF8E8C11E2C24DB2720F8
:101A500004EB84030CEB43152B5C0B4305D10646CA
:101A60002B1813F8013C03B90121C0F19F0315F8AD
:101A7000038058EA020805D11F46C0F19E03EB5CC3
:101A800003B9012201B112B9401E0028E4DA01B9FC
:101A900000262ABBA02723E04F2304EB84000CEB95
:101AA0004015E85C084305D11E46E81810F8010C03
:101AB00000B90121C3F19F0015F8008058EA02081F
:101AC00005D10746284410F8010C00B9012201B1E4
:101AD00012B95B1E002BE4DA01B9002602B9A02777
:101AE000F01900EBD07052494010A03941F82400A1
:101AF00000210022641E002CA7DA5AE62DE9F04FDF
:101B00007F247F250022DFF828B1002002EB82012C
:101B10000BEB4113195CA14200DA0C46A94200DD2F
:101B20000D46401CA028F5DB521C282AEDDB60196D
:101B300000EBD0704010824600260027B446B04625
:101B40000023002203EB83010BEB411919F802106B
:101B5000A14203DD814201DA8C44761C814203DD1F
:101B6000A94201DA88447F1C521CA02AEEDB5B1CD0
:101B7000282BE6DBBCFBF6F0B8FBF7F1084400EBE2
:101B8000D07040108245D6D101E72DE9F041FFF732
:101B9000B5FF284948602723FE26DFF894C00027B8
:101BA000002203EB83010CEB41118C5C844201DBCE
:101BB0008E5400E08F54521CA02AF6DB01228C18B0
:101BC00014F8015CFE2D09D111F80280B8F1000F64
:101BD00004D194F80180B8F1FE0F01D015B107E0EF
:101BE0008E5405E08D5CFE2D02D1647804B98F54CB
:101BF000521C9F2AE3DB5B1E002BD1DAD9E570B5BE
:101C000023251C24FFF7C1FFFFF716FFFFF7C1FED6
:101C100005E029462046FFF704FEA41FAD1F042C53
:101C2000F7DAFFF7DEFD03490870BDE87040C2E552
:101C3000040100202C000020F8B503208DF80200DC
:101C400014208DF8030001210820FEF7B0FE4FF4A8
:101C50000064ADF80040D14E69463046FEF7ABFC5B
:101C600001210820FEF7A3FE6510ADF8005069467B
:101C70003046FEF7A0FC29463046FEF70BFD214614
:101C80003046FEF707FDF8BD70B5C44D4FF4006453
:101C900021462846FEF7FEFC642000F0C3F96610DA
:101CA00031462846FEF7F6FC642000F0BBF92146D9
:101CB0002846FEF7F1FC642000F0B4F931462846CE
:101CC000FEF7EAFCBDE87040642000F0ABB970B5E7
:101CD000B24D4FF4006421462846FEF7DDFC642037
:101CE00000F0A0F961102846FEF7D4FC642000F053
:101CF00099F921462846FEF7CDFCBDE870406420E6
:101D000000F090B92DE9F0410546A44E4FF48067EC
:101D100039463046FEF7C0FC00244FF40068280620
:101D200004D541463046FEF7B5FC03E04146304657
:101D3000FEF7B2FC6806050E642000F073F9394620
:101D40003046FEF7A7FC642000F06CF939463046B7
:101D5000FEF7A2FC642000F065F9072C03D1414690
:101D60003046FEF797FC641CE4B2082CD7D3BDE8DC
:101D7000F0812DE9F0410024884E4FF48067394608
:101D80003046FEF789FC00254FF400686006040E1B
:101D900039463046FEF77EFC642000F043F94146A8
:101DA0003046FEF763FC08B1641CE4B239463046A5
:101DB000FEF772FC642000F035F96D1CEDB2082DC1
:101DC000E4D32046D3E72DE9F0410024734D4FF4CE
:101DD000806631462846FEF75FFCEF1439462846F8
:101DE000FEF758FC31462846FEF754FC642000F00C
:101DF00019F939462846FEF739FC00B1012431466D
:101E00002846FEF749FC642000F00CF92046AEE7B6
:101E100070B5624D4FF4806421462846FEF73CFCC5
:101E20000A2000F0FFF861002846FEF735FC0A2082
:101E300000F0F8F821462846FEF72CFC0A2000F0B6
:101E4000F1F821462846FEF727FCBDE870400A203D
:101E500000F0E8B870B5514D4FF4006421462846B3
:101E6000FEF718FC642000F0DDF8661031462846C5
:101E7000FEF710FC642000F0D5F831462846FEF746
:101E80000BFC642000F0CEF821462846FEF702FC49
:101E9000BDE87040642000F0C5B870B504460D463A
:101EA000FFF7F2FE642000F0BDF84220FFF72AFFA2
:101EB000FFF789FF012814D0052000F0B3F8E0B245
:101EC000FFF720FFFFF77FFF012811D02846FFF71B
:101ED00019FFFFF778FF012811D0FFF7F8FE012066
:101EE00070BDFFF7F4FE2EA000F006FC002070BDD0
:101EF000FFF7EDFE2EA000F0FFFB002070BDFFF706
:101F0000E6FE30A000F0F8FB002070BD10B50446DE
:101F1000FFF7BAFE642000F085F84220FFF7F2FEDA
:101F2000FFF751FF012824D0052000F07BF8204660
:101F3000FFF7E8FEFFF747FF012821D0FFF7C7FEB4
:101F40004FF4FA7000F06EF8FFF79EFE4320FFF7A3
:101F5000D9FEFFF738FF012819D0642000F062F89D
:101F6000FFF707FF0446FFF775FFFFF7B0FE2046B7
:101F700010BDFFF7ACFE0AA000F0BEFB002010BDB4
:101F8000FFF7A5FE0AA000F0B7FB002010BDFFF789
:101F90009EFE11A000F0B0FB002010BD000C01401F
:101FA000C6F7BCFEC3BBD3D0D3A6B4F00A00000072
:101FB000D0B4BCC4B4E6C6F7B5D8D6B7CAA7B0DCAF
:101FC0000A000000D0B4BCC4B4E6C6F7C4DAC8DD69
:101FD000CAA7B0DC0A000000B6C1CAA7B0DC0A007C
:101FE0004FF0E0210A6922F004020A611649C00894
:101FF00008704FF47A7250434880704712494988FC
:1020000048434FF0E0214861086940F00100086151
:102010000869C003FCD5086920F0010008610020B0
:10202000886170470849097848434FF0E0214861CA
:10203000086940F0010008610869C003FCD5002070
:1020400008618861704700005C00002070B504469C
:10205000364DE1B22846FEF726FE40212846FEF71F
:1020600089FE0028F9D0204670BD10B586B0012148
:102070000520FEF79CFC01218803FEF798FC4FF435
:102080000070ADF8140018208DF8170003208DF8AB
:102090001600274C05A92046FEF78DFA2115ADF84C
:1020A000141004218DF8171005A92046FEF783FAB5
:1020B0004FF4E13001900020ADF80800ADF80A00BF
:1020C000ADF80C00ADF810000C20ADF80E00174C68
:1020D00001A92046FEF70EFD01212046FEF786FDF0
:1020E000012240F225512046FEF78BFD402120467B
:1020F000FEF747FE06B010BD08B500214FF00060A6
:10210000FEF74BF94FF4E060FEF714F925208DF847
:10211000000000208DF8010001208DF802008DF8EC
:1021200003006846FEF70BF908BD000000380140C7
:10213000000801407FB5054601210520FEF737FC68
:102140004FF4C060FEF7F6F806208DF80C0001246D
:102150008DF80D408DF80E408DF80F4003A8FEF766
:10216000EEF800210846FEF7E1FA00218DF808108C
:102170000C208DF80900012D10D08DF80A10019463
:1021800001A8FEF73EF91120ADF8000048208DF8B7
:10219000030069460348FEF70EFA7FBD8DF80A403A
:1021A000EDE7000000080140F8B501210820FEF726
:1021B000FEFB01210820FEF7FAFB10208DF803003A
:1021C00003208DF802004FF48074ADF800400A4EF1
:1021D00069463046FEF7EFF96500ADF800506946F4
:1021E0003046FEF7E8F921463046FEF753FA294615
:1021F0003046FEF74FFAF8BD000C01402DE9FE4FC6
:10220000074681EA0300C00F0E46019021F000410D
:1022100023F00044B81AA14105D23846314617468A
:102220001E460B46024623F00040104304D13846B8
:10223000314603B0BDE8F08F350DC5F30A00C3F396
:102240000A510290401A0090402867DAC3F3130045
:1022500040F4801B0198924620B10023D2EB030A80
:1022600063EB0B0B00985946C0F14002504600F05A
:102270009EF980460C4650465946009A00F0B6F941
:10228000C0197141EF1785EA11533B433FD0019AC2
:102290004AB3009A012A11DC0022801A61EB055131
:1022A0004FF0004303EA0555CDE90025801841F5BC
:1022B00080114246234600F0B8F9BAE72E05002502
:1022C000401B61EB0601401941F580120018524194
:1022D0002818A6F5001343EB020140EAD47018EB6E
:1022E0000808644113E064084FEA38084FF0000220
:1022F00044EAC0744FEA0553801A61EB0301801869
:1023000041F5801149084FEA300080185941424692
:10231000234603B0BDE8F04F00F07AB901980122DE
:1023200040000023D0EB020263EBE07301984FEA18
:10233000E074381A66EB0401EBE783F000435DE7D5
:1023400081F000415AE72DE9FE4F81EA030421F0B4
:10235000004504F0004423F000414FF0000A0094CF
:1023600050EA050302D052EA010304D100200146DD
:1023700003B0BDE8F08FC1F30A53C5F30A542344F8
:10238000A3F2F3330193A0FB02B3C5F3130545F4A5
:10239000801CC1F3130141F480180CFB023300FBD5
:1023A000083E810A930A41EA8C5143EA8853A1FB13
:1023B00003474FEA9C2505FB03734FEA982601FB70
:1023C00006373D05260545EA1435BBEB06016EEBE5
:1023D0000503850E920E45EA8C1542EA8812A5FB8C
:1023E0000206261E67EB00070C0D44EA0334A6190B
:1023F00047EB1350C1F313044FF000031946E5FBFC
:1024000002014FEA033545EA1455019B4FEA0432B5
:10241000009CA3F10C03CDE900A445EA0605029354
:102420002B4600F002F9A3E72DE9F04D81EA030401
:1024300004F0004B21F0004714464FF0000A23F04F
:10244000004150EA070220D054EA01021DD0C1F336
:102450000A550246C1F31300C7F30A56C7F3130324
:1024600040F4801143F48013A6EB0508101BD646F8
:1024700008F2FD3873EB010002D308F1010801E016
:1024800092185B41B8F1000F03DA00200146BDE865
:10249000F08D00204FF48015064607460EE0B2EBA3
:1024A000040C73EB010C04D3121B064363EB010312
:1024B0002F436D084FEA300092185B4150EA050C3B
:1024C000EDD152EA030012D082EA040083EA01054A
:1024D000284303D100224FF0004308E0101B8B413A
:1024E00002D20122002302E06FF0010253101AEB26
:1024F000060047EB085110EB0A0041EB0B01BDE869
:10250000F04D00F085B870B521F0004303430CD0C6
:10251000C1F30A540026D4EB060566EB0603D41774
:10252000AD1AA34102DB0020014670BD001C41EB47
:10253000025170BD0EB5C10F80EAE0700844CA07B1
:10254000002140F233438DE80E000A460B4600F0AE
:102550006CF803B000BD0EB5002240F23343CDE964
:10256000002202931346114600F05FF803B000BD4D
:1025700070B5C1F30A5201F000450024C1F3130104
:1025800040F2FF3341F480119A4201DA002070BD1D
:1025900040F233439A42A2F2334203DC524200F04B
:1025A00015F800E090402C43F1D0404270BD202A45
:1025B00004DB203A00FA02F1002070479140C2F19A
:1025C000200320FA03F3194390407047202A04DBCC
:1025D000203A21FA02F00021704721FA02F3D0409C
:1025E000C2F120029140084319467047202A06DBB9
:1025F000CB17203A41FA02F043EAE07306E041FAD1
:1026000002F3D040C2F120029140084319467047BE
:1026100010B5002B08DA401C41F1000192185B4113
:102620001A4301D120F0010010BD2DE9FF4D934662
:1026300011B1B1FA81F202E0B0FA80F22032924692
:10264000FFF7B5FF039A0746884640EA0B0011439F
:102650005B46084304D13846414604B0BDE8F08DDE
:10266000114653EA020016D0CAF140025846FFF75D
:10267000ADFF04460D464FF00106584652460399F9
:10268000FFF795FF084300D10026344345EAE6757D
:10269000274345EA08080E984FF00005A0EB0A0111
:1026A0004FEAD7200A314FEA47532A4640EA4850BA
:1026B0004FEAD82402D500200146CEE7281844EB83
:1026C0000151DDE90C45001904B06941BDE8F04D48
:1026D0009EE70000064C074D06E0E06840F001036D
:1026E00094E8070098471034AC42F6D3FDF702FD9A
:1026F00004280008242800080FB4054B10B503A9CE
:10270000044A029800F017F810BC5DF814FB0000B2
:102710004D2000086000002002E008C8121F08C118
:10272000002AFAD170477047002001E001C1121F52
:10273000002AFBD170472DE9F84F0546924699468D
:102740008846002758E0252801D0514623E0002282
:1027500015F8011F10462E2915D115F8011F042266
:102760002A290DD06FF02F032978A1F13004092C0C
:1027700009D800EB800003EB400008446D1CF3E730
:1027800058F8040B6D1C2B78CBB3632B08D0732B3C
:1027900010D0514618464A46904707F101072AE0F3
:1027A00058F8043B8DF8003000218DF801106E467A
:1027B000012103E058F8046B4FF0FF3152074FF04E
:1027C000000401D409E0641C84420BDA8C42FADB79
:1027D000325D002AF7D105E0641C8C42FCDB305DE1
:1027E0000028F9D1274404E016F8010B51464A4667
:1027F0009047641EF8D26D1C28780028A3D1384673
:10280000BDE8F88F242800080000002064000000C4
:10281000182700088828000864000020A41D000074
:102820002827000802040608000000000102030433
:10283000010203040607080900A24A040000000080
:102840000000000001020304060708090000000060
:1028500000000000640000005000000000000000C4
:102860000000000000000000000000000000000068
:102870000000000000000000000000000000000058
:08288000000000000000000050
:04000005080000ED02
:00000001FF
