:020000040800F2
:1000000028090020A13D00084D0200084F02000809
:1000100053020008570200085B02000800000000BD
:100020000000000000000000000000005F02000867
:100030006102000800000000630200086502000879
:10004000BB3D0008BB3D0008BB3D0008BB3D0008B0
:10005000BB3D0008BB3D0008BB3D0008BB3D0008A0
:10006000BB3D0008BB3D0008BB3D0008BB3D000890
:10007000BB3D0008BB3D0008BB3D0008BB3D000880
:10008000BB3D0008BB3D0008BB3D0008BB3D000870
:10009000BB3D0008BB3D0008BB3D0008BB3D000860
:1000A000BB3D0008951F0008BB3D0008BB3D000894
:1000B00067020008BB3D0008BB3D0008BB3D0008CF
:1000C000BB3D0008BB3D0008BB3D0008BB3D000830
:1000D000BB3D000861070008BB3D0008BB3D0008B0
:1000E000BB3D0008BB3D0008BB3D0008BB3D000810
:1000F000BB3D0008BB3D0008BB3D0008BB3D000800
:10010000BB3D0008BB3D0008BB3D0008BB3D0008EF
:10011000BB3D0008BB3D0008BB3D0008BB3D0008DF
:10012000BB3D0008BB3D0008BB3D0008BB3D0008CF
:1001300000F002F800F05CF80AA090E8000C82449D
:100140008344AAF10107DA4501D100F051F8AFF27A
:10015000090EBAE80F0013F0010F18BFFB1A43F0A5
:1001600001031847B4530000D45300000A444FF071
:10017000000C10F8013B13F0070408BF10F8014B06
:100180001D1108BF10F8015B641E05D010F8016B4B
:10019000641E01F8016BF9D113F0080F1EBF10F8AF
:1001A000014BAD1C0C1B09D16D1E58BF01F801CBD2
:1001B000FAD505E014F8016B01F8016B6D1EF9D555
:1001C0009142D6D37047000000230024002500266A
:1001D000103A28BF78C1FBD8520728BF30C148BFAA
:1001E0000B6070471FB505F036F81FBD10B510BD88
:1001F00003F00EFE1146FFF7F5FF00F00BF803F0D9
:100200002CFE03B4FFF7F2FF03BC00F07CFA000001
:1002100030BF000001F074FE50200849086000BFA4
:10022000074800780128FBD1064A0021064801F062
:1002300055F8002002490870F2E700001C00002079
:10024000D40100200000C8410000C843704700BF2F
:10025000FEE700BFFEE700BFFEE700BFFEE7704716
:1002600070477047704710B50121880703F085F982
:1002700070B10121880703F091F90021054803F0CE
:10028000D0FA00BF8021034803F039FB0028F9D0E1
:1002900010BD00000038014000210020674A1268AC
:1002A00042F48032654B1A6000BF644A126802F45F
:1002B0000030491C10B9B1F5A06FF6D15F4A126841
:1002C00012F4003F01D0012000E00020012842D1BB
:1002D0005B4A126842F01002594B1A601A461268C3
:1002E00022F003021A601A46126842F002021A60F3
:1002F000524A5268514B5A601A4652685A601A461E
:10030000526842F480625A601A46526822F47C12A3
:100310005A601A46526842F4E8125A601A46126845
:1003200042F080721A6000BF444A126812F0007FE7
:10033000FAD0424A526822F00302404B5A601A46F1
:10034000526842F002025A6000BF3C4A526802F012
:100350000C02082AF9D1704710B5FFF79DFF10BDB8
:1003600010B53648006840F001003449086008467E
:1003700040683449084031494860084600683249BD
:1003800008402E4908600846006820F48020086074
:100390000846406820F4FE0048604FF41F00886063
:1003A000FFF7DAFF4FF000602849086010BD10B574
:1003B000002100200022214B5B6803F00C0121B1D9
:1003C000042906D0082928D107E0214B214C2360BD
:1003D00027E01F4B1F4C236023E0184B5B6803F49E
:1003E0007010164B5B6803F48032022303EB9040DD
:1003F00022B9194B4343174C23600DE00F4B5B6848
:1004000013F4003F04D0144B4343124C236003E029
:100410000F4B43430F4C236003E00D4B0D4C236007
:1004200000BF00BF054B5B68C3F303130B4CE15CDB
:10043000084B1B68CB40074C236010BD00100240E6
:10044000002002400000FFF8FFFFF6FE08ED00E08C
:1004500000127A000000002000093D000400002086
:100460004FF0E021096921F004014FF0E022116111
:10047000C21700EB5272D2101F4B1A70194609783E
:100480004FF47A7251431D4A1180704701461A4A4F
:1004900012784A434FF0E0235A6100229A61012208
:1004A0001A6100BF4FF0E022106910F0010F02D076
:1004B00010F4803FF6D000224FF0E0231A619A61D9
:1004C000704701460D4A12884A434FF0E0235A61B3
:1004D00000229A6101221A6100BF4FF0E0221069E8
:1004E00010F0010F02D010F4803FF6D000224FF040
:1004F000E0231A619A617047140000201600002062
:10050000002050490861C8601420486100208861BB
:10051000C8610846006840F001000860084640686D
:10052000494908404749486008460068474908402B
:10053000444908600846006820F4802008600846A6
:10054000406820F4FE00486000208860704710B5C5
:100550003F48006840F004004FF0E021C1F8100D62
:100560003848C06940F080503649C8613948406811
:1005700040F48070374948600846006840F0040045
:1005800008600846006840F002000860FFF740FE7F
:1005900010BD314831490860704701464906294A73
:1005A000926942F00102274B9A612D4A526822F06B
:1005B000E0622B4B5A601A4652680A435A607047F1
:1005C00000B502460023FFF79BFF1E48006840F479
:1005D00080301C49086000BF1A480068400CFBD0FE
:1005E0004FF4806017494860901EC2B208464068C8
:1005F00040EA824048600846406840F480304860E5
:100600001848006840F03200164908600D4800683C
:1006100040F080700B49086000BF0A480068400E37
:10062000FBD00848406840F002000649486005E0F9
:1006300004484068C0F3870303F00303022BF7D19B
:1006400000BD0000001002400000FFF8FFFFF6FEB2
:1006500010ED00E0007000400400FA050CED00E031
:10066000000001400020024000B587B0012144F2A3
:10067000050001F0D8FF4FF40070ADF8180003201A
:100680008DF81A0018208DF81B0006A9424801F0C9
:1006900017FD4FF48060ADF8180048208DF81B005E
:1006A00006A93D4801F00CFD4FF4E1300290002016
:1006B000ADF80C00ADF80E00ADF81000ADF8140068
:1006C0000C20ADF812000020ADF80000ADF80200DB
:1006D0004FF40070ADF804000020ADF806000122D0
:1006E00040F225512D4803F038F869462B4803F0B5
:1006F00011F802A9294802F098FF0121274803F0C8
:1007000020F807B000BD014600BF7047C2B2244BBD
:100710001A8000BF214A128812F0400FFAD07047A9
:100720001F49088000BF1D49098811F0400FFAD009
:10073000704700B50D20FFF7F3FF0A20FFF7F0FF29
:1007400000BD09E010F8011B154A118000BF1349D4
:10075000098811F0400FFAD001780029F2D17047D2
:1007600010B525210D4803F00AF90C48008810F057
:10077000200F0FD00A4800880A4908604FF0320263
:1007800011460848006801F029FC07480078401C21
:100790000549087010BD0000000801400038014004
:1007A000043801401C0000201800002000B585B06E
:1007B0000121082001F037FF0121880501F040FFE9
:1007C0004FF44060ADF8100003208DF812001C209B
:1007D0008DF8130004A9BD4801F072FC0020ADF8AB
:1007E00004004BF6FF70ADF80600D020ADF808000D
:1007F0004FF48060ADF80A000001ADF80C00B44879
:1008000000900121B34803F06AF96946B14803F04A
:10081000E8F80121AF4803F09EF905B000BD10B51E
:10082000002400BF0121AB4803F07DF91421A94841
:1008300003F0DBF904460022D021A64803F0CCF9EE
:100840001421A44803F0D1F910F0020FEAD0A24914
:10085000A04803F07EFA01219E4803F070F910BD14
:1008600070B504460D4600BF4FF40031994803F0BF
:100870005BFA0028F8D10121964803F054F900BF33
:100880009649944803F02EFA0028F9D00022D0218E
:10089000904803F0A1F900BF91498E4803F022FA75
:1008A0000028F9D021468B4803F090F900BF8C490D
:1008B000891C884803F016FA0028F8D02946854894
:1008C00003F084F900BF8649891C824803F00AFAC4
:1008D0000028F8D001217F4803F031F9FFF79FFF8E
:1008E00070BD10B56420FFF7ECFD00216B20FFF711
:1008F000B7FF0A20FFF7E5FD07211920FFF7B0FF3A
:100900000A20FFF7DEFD06211A20FFF7A9FF0A20C3
:10091000FFF7D7FD18211B20FFF7A2FF0A20FFF7E2
:10092000D0FD01211C20FFF79BFF4FF47A70FFF7E9
:10093000C8FD10BD70B5044600BF4FF400316548D6
:1009400003F0F2F90028F8D10121624803F0EBF836
:1009500000BF62495F4803F0C5F90028F9D00022C2
:10096000D0215C4803F038F900BF5D49594803F0D5
:10097000B9F90028F9D00121564803F0B0F8214612
:10098000544803F023F900BF5549891C514803F02E
:10099000A9F90028F8D001214E4803F0C4F800BF9F
:1009A0004E494C4803F09EF90028F9D00122D0218D
:1009B000484803F011F900BF4849491C454803F075
:1009C00091F90028F8D00021424803F0C4F8012131
:1009D000404803F0B4F841493F313E4803F082F902
:1009E00018B13C4803F0F4F805460121394803F0FA
:1009F000B2F8284670BD70B505460E46144600BFD5
:100A00004FF40031334803F08FF90028F8D1012169
:100A1000304803F088F800BF30492E4803F062F9EF
:100A20000028F9D00022D0212A4803F0D5F800BFD1
:100A30002B49284803F056F90028F9D00121254810
:100A400003F04DF83146234803F0C0F800BF2449B5
:100A5000891C204803F046F90028F8D001211D48E0
:100A600003F061F800BF1D491A4803F03BF9002864
:100A7000F9D00122D021174803F0AEF800BF174982
:100A8000491C144803F02EF90028F8D016E0012C78
:100A900007D100210F4803F05EF801210D4803F053
:100AA0004EF80E493F310B4803F01CF930B10948AC
:100AB00003F08EF828706D1C601EC4B2002CE6D1C5
:100AC0000121044803F047F870BD0000000C01400C
:100AD000801A0600005800400004001001000300C6
:100AE000820007002DE9F047074688460025A94601
:100AF000012408E0FF4830F81410601EFD4A22F877
:100B00001010601CC4B2102CF4DB4146384604F0CF
:100B100043F982464FF0804104F0ACF9064604F0F8
:100B20006BFA00B2F349C883002405E0F14830F9BC
:100B300014000544601CC4B2102CF7DB2E46E917E4
:100B400005EB1171081104F073FA81464846BDE8BF
:100B5000F08740F60661884200DD0846E649884293
:100B600000DA084600F56161E44A1180C0F5616170
:100B70004FF08042A2F83814704740F60661884270
:100B800000DD0846DC49884200DA084600F561616C
:100B9000DB4A1180C0F561614FF08042A2F8401439
:100BA000704770B5002100220023012016E0D54CCB
:100BB00034F81050441ED34E26F81450D24C34F85A
:100BC0001050441ED04E26F81450D04C34F810501B
:100BD000441ECE4E26F81450441CE0B21028E6DB2A
:100BE000CB4CB4F90040C74DEC83CA4CB4F900407B
:100BF000C54DEC83C84CB4F90040C44DEC830020D3
:100C00000DE0C04C34F910402144BF4C34F9104081
:100C10002244BE4C34F910402344441CE0B2102856
:100C2000EFDB0C46CD1701EB15752D112DB2B84E2B
:100C300035801446D51702EB15752D112DB2B54E22
:100C400035801C46DD1703EB15752D112DB2B24E04
:100C5000358070BD2DE9F05F05460C46AF4EB04FB4
:100C6000DFF8C082C146B0480168204604F03AFB74
:100C70008346494604F028FA8246AC48016850464B
:100C800004F08AF8A9490860A9484168304604F090
:100C900029FB8246A6488168504604F023FBA549FB
:100CA0000860A348C06880F000404860A048C06861
:100CB00080F0004088600846C7600868494604F034
:100CC00003FA82469A480168504604F065F898494C
:100CD000086098494868494604F0F6F98246944805
:100CE0004168504604F058F8914948609149886835
:100CF000494604F0E9F982468D488168504604F07F
:100D00004BF88B4988608B49C868494604F0DCF988
:100D100082468748C168504604F03EF88449C8605E
:100D200082480168284604F0DDFA8349086080485B
:100D300001684FF07E5004F0C7F9804908607C4894
:100D400081684FF07E5004F0BFF97D4908607B4810
:100D500001684FF07E5004F0B7F98246414604F036
:100D60001BF878490860084601687448006804F078
:100D700081F875490860734801687148006804F09B
:100D800079F8724908606D480068714908606848E0
:100D90004068704908606E4801686B48006804F05C
:100DA00093F9824662480168504604F091FA60491E
:100DB0000860684801686448006804F085F9824664
:100DC0005B484168504604F083FA594948606048DE
:100DD00001685E48006804F077F9824654488168EB
:100DE000504604F075FA524988605A4801685748DD
:100DF000006804F069F982464D48C168504604F025
:100E000067FA4B49C8604C4801684F48006804F0D5
:100E10005BF9824645480168504603F0BDFF4349EF
:100E20000860454801684948006804F04DF9824669
:100E30003D480168504603F0AFFF3B490860084653
:100E40000168204604F04EFA43490860BDE8F09F6F
:100E50002DE9FC5F02223B214048FFF7CCFD022236
:100E60003D213F48FFF7C7FD02223F213D48FFF7E4
:100E7000C2FD022243213C48FFF7BDFD37484078C0
:100E80003649097800EB012000B221490880344836
:100E900040783349097800EB012000B21D490880F1
:100EA000304840782F49097800EB012000B21A49F8
:100EB00008802D4840782C49097800EB012000B2C9
:100EC0002A490880FFF76DFE1248B0F9000004F0CF
:100ED000AFF8274908600E49B1F9001049430D4A9F
:100EE000B2F900200B4BB3F9003002FB03110A4AA0
:100EF00040E00000F4010020FAF1FFFF340400405C
:100F00003C040040440200206402002084020020CF
:100F1000880000208A0000208C000020A69B443B13
:100F20006F12833A0AD7233C640000202800002077
:100F30005400002014020020680000206C000020F3
:100F40007000002080000020840000207400002039
:100F5000780000207C0000202C0000204E000020A3
:100F600050000020520000204C0000208E00002085
:100F70009C000020B2F90020DF4BB3F9003002FBE7
:100F8000031003F079FB804603F00AF904460D468E
:100F9000DA48B0F9000003F06FFB064622462B4604
:100FA00003F012FA824602F0B9FFCDE9000103F026
:100FB0001DF9D34908600846006803F0C1FE824667
:100FC0000022D04B03F0ACFB8046CF4ACF4B03F05E
:100FD000FBF904460022CE4B03F0D6FC064603F094
:100FE00005F9CC490860CC48B0F9000004F020F8BD
:100FF000CA490860C848B0F9000003F03DFB8046CC
:101000000022C74B03F024F9824603F0EFF8019069
:1010100003F096FE06464FF06632C24B03F0D4F959
:10102000044603F0E3F8C049086008460168B9487F
:101030000068FFF70FFEBDE8FC9F2DE9F04F87B079
:101040000646174600F051FA044603F0F1FFB7498F
:10105000086000F03EFA044603F0EAFFB449086075
:1010600008460168B148006803F096FE824603F026
:1010700067FE80460022AF4B03F052FB044603F0AC
:10108000B5F8AD4908600846006803F059FE04460B
:101090004FF03332A94B03F043FB80468946A84802
:1010A000006803F04DFE04464FF06632A54B03F096
:1010B00037FB824642464B4603F0CAF8CDE90401AD
:1010C00003F094F89E4908600846006803F038FE73
:1010D00004469D480CC8204603F0BAF89A4A03C259
:1010E0009A48006803F0C8FA044697480CC820469E
:1010F00003F04AFC944A03C20022954B924903C96B
:1011000003F00CFC05D2002191488F4AC2E900107F
:101110000AE000228F4B8C4903C903F0C5FA03D2C1
:1011200000208C49884A03C28048016880480068D2
:1011300004F0D8F8884908600846016887480068C4
:1011400003F02AFE854908600846006803F0F8FDB0
:1011500004460022134603F0E3FA804689467E489F
:10116000006803F0EDFD04460022724B03F0D8FA4C
:1011700042464B46CDE9040103F06AF8824603F08B
:1011800035F87749086000206849086068490860B8
:101190006048006803F0D4FD04460022714B03F060
:1011A00083FA6DD85B48006803F0CAFD044600224C
:1011B0006D4B03F0B3FB63D86C4801686C48006862
:1011C00000F0A4F90446314603F0E6FD69490860E1
:1011D00066480168384603F077FF044603F0B0FD27
:1011E000CDE902016248006803F0AAFD044600222E
:1011F000614B03F02DF8804689465E48006803F095
:101200009FFD824642464B4603F08AFACDE9000133
:10121000DDE9022303F01CF8CDE9040102F0E6FF4A
:10122000564908604E48006803F08AFD82468B46A6
:101230005348006803F084FDCDE9000142480CC822
:10124000009803F06DFA04460D463D4801684D488C
:10125000006803F039FF019003F072FD80462246DA
:101260002B4602F0F5FF52465B46CDE9020102F043
:10127000EFFFCDE9040102F0B9FF4349086004E043
:1012800000203E4908604049086007B0BDE8F08F83
:101290002DE9F041002400253B48016837480068EB
:1012A00004F020F8074603F0A7FE0646374800681A
:1012B000341836480068351A002C01DD1E3400E071
:1012C0001E3C002D01DD1E3500E01E3D2046FFF7CF
:1012D00040FC2846FFF751FCBDE8F08170B504469C
:1012E0000D461646FFF7B4FD324629462046FFF765
:1012F000A4FEFFF7CDFF70BD8C0000208A00002007
:1013000098000020008066401F85EB51B81E094000
:1013100000805640900000208E000020A000002099
:1013200000003D406666304094000020B000002080
:10133000B40000200000E03FC40000203333D33F5E
:10134000380000206666E63FC8000020D801002073
:10135000006AE840006AE8C0B8000020BC00002035
:10136000C000002000004440000044C02C000020C9
:1013700028000020340000200000F83FAC000020CE
:101380004800002044000020D0000020DC010020A4
:1013900000B587B00121082001F045F902208DF841
:1013A0001A00C020ADF8180004208DF81B0006A913
:1013B000524800F085FE0121042001F041F9504817
:1013C00001F018FA03A94E4801F0E8FA4FF6FF7051
:1013D000ADF810000020ADF80C00ADF81200ADF82B
:1013E0000E0003A9464801F0D9FA00231A4603214A
:1013F000434801F0C4FE684601F0EDFD0620ADF85B
:10140000080069463E4801F03AFD01213C4802F0DF
:10141000B1F800203B4908804FF00101384801F045
:10142000ECFD07B000BD00B587B00121042001F03C
:10143000FAF802208DF81A000320ADF818000420F5
:101440008DF81B0006A9304800F03AFE012108463D
:1014500001F0F6F84FF0804001F0CCF903A94FF00D
:10146000804001F09BFA4FF6FF70ADF810000020AD
:10147000ADF80C00ADF81200ADF80E0003A94FF066
:10148000804001F08BFA00231A4603214FF0804080
:1014900001F075FE684601F09EFD0620ADF80800DB
:1014A00069464FF0804001F0EAFC0121880702F014
:1014B00061F800204FF0804188840121880701F005
:1014C0009CFD07B000BD10B5FFF762FFFFF7ABFF53
:1014D00010BD0C490988C1F1000108B24FF00001AC
:1014E0004FF08042A2F8241870474FF08041898C59
:1014F00008B200214FF0804291847047000C0140F7
:1015000000080040240800400008014003B59DB0D9
:10151000F848C0684042089003F08AFD09901D9980
:1015200003F09EFD7DD2F348C068089003F080FD73
:1015300009901D9903F09BFEF4D2EE48806840426A
:10154000089003F075FD09901D9903F090FE1FD8D7
:101550006FF001001390E748C068E6498968401AB7
:10156000069003F065FD0890E248806840420590CF
:1015700003F05EFD06901D9903F0B4FE07900899F4
:1015800003F078FCDC49099003F09EFD1A90ECE032
:10159000D84840684042089003F04AFD09901D99E0
:1015A00003F065FE1FD84FF0FF301390D1488068DC
:1015B000D0494968401A069003F03AFD0890CD489A
:1015C00040684042059003F033FD06901D9903F0FA
:1015D00089FE0790089903F04DFCC749099003F074
:1015E00073FD1A90C1E0C3480068089003F020FD25
:1015F00009901D9903F03BFE20D800201390BD48B0
:101600004068BC490968401A069003F011FD089033
:10161000B84800684042059003F00AFD06901D9905
:1016200000E083E003F05EFE0790089903F022FCDF
:10163000B149099003F048FD1A9096E0AD48406822
:10164000089003F0F5FC09901D9903F010FE1DD8D9
:1016500001201390A7484068A6490968401A0690DF
:1016600003F0E6FC0890A3484068059003F0E0FC16
:1016700006901D9903F036FE0790089903F0FAFBD7
:101680009D49099003F020FD1A906EE0994880680A
:10169000089003F0CDFC09901D9903F0E8FD1DD8DA
:1016A000022013909348806892494968401A069036
:1016B00003F0BEFC08908F488068059003F0B8FCEA
:1016C00006901D9903F00EFE0790089903F0D2FBD7
:1016D0008949099003F0F8FC1A9046E08548C068F3
:1016E000089003F0A5FC09901D9903F0C0FD3CD8BB
:1016F000032013907F48C0687E498968401A06908D
:1017000003F096FC08907B48C068059003F090FCBD
:1017100006901D9903F0E6FD0790089903F0AAFBD7
:101720007549099003F0D0FC1A901EE07148C0681A
:101730004042089003F07CFC09901D9903F097FD4E
:1017400005D86FF0010013906B481A900DE06948BE
:10175000C068089003F06CFC09901D9903F080FCB0
:1017600003D80320139000201A901A98014609907C
:10177000614803F0B7FD1B906048C0684042089084
:1017800003F056FC09901E9903F06AFC7DD25B4879
:10179000C068089003F04CFC09901E9903F067FDA7
:1017A000F4D2564880684042089003F041FC09900A
:1017B0001E9903F05CFD1FD86FF0010012904F4896
:1017C000C0684E498968401A069003F031FC0890C1
:1017D0004A4880684042059003F02AFC06901E9912
:1017E00003F080FD0790089903F044FB42490990FB
:1017F00003F06AFC1890F2E04048406840420890CC
:1018000003F016FC09901E9903F031FD1FD84FF02C
:10181000FF3012903948806838494968401A06906C
:1018200003F006FC0890354840684042059003F0FC
:10183000FFFB06901E9903F055FD0790089903F0F1
:1018400019FB2D49099003F03FFC1890C7E02B4885
:101850000068089003F0ECFB09901E9903F007FD67
:1018600020D8002012902548406824490968401A71
:10187000069003F0DDFB0890204800684042059088
:1018800003F0D6FB06901E9900E089E003F02AFDE4
:101890000790089903F0EEFA1749099003F014FC39
:1018A00018909CE015484068089003F0C1FB09902F
:1018B0001E9903F0DCFC23D8012012900F484068E9
:1018C0000E490968401A069003F0B2FB08900B48D5
:1018D0004068059003F0ACFB06901E9903F002FDF2
:1018E0000790089903F0C6FA0349099003F0ECFB4E
:1018F000189074E0D40000200000C842E4000020EA
:10190000F3488068089003F093FB09901E9903F058
:10191000AEFC1DD802201290ED488068EC49496861
:10192000401A069003F084FB0890E948806805900F
:1019300003F07EFB06901E9903F0D4FC07900899F3
:1019400003F098FAE349099003F0BEFB189046E0D3
:10195000DF48C068089003F06BFB09901E9903F004
:1019600086FC3CD803201290D948C068D8498968C1
:10197000401A069003F05CFB0890D548C0680590BB
:1019800003F056FB06901E9903F0ACFC07900899F3
:1019900003F070FACF49099003F096FB18901EE00F
:1019A000CB48C0684042089003F042FB09901E9962
:1019B00003F05DFC05D86FF001001290C548189047
:1019C0000DE0C348C068089003F032FB09901E99EF
:1019D00003F046FB03D803201290002018901898BB
:1019E00001460990BB4803F07DFC19901398801CB8
:1019F000C0EBC000B84901EB80011298801C51F87F
:101A000020000E901398C01CC0EBC000B24901EB3F
:101A100080011298801C51F820000F901398801CB0
:101A2000C0EBC000AC4901EB80011298C01C51F81A
:101A3000200010901398C01CC0EBC000A64901EB19
:101A400080011298C01C51F820001190189809903C
:101A50001A980890099903F003FB02D81A98149079
:101A600001E018981490189809901B98089009990B
:101A700003F0F6FA02D81B98159001E0189815901B
:101A8000199809901A980890099903F0E9FA02D870
:101A90001A98169001E019981690199809901B98B9
:101AA0000890099903F0DCFA02D81B98179001E01E
:101AB00019981790DDE90E0188420CD1159809900C
:101AC00014980890099903F0D2FB02D200201590D7
:101AD00001E00020149010990E9888420CD11698BD
:101AE000099014980890099903F0C1FB02D20020D4
:101AF000169001E00020149011990E9888420CD1A4
:101B00001798099014980890099903F0B0FB02D235
:101B10000020179001E000201490DDE90F018842B9
:101B20000CD11698099015980890099903F09FFB1D
:101B300002D20020169001E00020159011990F9814
:101B400088420CD11798099015980890099903F0CC
:101B50008EFB02D20020179001E000201590DDE9F5
:101B6000100188420CD1179809901698089009998D
:101B700003F07DFB02D20020179001E000201690B8
:101B80000E98002805DB55490E9851F820000E905C
:101B900006E00E984042514951F8200040420E9014
:101BA0000F98002805DB4D490F9851F820000F9041
:101BB00006E00F984042494951F8200040420F90FA
:101BC0001098002805DB4549109851F82000109026
:101BD00006E010984042414951F8200040421090E0
:101BE0001198002805DB3D49119851F8200011900B
:101BF00006E011984042394951F8200040421190C6
:101C00001198059003F014FA069017980146059074
:101C1000069803F059FA08901098039003F008FA18
:101C20000490169801460390049803F04DFA06902C
:101C30000F98019003F0FCF902901598014601906D
:101C4000029803F041FA04900E98019003F0F0F925
:101C50000290149801460190029803F035FA03901F
:101C6000049903F099F80590069903F095F8079008
:101C7000089903F091F8099003F062F8CDE90C019E
:101C80001598069014980590069903F085F807902A
:101C9000169801460690079803F07EF8089017986A
:101CA00001460790089803F077F8099003F048F888
:101CB000CDE90A01DDE90A23DDE90C0102F084FB2C
:101CC000CDE9080102F092FA1C901C981FB000BDEB
:101CD000E40000200000C84210010020F4000020B1
:101CE00008B500214FF0006000F048FD4FF4A060FF
:101CF00000F004FD1C208DF8000000208DF801008C
:101D000001208DF802008DF80300684600F0FBFC0E
:101D100019208DF8000000208DF801008DF80200D8
:101D200001208DF80300684600F0EDFC25208DF8B9
:101D3000000001208DF801008DF802008DF80300ED
:101D4000684600F0E0FC08BD00B587B00121022024
:101D500000F076FC41F61F40ADF81400C820ADF845
:101D600010000020ADF81600ADF8120004A992484A
:101D700000F014FE6020ADF800000120ADF8020074
:101D80004FF46160ADF806000020ADF80800694628
:101D9000894800F040FE0821874801F067FA69464B
:101DA000854800F07AFE0821834801F068FA694608
:101DB000814800F0BBFE08217F4801F06BFA6946BC
:101DC0007D4800F0FAFE08217B4801F06CFA012101
:101DD000794801F01BFA0121774801F00EF9012141
:101DE000754801F013FA0121734801F006F907B0B4
:101DF00000BD08B501213C2000F015FCC020ADF865
:101E0000000018208DF8030003208DF802006946B9
:101E10006A4800F055F90320ADF8000018208DF84D
:101E2000030003208DF802006946654800F048F978
:101E30004FF44070ADF8000010208DF8030003202F
:101E40008DF8020069465E4800F03AF98120ADF84D
:101E5000000048208DF8030003208DF80200694639
:101E6000584800F02DF90620ADF8000048208DF804
:101E7000030003208DF802006946524800F020F963
:101E80000420ADF8000048208DF8030003208DF8F1
:101E9000020069464C4800F013F92020ADF800001C
:101EA00048208DF8030003208DF80200694644485D
:101EB00000F006F908BD0EB50121C80200F0B3FB21
:101EC00042F20F70ADF804004720ADF8000000208A
:101ED000ADF80600ADF802008DF8080069463B48F1
:101EE00000F05CFD0121394801F044FB012211465C
:101EF000364801F0A8F80121344801F07EF80EBD03
:101F000010B50920FEF75CFB4820FEF7A9FAFEF7A2
:101F1000ABFBFFF7D0FFFFF76CFFFFF715FFFFF7F5
:101F2000DFFEFEF743FCFEF7DCFCFFF7CCFA4FF4D4
:101F30006160274908804FF08041A1F834042549A9
:101F400008804FF08041A1F8400410BD0EB501217A
:101F5000084600F075FB42F20F70ADF80400472010
:101F6000ADF800000020ADF80600ADF802006946AB
:101F70004FF0804000F012FD0121880701F00EFBB8
:101F800001221146900701F05EF80121880701F057
:101F900034F80EBD10B501210C4801F0EEFA48B13D
:101FA00001210A4801F0FAFA0B48007810B9012023
:101FB0000949087010BD00000004004000080140FD
:101FC000000C01400010014000140140002C0140B1
:101FD000380400403C040040D401002010B5A0F1BA
:101FE000500303EB83035B00024C2360024B034C62
:101FF000236010BDDC01002050FBFFFFD801002052
:1020000010B50446CA48844208D10121042000F0DA
:1020100024FB0021042000F020FB46E0C548844258
:1020200008D10121082000F018FB0021082000F051
:1020300014FB3AE0C048844208D10121102000F08E
:102040000CFB0021102000F008FB2EE0BB4884426E
:1020500008D10121202000F000FB0021202000F009
:10206000FCFA22E0B648844208D10121402000F069
:10207000F4FA0021402000F0F0FA16E0B148844262
:1020800008D10121802000F0E8FA0021802000F032
:10209000E4FA0AE0AC48844207D10121801500F03F
:1020A000DCFA0021A01500F0D8FA10BD10B501210E
:1020B000084600F0D2FA0021012000F0CEFA10BD4F
:1020C0002DE9F041024600250026002000230024CF
:1020D000002791F803C00CF00F0591F803C01CF025
:1020E000100F03D091F802C04CEA0505B1F800C00A
:1020F0001CF0FF0F31D0146800202BE04FF0010CD2
:102100000CFA00F3B1F800C00CEA03069E4220D19D
:1021100083004FF00F0C0CFA03F7BC4305FA03FCE5
:102120004CEA040491F803C0BCF1280F06D14FF02B
:10213000010C0CFA00FCC2F814C00AE091F803C0CC
:10214000BCF1480F05D14FF0010C0CFA00FCC2F8AD
:1021500010C0401C0828D1D31460B1F800C0BCF1F5
:10216000FF0F34DD546800202EE000F1080C4FF022
:10217000010808FA0CF3B1F800C00CEA03069E420D
:1021800021D183004FF00F0C0CFA03F7BC4305FA82
:1021900003FC4CEA040491F803C0BCF1280F05D1FC
:1021A00000F1080C08FA0CF8C2F8148091F803C08A
:1021B000BCF1480F07D100F1080C4FF0010808FAF4
:1021C0000CF8C2F81080401C0828CED35460BDE83B
:1021D000F0814FF6FF710180022181700421C170EE
:1021E00070470246002093680B4201D0012000E0B6
:1021F000002070470146886880B270470246002080
:10220000D3680B4201D0012000E000207047014656
:10221000C86880B2704701617047416170470AB178
:10222000016100E041617047C16070474FF4803246
:102230000A438261816182618269826970470246D4
:102240000020424B18684FF68073184040EA021095
:1022500008433E4B186070473D49C8617047F0B570
:102260000A46002300240021002500F00046B6F1B4
:10227000004F02D1354EF16901E0344E7168C0F370
:10228000034583B200F44016B6F5401F08D121F093
:1022900070612E4E766826F070662C4F7E6012E0DC
:1022A00000F48016B6F5801F06D1032606FA05F461
:1022B000A14341F0706106E0460D360103FA06F6CF
:1022C000B14341F0706122B1460D360103FA06F6C2
:1022D000314300F00046B6F1004F02D11B4EF161D0
:1022E00001E01A4E7160F0BD30B500228B071C0F63
:1022F0000F2303FA04F2154B08338C1053F82430E3
:102300009343124C08348D1044F8253023468C102A
:1023100053F824308C07240F00FA04F423430B4CA9
:1023200008348D1044F8253030BD0A4908607047E4
:1023300000080140000C0140001001400014014061
:1023400000180140001C0140002001400000014035
:1023500000002042DC002042DB48006840F0010021
:10236000D949086008464068D8490840D6494860BD
:1023700008460068D6490840D34908600846006806
:1023800020F4802008600846406820F4FE00486081
:102390004FF41F0088607047CB49096821F48031F1
:1023A000C94A11601146096821F480211160B0F515
:1023B000803F03D0B0F5802F0ED106E0C2490968F6
:1023C00041F48031C04A116007E0BF49096841F417
:1023D000A021BD4A116000E000BF00BF704710B5EA
:1023E00001460022002300204A11012A02D1B64CE6
:1023F000236806E0022A02D1B34C236A01E0B24C02
:10240000636A01F01F02012494401C4201D00120A4
:1024100000E0002010BD70B500240025002600BF9C
:102420003120FFF7DCFF0646641CB4F5A06F01D035
:10243000002EF5D03120FFF7D2FF08B1012500E0D2
:102440000025284670BD014600209F4A106820F0F4
:10245000F80040EAC100106070479E49086070476C
:1024600002460020984B586820F47C1042EA010391
:102470001843954B58607047964908667047014667
:102480000020914A506820F00300084350607047D4
:102490008D48406800F00C007047014600208A4AD1
:1024A000506820F0F000084350607047014600205B
:1024B000854A506820F4E060084350607047014648
:1024C0000020814A506820F4605040EAC10050600A
:1024D000704729B17C4A527A02437B4B5A7206E01C
:1024E000794A527AC343DBB21A40774B5A7270472B
:1024F00079490860704701460020734A506820F40B
:1025000040400843506070470021744A11706E4A81
:1025100082F82010012802D0042808D103E001210C
:102520006E4A117004E005216C4A117000E000BF92
:1025300000BF70476A49086070476349096A0143F0
:10254000614A1162704767490860704730B50021E1
:102550000022002400235C4D6D6805F00C0121B1C0
:10256000042905D0082923D105E05F4D056022E04C
:102570005D4D05601FE0544D6D6805F47012524DBD
:102580006D6805F48034022505EB92421CB9574D65
:10259000554305600BE04C4D6D6815F4003F03D0CA
:1025A000524D5543056002E04F4D5543056002E032
:1025B0004D4D056000BF00BF434D6D6805F0F00153
:1025C00009094B4D6B5C0568DD4045603E4D6D680B
:1025D00005F4E061090A464D6B5C4568DD408560A5
:1025E000394D6D6805F46051C90A414D6B5C456811
:1025F000DD40C560344D6D6805F44041890B3D4DAB
:102600006B5CC568B5FBF3F5056130BD29B12E4A99
:10261000526902432C4B5A6104E02B4A52698243AF
:10262000294B5A61704729B1274A92690243264BC8
:102630009A6104E0244A92698243234B9A6170476D
:1026400029B1214AD26902431F4BDA6104E01E4AD4
:10265000D26982431C4BDA61704729B11A4AD268A9
:102660000243194BDA6004E0174AD2688243164BE2
:10267000DA60704729B1144A12690243124B1A6199
:1026800004E0114A126982430F4B1A6170471A49DC
:10269000086070470F49C86470470B49C87170479C
:1026A0000948406A40F08070074948627047014617
:1026B0000020054A92680A4201D0012000E0002073
:1026C0007047014988727047001002400000FFF80F
:1026D000FFFFF6FE00004242D800424220100240B6
:1026E000800442423C04424200127A0000093D004C
:1026F000E0010020F001002040044242364901433D
:10270000364A1160704770B5002100230F22C4784B
:102710004CB3324C246804F4E064C4F5E0644FEA3E
:102720001421C1F1040322FA01F2447804FA03F1FE
:10273000847804EA020444EA01014FEA0111284CBA
:102740000678A155047804F01F054FF0010404FA3F
:1027500005F405784FEA65154FF0E02606EB850590
:10276000C5F8004109E0047804F01F050124AC40DD
:102770001C4D0678761145F8264070BD1A4A0A406D
:1027800002431A4B1A60704741B1194A126842EA73
:1027900000024FF0E023C3F8102D07E0144A12683E
:1027A00022EA00024FF0E023C3F8102D70470428FE
:1027B00008D14FF0E021096941F004014FF0E02217
:1027C000116107E04FF0E021096921F004014FF0A9
:1027D000E0221161704700000000FA050CED00E0F6
:1027E00000E400E080E100E080FFFF1F08ED00E072
:1027F00010ED00E010B50446FF48844208D10121E5
:10280000C014FFF72AFF0021E014FFF726FFC4E001
:10281000B4F1804F08D101210846FFF72BFF0021BA
:102820000120FFF727FFB8E0F448844208D10121D6
:102830000220FFF71FFF00210220FFF71BFFACE083
:10284000EF48844208D101210420FFF713FF002143
:102850000420FFF70FFFA0E0EA48844208D10121DD
:102860000820FFF707FF00210820FFF703FF94E08F
:10287000E548844208D101211020FFF7FBFE00212A
:102880001020FFF7F7FE88E0E048844208D10121DC
:102890002020FFF7EFFE00212020FFF7EBFE7CE079
:1028A000DB48844208D101214014FFF7D6FE002105
:1028B0006014FFF7D2FE70E0D648844209D10121AE
:1028C000C804FFF7CAFE00214FF40020FFF7C5FE41
:1028D00063E0D148844209D101210805FFF7BDFE1C
:1028E00000214FF48010FFF7B8FE56E0CB48844239
:1028F00009D101214805FFF7B0FE00214FF4001077
:10290000FFF7ABFE49E0C648844208D101214020D0
:10291000FFF7B0FE00214020FFF7ACFE3DE0C148CC
:10292000844208D101218020FFF7A4FE00218020ED
:10293000FFF7A0FE31E0BC48844208D10121801598
:10294000FFF798FE0021A015FFF794FE25E0B74899
:10295000844209D101210804FFF77FFE00214FF4D2
:102960008030FFF77AFE18E0B148844209D1012196
:102970004804FFF772FE00214FF40030FFF76DFEB0
:102980000BE0AC48844208D101218804FFF765FEC2
:1029900000214FF48020FFF760FE10BD0022028866
:1029A000954B98420ED09A4B98420BD0B0F1804F85
:1029B00008D0924B984205D0914B984202D0914B4F
:1029C000984204D14FF68F731A404B881A438E4BAE
:1029D000984207D08D4B984204D04FF6FF431A40DF
:1029E000CB881A4302808B8883850B880385824BB2
:1029F00098420BD0864B984208D08C4B984205D019
:102A00008B4B984202D08B4B984201D10B7A0386B4
:102A100001238382704770B5002400220023058CB7
:102A20004FF6FE7635400584028C8388048B4FF682
:102A30008F752C40B51E2C400D882C43751E2A40E6
:102A40000D892A434D882A436B4DA8420BD0704D07
:102A5000A84208D0754DA84205D0754DA84202D0B5
:102A6000744DA84213D14FF6F7752A404D892A4379
:102A70004FF6FB752A408D882A434FF6FF652B40A1
:102A80004FF6FF552B408D892B43CD892B438380F7
:102A90000483CD888586028470BD70B50024002231
:102AA0000023058C4FF6EF7635400584028C838831
:102AB000048B48F6FF752C404FF6FF452C400D88DF
:102AC0002D0644EA15444FF6DF752A400D892D0581
:102AD00042EA15424D882D0542EA1542464DA8426C
:102AE00002D04B4DA8421BD14FF67F752A404D892D
:102AF0002D0542EA15424FF6BF752A408D882D05F7
:102B000042EA15424FF6FF352B404FF2FF752B403E
:102B10008D89AD0443EA1543CD89AD0443EA1543DD
:102B200083800483CD880587028470BD70B500243E
:102B300000220023058C4FF6FF6635400584028C89
:102B40008388848B4FF68F752C404FF6FC752C4094
:102B50000D882C434FF6FF552A400D892D0642EA79
:102B600015424D882D0642EA1542234DA84202D057
:102B7000274DA8421BD14FF2FF752A404D892D06E3
:102B800042EA15424FF6FF352A408D882D0642EA6B
:102B900015424EF6FF752B404DF6FF752B408D8983
:102BA0002D0543EA1543CD892D0543EA154383805E
:102BB0008483CD888587028470BD70B50022002390
:102BC0000024058C4EF6FF7635400584038C8488FE
:102BD000828B48F6FF752A404FF6FF452A400D8844
:102BE0002D0642EA15424DF6FF752B400D892D0743
:102BF00043EA15434D881FE0002C014000040040CB
:102C000000080040000C004000100040001400408C
:102C100000340140004C014000500140005401408C
:102C200000180040001C004000200040004001400F
:102C300000440140004801402D0743EA1543F94D87
:102C4000A84202D0F84DA84206D14BF6FF752C40A1
:102C50008D89AD0544EA154484808283CD88A0F82F
:102C60004050038470BD828B4FF2FF331A40828341
:102C7000828B0B0642EA134282837047F0B50C4602
:102C80001546002200210026078C4EF6FF7C07EA3D
:102C90000C070784828B018C27073E0C40F6FF4708
:102CA0003A402F0642EA17421F0742EA1742DD4F19
:102CB000B8420ED0DC4FB8420BD0B0F1804F08D0F4
:102CC000DA4FB84205D0DA4FB84202D0D94FB842F5
:102CD00006D14DF6FF77394046F48057394305E079
:102CE00047F6FF57394044F48057394382830184C3
:102CF000F0BD828B4FF6F3731A408283828B0A43B6
:102D000082837047F0B50C4615460022002100264C
:102D1000078C4FF6FF6C07EA0C070784828B018C47
:102D200027063E0C4FF60C773A401F0545EA174739
:102D30003A43BC4FB8420ED0BB4FB8420BD0B0F1B3
:102D4000804F08D0B94FB84205D0B94FB84202D031
:102D5000B84FB84206D14FF6FF57394046F4807756
:102D6000394305E04FF2FF57394044F48077394347
:102D700082830184F0BD028B4FF2FF331A4002833D
:102D8000028B0B0642EA134202837047F0B50C46F1
:102D90001546002200210026078C4FF6EF7C07EA3B
:102DA0000C070784028B018C27053E0C40F6FF4779
:102DB0003A401F0742EA17422F0642EA1742994F4C
:102DC000B8420ED0984FB8420BD0B0F1804F08D027
:102DD000964FB84205D0964FB84202D0954FB842B0
:102DE00006D14FF6DF77394046F01007394305E04A
:102DF0004FF65F77394044F010073943028301846E
:102E0000F0BD028B4FF6F3731A400283028B0A4324
:102E100002837047F0B50C46154600220021068C4F
:102E20004FF6FE773E400684028B018C4FF60C76FF
:102E300032401E0545EA164632437A4EB0420ED065
:102E4000794EB0420BD0B0F1804F08D0774EB042EF
:102E500005D0774EB04202D0764EB04206D14FF642
:102E6000FD76314044F00106314305E04FF6F5763A
:102E7000314044F00106314302830184F0BD70B556
:102E800005460C46674885420ED0674885420BD000
:102E9000B5F1804F08D06548854205D06448854229
:102EA00002D06448854200D100E000BF208850B9BC
:102EB0002389A28861882846FFF7ACFFE18828466D
:102EC000FFF79FFF25E0208804280AD12389A288E4
:102ED00061882846FFF75AFFE1882846FFF74BFF35
:102EE00017E0208808280AD12389A288618828460B
:102EF000FFF708FFE1882846FFF7FBFE09E023897A
:102F0000A28861882846FFF7B9FEE1882846FFF7C6
:102F1000AAFE70BD2DE9F04105460C4600260127AA
:102F2000608808B9022600E00026A088012801D1A7
:102F3000022700E001272088A0B92389A2886188A0
:102F40002846FFF767FFE1882846FFF75AFF2389E5
:102F50003A4631462846FFF719FFE1882846FFF731
:102F60000AFF13E02389A28861882846FFF70EFF35
:102F7000E1882846FFF7FFFE23893A463146284676
:102F8000FFF748FFE1882846FFF73BFFBDE8F081E7
:102F90000A884B881A438B881A43CB881A430B89BB
:102FA0001A434B891A438B891A43A0F8442070476F
:102FB0004FF6FF71818000210180C1804180017244
:102FC00070470021018041808180C1800181418161
:102FD0008181C18170470021018041800121818070
:102FE0000021C180018170470021018041808180E2
:102FF000C180018141818181704721B1028842F005
:103000000102028004E002884FF6FE731A4002803B
:10301000704789B1B0F8442042F40042A0F844203F
:1030200010E00000002C014000340140000400408A
:1030300000080040000C0040B0F84420C2F30E022B
:10304000A0F84420704710B51AB183890B438381DF
:1030500004E08389CC43A4B22340838110BD8182E4
:10306000704741EA0203A0F84830704710B51AB122
:1030700083890B43838104E08389CC43A4B223403A
:10308000838110BD01894FF6F872114001817047AC
:103090000A46002101894FF68F73194011430181BF
:1030A000704730B504460D4629462046FFF7F0FF2D
:1030B000208940F00700208130BD2DE9F041044611
:1030C0000D4616461F46602D06D13B46012231466D
:1030D0002046FFF75BFE05E03B46012231462046D5
:1030E000FFF798FE29462046FFF7D2FF208940F0DF
:1030F00007002081BDE8F08130B50C460021018930
:10310000C9B21D0642EA154525432943018130BD58
:103110002DE9F04105460E461746984600244346E1
:103120003A4631462846FFF7E7FF2C894FF6F871FB
:103130000C4044F007044FF68F710C4044F07004CB
:103140002C81BDE8F081F0B504460D4616461F46B9
:103150003B46324629462046FFF7CEFF208940F401
:1031600080402081F0BD0185828270470A4600219F
:1031700001884FF68F731940114301807047F0B5F5
:103180000C4615461E460021002200230189028BB1
:10319000038C4FF6F877394021434FF6FC473A400D
:1031A00040F201173A434FF6DD773B40370545EAD9
:1031B00017473B43018102830384F0BD0A46002187
:1031C000018B4FF68F7319401143018370470A46F4
:1031D0000021018B48F6FF731940130641EA1341A1
:1031E000018370470A460021818B4FF68F73194087
:1031F0001143818370470A460021818B48F6FF7393
:103200001940130641EA13418183704721B10288B6
:1032100042F08002028004E002884FF67F731A4079
:103220000280704721B1828842F00402828004E06B
:1032300082884FF6FB731A408280704721B18288E2
:1032400042F00802828004E082884FF6F7731A4049
:103250008280704721B1828842F00102828004E0BE
:1032600082884FF6FE731A40828070470A4600211A
:10327000018B4FF6F77319401143018370470A46DB
:103280000021018B4FF2FF731940130641EA1341ED
:10329000018370470A460021818B4FF6F77319406E
:1032A0001143818370470A460021818B4FF2FF73DF
:1032B0001940130641EA1341818370470A460021F1
:1032C000018B4FF6FB7319401143018370470A4687
:1032D0000021018B4FF6FF331940130641EA1341D9
:1032E000018370470A460021818B4FF6FB7319401A
:1032F0001143818370470A460021818B4FF6FF33CB
:103300001940130641EA1341818370470A460021A0
:10331000018B4FF67F7319401143018370470A46B2
:103320000021018BC1F30E01130641EA1341018311
:1033300070470A460021818B4FF67F731940114375
:10334000818370470A460021818BC1F30E01130669
:1033500041EA1341818370470A460021018C4FF6F0
:10336000FD7319401143018470470A460021018C06
:103370004FF6F77319401143018470470A46002144
:10338000018C4FF6DF731940130541EA13410184A4
:1033900070470A460021018C4FF67F7319401305D0
:1033A00041EA1341018470470A460021018C4FF61F
:1033B000FF531940130641EA1341018470470A463E
:1033C0000021018C4FF2FF731940130641EA1341AB
:1033D000018470470A460021018C4DF6FF731940A5
:1033E000130741EA13410184704730B500230124DB
:1033F0008C40A3B2048CDD43ADB22C400484048C19
:1034000002FA01F5ADB22C43048430BD30B500237F
:1034100004248C40A3B2048CDD43ADB22C40048460
:10342000048C02FA01F5ADB22C43048430BD70B5B2
:103430000346002000241846183001258D40ACB208
:103440001D8CE643B6B235401D8409B1082909D167
:1034500000EB6100056825F07005056005681543FF
:1034600005600CE00D1FADB200EB6500056825F4AA
:10347000E04505600568160645EA1645056070BD1D
:1034800021B1028842F00202028004E002884FF675
:10349000FD731A400280704721B1028842F0040295
:1034A000028004E002884FF6FB731A4002807047E6
:1034B00021B1828842F08002828004E082884FF647
:1034C0007F731A408280704702884FF6F7731A4064
:1034D000028002880A430280704782884FF68F7309
:1034E0001A40828082880A438280704702894FF6A0
:1034F000F8731A40028102890A43028170470289E7
:103500004FF67F731A40028102890A430281704795
:103510008184704781857047818670470187704735
:1035200081877047A0F84010704702884FF6FF432C
:103530001A40028002880A43028070470146888E42
:1035400070470146088F70470146888F70470146D3
:10355000B1F8400070470146888C70470146088DDD
:10356000704702460020138A0B4201D0012000E080
:1035700000207047CA430282704730B502460020DF
:1035800000230024158A05EA0103958905EA010450
:1035900013B10CB1012000E0002030BDCA4302820B
:1035A0007047000010B50446FC48844209D101214F
:1035B0008803FFF752F800214FF48040FFF74DF8E1
:1035C00032E0F748844209D101214804FFF752F85C
:1035D00000214FF40030FFF74DF825E0F148844218
:1035E00009D101218804FFF745F800214FF480201C
:1035F000FFF740F818E0EC48844209D10121C804E3
:10360000FFF738F800214FF40020FFF733F80BE004
:10361000E648844208D101210805FFF72BF8002174
:103620004FF48010FFF726F810BD2DE9F04786B063
:1036300005460E460024A24600BFA1460027B089D9
:1036400000B100BF2F462C8A4CF6FF700440F08872
:1036500004432C82AC894EF6F3100440B0883189C3
:103660000843718908430443AC81AC8A4FF6FF409C
:103670000440B0890443AC8201A8FEF767FFC74845
:10368000874202D1DDF810A001E0DDF80CA0A88986
:1036900010F4004F08D00AEBCA0000EB0A103168A2
:1036A0004900B0FBF1F807E00AEBCA0000EB0A1092
:1036B00031688900B0FBF1F86420B8FBF0F0040138
:1036C0002009642101FB1089A88910F4004F08D05B
:1036D000322000EBC900B0FBF1F000F0070004431A
:1036E00008E0322000EB09106421B0FBF1F000F09B
:1036F0000F0004432C8106B0BDE8F0874FF416514B
:10370000016000218180C18001810C214181002163
:103710008181704710B502460020108A4FF2FF03E6
:1037200018400B884C8823438C882343CC88234340
:103730001843108210BD0021018041808180C1802A
:10374000704721B1828942F40052828104E082896B
:103750004DF6FF731A4082817047F0B5034600248E
:10376000002600250020A1F510676A3F00D100BFA8
:103770001846C1F3421401F01F06012707FA06F5A7
:10378000012C01D10C3004E0022C01D1103000E0FA
:1037900014301AB107682F43076002E00768AF438F
:1037A0000760F0BD10B51AB1838A0B43838204E031
:1037B000838ACC43A4B22340838210BD028A4FF691
:1037C000F0731A400282028A0A4302827047828999
:1037D0004FF2FF731A40828182890A4382817047C7
:1037E00021B1828942F00202828104E082894FF68F
:1037F000FD731A4082817047028A4FF6DF731A40C8
:103800000282028A0A430282704721B1028A42F48C
:103810008042028204E0028A4BF6FF731A40028261
:103820007047C1F308028280704701468888C0F360
:1038300008007047818941F0010181817047028B46
:10384000D2B20283028B42EA012202837047028BCA
:1038500002F47F420283028B0A430283704721B144
:10386000828A42F02002828204E0828A4FF6DF736D
:103870001A408282704721B1828A42F0100282820D
:1038800004E0828A4FF6EF731A408282704721B1BA
:10389000828A42F00802828204E0828A4FF6F7733D
:1038A0001A408282704721B1828942F400428281AB
:1038B00003E08289C2F30E028281704721B1828ABD
:1038C00042F40062828204E0828A4FF2FF731A405F
:1038D00082827047828A4FF6FB731A408282828A04
:1038E0000A438282704721B1828A42F002028282B8
:1038F00004E0828A4FF6FD731A40828270470246C6
:103900000020B1F5007F00D100BF13880B4201D029
:10391000012000E00020704701F40072B2F5007F42
:1039200000D100BFCA430280704770B50246002430
:10393000002300250020A1F510666A3E00D100BFDB
:10394000C1F3421501F01F03012606FA03F3012D0E
:1039500002D19689334006E0022D02D1168A334007
:1039600001E0968A33400C12012606FA04F4168808
:10397000344013B10CB1012000E0002070BD10B53F
:1039800000220023A1F510646A3C00D100BF0A1296
:1039900001249440A3B2DC43048010BD00380140F0
:1039A0000044004000480040004C004000500040EF
:1039B00010B50446F648844209D101214805FEF7B6
:1039C00059FE00214FF40010FEF754FE08E00121DB
:1039D0008805FEF74FFE00214FF48000FEF74AFEF7
:1039E00010BD2DE9F04385B004460D460026B146D2
:1039F0000427DFF8A083A6884FF6C0710E40684602
:103A0000FEF7A4FDDDF80880E348B8FBF0F01FFAEC
:103A100080F946EA0906A68020884FF6FE71084024
:103A200020800026DD49286888420CD8286840009C
:103A3000B8FBF0F087B2042F00DA04273E4309F107
:103A40000100208427E0E888A0F53F41FF3906D136
:103A5000286800EB4000B8FBF0F087B209E0286866
:103A600000EBC00101EB0010B8FBF0F087B247F4A7
:103A700080473805000D01D147F0010747F40040A9
:103A800006434FF4967009FB00F04FF47A7190FBF7
:103A9000F1F0401C2084A683208840F001002080A3
:103AA00026884FF6F5310E40A888698908430643F9
:103AB0002680A88929890843208105B0BDE8F083C4
:103AC00041F288310160002181804BF6FF71C18095
:103AD0000021018141814FF480418181704721B1F2
:103AE000028842F00102028004E002884FF6FE7371
:103AF0001A400280704721B1828842F400628280BD
:103B000004E082884FF2FF731A408280704721B12F
:103B1000828842F48052828004E082884EF6FF73ED
:103B20001A408280704721B1028842F4807202807C
:103B300004E002884FF6FF631A400280704721B10B
:103B4000028842F40072028004E002884FF6FF53BC
:103B50001A400280704721B1028842F480620280DC
:103B600004E002884FF6FF331A40028070470A468D
:103B7000002181894FF60173194002F0FE031943B9
:103B80008181704721B1828942F00102828104E083
:103B900082894FF6FE731A408281704721B10288F4
:103BA00042F04002028004E002884FF6BF731A40E0
:103BB0000280704710B51AB183880B43838004E0FC
:103BC0008388CC43A4B22340838010BD0182704718
:103BD0000146088AC0B2704712B141F0010102E00B
:103BE0004FF6FE73194001827047024600231346C8
:103BF0000B441888704721B1028842F400420280C9
:103C000003E00288C2F30E0202807047B1F5006F34
:103C100004D1028842F40062028004E002884FF27C
:103C2000FF731A4002807047B1F5005F04D102882B
:103C300042F40052028004E002884DF6FF731A40FD
:103C40000280704721B1028842F48052028004E071
:103C500002884EF6FF731A4002807047B1F5006F7C
:103C600004D1028842F40062028004E002884FF22C
:103C7000FF731A400280704721B1028842F020028F
:103C8000028004E002884FF6DF731A40028070471A
:103C90000146088B0012704721B1028842F01002E1
:103CA000028004E002884FF6EF731A4002807047EA
:103CB00021B9028842F08002028004E002884FF6B7
:103CC0007F731A4002807047B1F5804F05D0828B18
:103CD0004BF6FF731A40828303E0828B42F48042EA
:103CE0008283704770B5024600240025002300201F
:103CF000958A138B1B0445EA030626F07F4404EAE9
:103D000001068E4201D1012000E0002070BD10B5F7
:103D100001460020002300228B8A0A8B120443EA0A
:103D2000020424F07F4010BD30B50346002000247B
:103D300000221A460C0F21F07F410CB1143201E031
:103D4000090C183215680D4201D0012000E0002056
:103D500030BD002221F07F42D3438382704730B5CB
:103D6000024600200023948801F0E06504EA154330
:103D700021F07F41948A0C4202D00BB1012000E077
:103D8000002030BD002221F07F42D3438382704760
:103D90000054004000127A0040420F00A08601004B
:103DA0000948804709480047FEE7FEE7FEE7FEE7CF
:103DB000FEE7FEE7FEE7FEE7FEE7FEE7044805490B
:103DC000054A064B704700006103000831010008F6
:103DD00028030020280900202805002028050020AD
:103DE0007047704770477047704710B500F008F88B
:103DF000006810BD10B5044600F002F8046010BD64
:103E000000487047C402002000487047C4020020E8
:103E10007546FFF7F9FFAE4605006946534620F0A8
:103E20000700854618B020B5FFF7C8FFBDE8204061
:103E30004FF000064FF000074FF000084FF0000B66
:103E400021F00701AC46ACE8C009ACE8C009ACE819
:103E5000C009ACE8C0098D4670470446AFF3008046
:103E60002046FCF7CEF9000000487047C802002049
:103E70002DE9F0414F1E00EBC7010446D1E90001D6
:103E800015461E4637F006020DD02A46334600F08E
:103E900047FC7F1E04EBC703D3E9002300F0D8F9E9
:103EA00037F00602F1D1022F25D0042F13D0062FB0
:103EB00018BFBDE8F0812A46334600F031FCD4E952
:103EC0000A2300F0C5F92A46334600F029FCD4E95C
:103ED000082300F0BDF92A46334600F021FCD4E95E
:103EE000062300F0B5F92A46334600F019FCD4E960
:103EF000042300F0ADF92A46334600F011FCD4E962
:103F0000022300F0A5F92A46334600F009FCD4E963
:103F10000023BDE8F04100F09BB900002DE9F04D11
:103F20000546DFF8408221F000408F4F82B00C46FA
:103F3000404525DBA0EB080129430CD08B49884282
:103F400001DC11D185B102B028462146BDE8F04D13
:103F5000012201F06EBA002CC7BF00200146844840
:103F6000394602B0BDE8F08D0120FFF743FF02B0F3
:103F70000022BDE8F04D13461046114600F024BA69
:103F80007C49884244DA7C498142A1BF78487B4918
:103F900002B0BDE8F08D2A4623462846214600F0AF
:103FA000BFFB8346024676480E460B460621784400
:103FB000FFF75EFF5A46334600F0B2FB07467148F2
:103FC0008A465A46334604217844FFF751FF5A4641
:103FD000334600F0A5FB0022434600F039F90246C3
:103FE0000B463846514600F0EFF92A46234600F0CA
:103FF00097FB654A654B00F0C7FC2A46234600F054
:10400000C3FC02B05A4ABDE8F04D5C4B00F0BCBCAA
:10401000002C4FF000024BDA464643462846214624
:1040200000F016F94FF0FF3201F003FA04460246A1
:1040300057480D460B4606217844FFF719FF2246E4
:104040002B4600F06DFB804652488A4622462B469E
:1040500004217844FFF70CFF22462B4600F060FB5A
:104060000022334600F0F4F806468B4620462946E7
:1040700000F096F804460D4632465B4640465146EF
:1040800000F0A2F922462B4600F04AFB3E4A3F4B85
:1040900000F06CFD22462B4600F0DAF8012201F018
:1040A000C8F902B03B46BDE8F04D314A00F06CBCA7
:1040B0002C4B2846214600F067FC4FF0FF3201F000
:1040C000B8F905460E4600F06BF800270C4680460E
:1040D0003A460B4600F0BCF882468B463A462346E9
:1040E0003846214600F01CFB2A46334600F04CFCC3
:1040F00052465B4600F068F9824627488B462A46BE
:10410000334606217844FFF7B3FE2A46334600F0D3
:1041100007FBCDE9000121482A46334604217844B3
:10412000FFF7A6FE2A46334600F0FAFA00220D4BAE
:1041300000F08EF802460B46DDE9000100F044F97C
:104140004246234600F0ECFA52465B4600F080F807
:104150003A46234600F07CF802B00122BDE8F04D5B
:1041600001F067B90000F03FFB2109400000F07F3B
:10417000182D44540000E03F0000603CFB21F93F53
:10418000161500002C150000075C143326A6913C80
:104190008C140000A2140000C0130000D61300000D
:1041A0002DE9F04106460F4600F0FAFB04000D46EB
:1041B00018BF0120284320F00040C0F17F6010F1BB
:1041C000E0400ED5002E14BF01200020384320F01F
:1041D0000040C0F17F6010F1E0405CBF0120FFF7BC
:1041E00009FE20462946BDE8F081000021F000428A
:1041F000A2F16052B2F5801F01F0004328BFD2F156
:104200007F6C0BD95FEA001C43EAC20242EB50709C
:1042100018BF704728BF20F001007047B2F5801F1B
:10422000BCBF184670474FEA410C1CF5001F02D274
:10423000084601F017B870B500F01CFB00000089BB
:10424000FFF7F6BF4FF00040A0F580007047000078
:1042500010B591EA030F48BF83F0004300F18E844C
:10426000841A71EB030C05D2121943EB0C03001BEB
:1042700061EB0C01DFF824E14FEA1154A4EB135C6D
:104280001EEA430F18BF9EEA445F73D023EA0E0371
:10429000DCF1200E21EA045143F4801332D322FAD8
:1042A0000CFE10EB0E0023FA0CFE41EB0E01CCF1DC
:1042B000200E03FA0EFE10EB0E0051F10001B1F5D5
:1042C000801FCCF1200E32D201EB045112FA0EF213
:1042D000BDE8104058BF7047401C38BF5FEA42023B
:1042E00018BF7047002814BF20F0010041F1000101
:1042F0004FEA410313F5001F38BF7047A1F1C041D9
:1043000000F006BB012A43EB0302ACF1200CDCF108
:104310001F0E32BF4FF0000E23FA0CF310EB030018
:1043200041EB0451B4EB115FD0D0A1EB045101F586
:10433000801149085FEA300001EB04510ED350F1BF
:10434000000038BF12FA0EFE08D1BDE81040C9E7E0
:10435000401C38BF5FEA4202CAD1C3E7BDE8104043
:104360004FEA410313F5001F38BF7047A1F1C04168
:1043700000F0CEBA9EEA445F08D011EA5E0FBDE8B5
:10438000104004BF01F0004100207047BDE810401C
:1043900070B500F06FFA00BF64FBBE3E0000E0FFA6
:1043A00002494FF0000001F012B800BF0000F87F92
:1043B000491058BFC1F140415B1058BFC3F14043A1
:1043C0008B42EFF3008070472DE9C04130B4DFF835
:1043D000A0C23CEA111418BF3CEA131400F0EC80B0
:1043E00081EA03051CEA111444EAD57418BF1CEADB
:1043F000131500F0C780A4EB05044FF0004545EA13
:10440000C12145EAC32341EA505143EA525304F122
:104410007F74994204F500344FEAC0204FEAC2226B
:1044200008BF904200F09C804FEA13650FF24016DF
:10443000765D4FEA134506FB05F7C7F1807706FB6B
:1044400007F74FEAD737A7FB03687642C8F58038ED
:10445000A7FB06CE38BFA8F1010807FB08E64FF01E
:10446000000EA6FB028CE6FB03CEDCF1000CCEF1C5
:10447000004E38BFAEF1010EA6FB0C584FF00007FE
:104480004FF00005E6FB0E87A1FB08C6A0FB07CE98
:1044900016EB0E0645F10005E1FB076515F1E04E50
:1044A0007EBFA4F580345FEA46066D4116F18007B1
:1044B00045F100054FEA17274FEA066647EA056708
:1044C000A6F1DE46B6F1805F4FEA15251FD93846C2
:1044D00024F0010C05EBC471BCF1FE6F01EB0C1173
:1044E00002D8F0BCBDE8008124425CBF01F5801E0B
:1044F0009EEAC47F02D4F0BCBDE80081244238D4D7
:10450000F0BCA1F1C041BDE8004100F001BA4FEAA2
:10451000D22242EA43524FEAD323A7FB02864FEA54
:10452000D02040EA415007FB03661EEA0E0F4FEA17
:10453000D12105FB026658BFA6EB0056B6EB00562C
:104540004FEA520E4EEAC37E18EB0E0E56EB530E98
:10455000BDD518EB02085E417F1C55F10005B6E79A
:104560004FF480154FF000074FF000064FF00008A1
:10457000ADE7F0BC4FF0000001F1C04101F0004197
:10458000BDE8008111EA0C1F0CEA131500D00CE005
:1045900013EA0C1F00F025804FF00000F0BC81EA08
:1045A000030101F00041BDE80081F0BCBDE800411D
:1045B00081EA030100F0ACB9F0BCBDE8004170B580
:1045C00000F058F9097EFC3E00F007B881EA0301CB
:1045D0004FF0000001F00041704781EA030100F054
:1045E00097B9F0BCBDE800414FF000002149704789
:1045F000FFFDFBF9F7F5F4F2F0EEEDEBE9E8E6E4A8
:10460000E3E1E0DEDDDBDAD8D7D5D4D3D1D0CFCD2E
:10461000CCCBCAC8C7C6C5C4C2C1C0BFBEBDBCBB67
:10462000BAB9B8B7B6B5B4B3B2B1B0AFAEADACAB62
:10463000AAA9A8A8A7A6A5A4A3A3A2A1A09F9F9E3C
:104640009D9C9C9B9A9999989797969595949393EE
:10465000929191908F8F8E8E8D8C8C8B8B8A898985
:104660008888878786858584848383828281818008
:104670000000FF070000F87F10F0004248BF4042F2
:10468000B0FA80F310FA03F10AD0C3F11D0303F569
:1046900080634FEA415002EB035202EBD121704795
:1046A0004FF000007047000051EA030C17D41CF5CE
:1046B000801F58BFBCF5801F00F10680994218BFCB
:1046C000704708BF9042704707D711F5801F58BF49
:1046D00013F5801F19D499427047894270471CF521
:1046E000801F08D5BCF5801FF7D58B4218BF7047D7
:1046F00008BF824270474FF4001C1CEB410F38BFCB
:104700001CEB430F01D28B42704770B500F0B2F83A
:10471000922449004FF000514FF08053FFF748BEFC
:10472000DFF848C170B51CEA111E1EBF1CEA131544
:104730009EEA0C0F95EA0C0F00F06F8081EA0304EB
:1047400023EA4C134EEAD47E21EA4C1141F4801145
:1047500043F48013AE44A1FB024CA0FB0365AEF111
:104760007F7E361955EB0C05A1FB034C4CF1000381
:10477000A0FB021C16EB0C06654153F10003094235
:1047800018BF46F0010613F4007F0BD14FEA033146
:104790004FEA0530340341EA155140EA16506FF0F4
:1047A00003020AE04FEAC3214FEAC520F40241EABE
:1047B000555140EA56506FF0020202EB2E4201EBD7
:1047C000025585EACE710AD05FEA440C18BF24F086
:1047D000004450F1000041F1000120EAD47040F2A1
:1047E000FE7C624500D270BDA84214BF4FF08044E9
:1047F0004FF04044002E08BF0024BEF1806FA8BFD8
:10480000A1F1C041BDE8704080F282804FF000000D
:1048100001F1C04101F0004170479EEA0C0F0CEA23
:10482000131518BF95EA0C0F06D04FF0000081EA6F
:10483000030E0EF0004170BD00F01CF88900013E2F
:1048400000F007B800F009B84FEA430C5FEA5C5C7F
:1048500008D081EA030100F05BB84FEA410C5FEA3F
:104860005C5CF6D14FF00000014970470000FF0783
:104870000000F87F0EF1020E2EF0030E5EF8046BBE
:10488000364205D4012A43EB030515F5001F12D863
:10489000012841EB010C1CF5001F0CD80ED14FEA8A
:1048A000D17C15F5001F0CEB4C0C0CF1020C08BF71
:1048B0004CEBD37C04E04FF0080C01E04FEAD37CD2
:1048C0000CEB4C0526FA05F606F00706B6F1040CCB
:1048D00006D20EEB860CBDE870404CF0010C604730
:1048E000DFE80CF0090B02024FF000414FF000002E
:1048F000A1F5002170BD19461046012851EB0104B5
:1049000018BFD4F5001484BF002001F0004170BD31
:104910000808A0F500114FEA3101704753EA010C75
:1049200017D41CF5801F58BFBCF5801F00F106800E
:104930008B4218BF704708BF8242704707D713F5F4
:10494000801F58BF11F5801F19D48B4270479B42BE
:1049500070471CF5801F08D5BCF5801FF7D599421C
:1049600018BF704708BF904270474FF4001C1CEB03
:10497000430F38BF1CEB410F01D2994270470FB46F
:104980000CBC03BCFFF7C1BE91EA030F10B581F068
:1049900000413FF565AC83F0004300F0EFB8000044
:1049A0002DE9F04101F5801CBCF5001FC0F2C38069
:1049B0004FEA115C21EA0C510CF1FD0C41F480111D
:1049C0005FEA5C0C0CF5C07C01D3400049413DA47A
:1049D000890241EA905187028E0E0A0CA45D04FB05
:1049E00004F602FB06F6C6F14046A4FB0662F60D8D
:1049F00046EA422606FB06F4A4FB01235242C3F119
:104A0000404338BF5B1EA6FB02420024E6FB0324A2
:104A1000D20B42EA4446A6FB0623A1FB02E2A3FB1B
:104A200007E4A4184FF0000252F10002E3FB014238
:104A30006442C2F1404E38BFAEF1010EA6FB042322
:104A40004FF00002E6FB0E32A2FB03464FF00004DB
:104A5000B61954F10004E2FB0264A1FB06E6A4FBD4
:104A600007E816EB08064FF0000858F10008E4FBD1
:104A700001687642C8F1405838BFA8F10108A2FB8E
:104A800006E4A3FB08E52D194FF0000454F10004DF
:104A9000E2FB0854A1FB05E6A7FB04E818EB0608B7
:104AA0004FF0000656F10006E1FB048618F12005E0
:104AB00056F10006A809A8F11B08B10908F03F0843
:104AC000B8F10A0F40EA86601CD901EB0C51BDE831
:104AD000F08100BFFCF5EEE8E2DDD8D3CFCBC7C351
:104AE000C0BDB9B6B4B1AEACA9A7A5A3A19F9D9B0B
:104AF0009A9896959392908F8D8C8B8988878685CE
:104B000084838281A0FB006800FB01F208EB42086D
:104B1000B8EB872807D5341858EB0104D5D5401CCD
:104B200051F10001D1E7341A78EB0104CDD4401ED5
:104B300071F10001C9E75FEA4C0C5FEA9C5C0DD1A2
:104B400005D34FF0000001F00041BDE8F081BDE861
:104B5000F04170B5FFF78EFE6DDBFFBEBDE8F041A2
:104B60004FF00000004970470000F87F10B591EA4F
:104B7000030F48BF83F000433FF572AB841A71EB1B
:104B8000030C07D212198CF0004C43EB0C03001BF2
:104B900061EB0C01DFF8A4E14FEA1154A4EB135CC4
:104BA0001EEA430F18BF9EEA445F00F0B08023EA7C
:104BB0006E03524221EA0451C3EB6E0338BF5B1E01
:104BC000DCF1200E25D322FA0CFE10EB0E0043FA86
:104BD0000CFE41EB0E01CCF1200E03FA0EFE10EBA1
:104BE0000E0051F10001CCF1200E29D412FA0EF280
:104BF00001EB0451BDE8104058BF7047401C1CBF7A
:104C0000B2F1004F704700280CBF491C20F0010092
:104C1000704712EB020E43EB030218BF4FF0010E78
:104C20004EEA4202ACF1200CDCF11E0E54D943FADC
:104C30000CFE10EB0E0051F1FF31CCF11E0ED5D55C
:104C40000EF1010E12FA0EFE404141EB010101EBA3
:104C5000445C5FEA5C5C10D910EBDE7001EB045140
:104C600038BFBEF1004FBDE8104018BF70470028A4
:104C70000CBF491C20F00100704730D24FEAD42C01
:104C800011F5001124F400641BD0B1FA81F20B3A43
:104C9000A41AA41ED2F12003914030FA03F3194361
:104CA000904001EBCC71002C01EB0451BDE81040A9
:104CB000A8BF704701F1C0414FF0000001F0004172
:104CC0007047B0FA80F310FA03F100D110BDE41A76
:104CD000173C4805C90AE4E701EB045110BD49102F
:104CE00001EB0451BDE810404FEA300002E04FF004
:104CF000000170474A0008BF0042F8D0B2F5001F1B
:104D000028BF704701F000414FF0000070479EEA55
:104D1000445F07D011EA5E0FBDE8104004BF0021D8
:104D200000207047BDE8104070B5FFF7A3FD00BF3D
:104D300040DFF63E83F00041104670470000E0FF80
:104D400043004FEAD30C4FEA3C0C43401FBF4007DF
:104D50000CF1605113F0FE4F70471CF0006F03D14F
:104D600000200CF0004170470CF0004343EA507003
:104D700010B540EACC0000F028FA00BF0000009215
:104D80004FEA0001FFF7C4BD4FF000414FF00000B3
:104D9000A1F500217047000090EA010F48BF81F0A3
:104DA000004100F1A682421A3CBF801A89184FEADE
:104DB000D0524FF07F4C1CEA410FA2EBD15318BFE9
:104DC0009CEA026F00F03B804FF0004C4CEA002060
:104DD0004CEA012121FA03FC10EB0C0C1ED202F16B
:104DE000FF325FEA1C2040EBC25038BF70471CF016
:104DF0007F0F4FEA400C18BFBCF17F4F38BF7047A0
:104E0000C3F12003994008BF20F00100BCF17F4F9F
:104E100038BF7047A0F1C04000F024BA4FEA3C0010
:104E2000000A40EBC25028BF1CF0FF0F4FEA400CB5
:104E3000E6D018BFBCF17F4F38BF7047EAE79CEA65
:104E4000026F05D010EA5C0F08BF00F00040704709
:104E500010B500F0BAF900BF64FBBE3E401058BF69
:104E6000C0F14040491058BFC1F140418142EFF3C9
:104E7000008070474FF47F0C1CEAD0121EBF1CEA62
:104E8000D11392EA0C0F93EA0C0F00F0858090EAA0
:104E9000010F48BF42F4807240F4000C41F400005E
:104EA0002CF07F4120F07F4000B58142A2EB03024D
:104EB0000FF2081CACEB504EC0F100009EF800E071
:104EC0004FEA4E0E00FB0EFC38BF49004FEA2C1C87
:104ED00002F5FA020CFB0EF34FEACE1E4FEA112C3C
:104EE0004FEAC1210EEB635E42EB22420EFB0CFC4B
:104EF0004FEA1C5300FB03114FEA112C4FEA01311A
:104F00000EFB0CFC4FEADC4C00FB0C11C14228BF2D
:104F100009184CEB03335DF804EB10EB410143EB54
:104F2000C250B2F57C0F38BF704729D512F0F00F90
:104F30001CBF00F1C04000F0004070470081828338
:104F40008485868788898B8C8D8E8F919293959698
:104F500097999A9C9D9FA0A2A3A5A7A8AAACAEB022
:104F6000B2B3B5B7B9BCBEC0C2C5C7C9CCCED1D427
:104F7000D7D9DCDFE2E6E9ECF0F3F7FAFE00000057
:104F80004FEA400C0CF1807CBCF17E4F28BF70478B
:104F9000B0F1C04000F066B990EA010F0CEAD113FD
:104FA00048BF42F48072624538BF634507D213F4AC
:104FB0007F0F16D080EA010000F00040704710B566
:104FC00000F003F9097EFC3E00F005B880EA01001C
:104FD00000F00040704780EA010000F0004000F05F
:104FE00041B912F47F0F04BF0248704780EA010004
:104FF00000F038B90000C07F41000B0ED3F19E02D3
:1050000008D950F400034FEA032323FA02F048BF03
:105010004042704710B500F0D8F800BF4992248094
:10502000002070476FF0004282EA200070470000C5
:1050300010F0004148BF4042B0FA80F310FA03F28A
:10504000C3F19D030BD051EAC35101EB122053066B
:1050500038BF704700F1010008BF20F00100704721
:1050600050EA010C00F113801CF5000F58BFBCF58D
:10507000000F01D48842704707D710F5000F58BFC2
:1050800011F5000F15D488427047894270471CF50E
:10509000000F04D5BCF5000FF7D5814270474FF0E3
:1050A000807C1CEB400F38BF1CEB410F01D28142CA
:1050B000704710B500F089F8922449004FF0005075
:1050C0004FF08051FFF7CABE4FF47F0C1CEAD0129C
:1050D0001EBF1CEAD11392EA0C0F93EA0C0F00F0EA
:1050E000478090EA010F48BF42F480724FF0004CB5
:1050F0004CEA00204CEA012102EB0302A0FB011361
:10510000A2F50002002918BF43F001035B0028BF8D
:105110004FEA330342EB22425FEA132C4CEBC250BE
:105120002EBFBCEB436FB2F57C0F70474FEA036CA8
:10513000BCF1004F08BF20F00100B2F57C0F38BF72
:1051400070470BD582F0FF0212F5803FC8BF704751
:1051500000F1C040D8BF00F00040704700F5000CDF
:105160005FEA4C0C48BF7047B0F1C04000F07AB81D
:1051700090EA010F0CEAD11348BF42F480726245F5
:1051800038BF634504D280EA010000F00040704758
:1051900010B500F01AF800BF8900013E00F007B812
:1051A00000F009B85FEA410C5FEA1C6C08D080EAA5
:1051B000010000F057B85FEA400C5FEA1C6CF6D1C2
:1051C0004FF00040A0F5800070470EF1020E2EF067
:1051D000030E5EF8044B244204D44FEA4102B2F1BC
:1051E0007F4F11D84FEA4003B3F17F4F0CD80ED157
:1051F0004FEAD07CB2F17F4F0CEB4C0C0CF1020C5F
:1052000008BF4CEBD17C04E04FF0080C01E04FEA02
:10521000D17C0CEB4C0324FA03F404F00704B4F142
:10522000040C06D20EEB840CBDE810404CF0010CCF
:105230006047DFE80CF0070802024FF00040A0F5DD
:10524000800010BD0846420018BFD2F1807288BFAE
:1052500000F0004010BD10B5FEF706FE4FF0000153
:10526000016010BDFF2141EAD050C005704751EAEE
:10527000000C00F113801CF5000F58BFBCF5000FA7
:1052800001D48142704707D711F5000F58BF10F5C0
:10529000000F15D481427047894270471CF5000FFA
:1052A00004D5BCF5000FF7D5884270474FF0807CDD
:1052B0001CEB410F38BF1CEB400F01D288427047F6
:1052C00080EA010081EA000180EA0100FFF7F1BEF7
:1052D00080F0004090EA010F7FF565AD81F000415C
:1052E00000F007B890EA010F48BF81F000413FF598
:1052F0005AAD421A04D882F00042A0EB02001144D9
:105300004FEAD0524FF07F4C1CEA410FA2EBD15331
:1053100018BF9CEA026F4AD04FF0004C4CEA0020C4
:105320004CEA012121FA03FCB0EB0C0C0FD412F073
:10533000FE0F36D05FEA4C001DD5001240EBC25084
:1053400038BF70471CF03F0F18BF70470BE0A2F149
:1053500001025FEA1C2040EBC25038BF70471CF0CE
:105360007F0F18BF7047C3F12003994014BF401E40
:1053700020F00100704780084FEA122308BF7047F1
:10538000B0FA80FCA2EB0C02CCF1280C60FA0CF015
:1053900093EA122F04BF00EBC25070474FEAC3706C
:1053A0007047130A5FEADC1008BF7047F6E79CEA13
:1053B000026F04D010EA5C0F08BF0020704710B5E0
:1053C000FFF703FF40DFF63E81F0004070470CF02E
:1053D0000F03092B08BF082000F05B800A2B0BD0BD
:1053E000082B18BF704708BF1CF0400F0AD04FF0C1
:1053F00000004FF0000170471CF0400F18BF4FF045
:10540000004070471CF0100F08D020F0704300F0EF
:105410007F4242EAD3014FEA4370704700F0604098
:1054200021F07F4242EA000201F07F4040EA7270C0
:1054300070474FF0FF0C4CF4E06C1CEA11531CBF9A
:105440009CEA030C9445C2BFDA4201EB025170475B
:10545000002B0DD0BCF1000F0FD0002A01F000414D
:10546000A4BF41F0E04141F07F614FF00000704780
:1054700001F000414FF00000704750EA01334FF057
:105480009B0C18BF4CF0806C7EF48AAFAFF30080A9
:1054900070471CF4801F11D01CF4E02F03D06FEA7A
:1054A000CC31490070474FF04050EFF3008222F0BA
:1054B000704242EA000282F3008870474FF0000019
:1054C0007047000000000000555555555555C53F23
:1054D0007D6FEB0312D6D4BF5544880E55C1C93F2A
:1054E0003B8F68B52882A4BF88B20175E0EF493FC1
:1054F00009F7FD0DE13D023F4B2D8A1C273A03C001
:10550000C88A599CE52A004059018D1B6C06E6BFEC
:1055100082922EB1C5B8B33F385500080000002074
:10552000F40100006C0100089C550008F401002003
:1055300034070000C80100081184A24A040009329F
:105540000102030406070809A79040CDCC4C3D0B8F
:1055500014803F0C016A320832107218290C322D67
:105560007250320C02131E0A1102045A0104A90CD3
:10557000A904A92801140912546904011469546981
:105580000C091270E97C091A542D0102030404006D
:0C559000090006070809020406080000D4
:0400000508000131BD
:00000001FF
