:020000040800F2
:1000000010090020354200084102000843020008A0
:10001000470200084B0200084F02000800000000E1
:100020000000000000000000000000005302000873
:10003000550200080000000057020008590200089D
:100040004F4200084F4200084F4200084F4200084C
:100050004F4200084F4200084F4200084F4200083C
:100060004F4200084F4200084F4200084F4200082C
:100070004F4200084F4200084F4200084F4200081C
:100080004F4200084F4200084F4200084F4200080C
:100090004F4200084F4200084F4200084F420008FC
:1000A0004F420008472000084F4200084F42000816
:1000B0005B0200084F4200084F4200084F42000810
:1000C0004F4200084F4200084F4200084F420008CC
:1000D0004F420008A50700084F4200084F420008A1
:1000E0004F4200084F4200084F4200084F420008AC
:1000F0004F4200084F4200084F4200084F4200089C
:100100004F4200084F4200084F4200084F4200088B
:100110004F4200084F4200084F4200084F4200087B
:100120004F4200084F4200084F4200084F4200086B
:1001300000F002F800F05CF80AA090E8000C82449D
:100140008344AAF10107DA4501D100F051F8AFF27A
:10015000090EBAE80F0013F0010F18BFFB1A43F0A5
:100160000103184744580000645800000A444FF047
:10017000000C10F8013B13F0070408BF10F8014B06
:100180001D1108BF10F8015B641E05D010F8016B4B
:10019000641E01F8016BF9D113F0080F1EBF10F8AF
:1001A000014BAD1C0C1B09D16D1E58BF01F801CBD2
:1001B000FAD505E014F8016B01F8016B6D1EF9D555
:1001C0009142D6D37047000000230024002500266A
:1001D000103A28BF78C1FBD8520728BF30C148BFAA
:1001E0000B6070471FB505F080FA1FBD10B510BD3C
:1001F00004F058F81146FFF7F5FF00F00BF804F093
:1002000076F803B4FFF7F2FF03BC00F09EFA00009B
:1002100030BF000001F0CDFE00BF07480078012884
:10022000FBD100221146054801F050F84FF00000C4
:1002300001490870F1E70000CC0100200000C8432C
:10024000704700BFFEE700BFFEE700BFFEE700BF4C
:10025000FEE7704770477047704710B50121880767
:1002600003F046FB70B10121880703F055FB002124
:10027000054803F0C5FC00BF8021034803F036FDAC
:100280000028F9D010BD0000003801404FF00001F7
:1002900008466D4A126842F480326B4B1A6000BF08
:1002A000694A126802F4003001F1010110B9B1F598
:1002B000A06FF5D1644A126812F4003F02D04FF0EB
:1002C000010001E04FF00000012842D15F4A1268AE
:1002D00042F010025D4B1A601A46126822F00302C7
:1002E0001A601A46126842F002021A60564A5268B0
:1002F000554B5A601A4652685A601A46526842F480
:1003000080625A601A46526822F47C125A601A4679
:10031000526842F4E8125A601A46126842F080723B
:100320001A6000BF484A126812F0007FFAD0464AAD
:10033000526822F00302444B5A601A46526842F057
:1003400002025A6000BF404A526802F00C02082ABA
:10035000F9D1704710B5FFF799FF10BD10B53A48B5
:10036000006840F001003849086008464068384994
:1003700000EA01003449486008460068354900EA4F
:100380000100314908600846006820F480200860B8
:100390000846406820F4FE0048604FF41F00886063
:1003A000FFF7D8FF4FF000602B49086010BD10B573
:1003B0004FF0000108460246234B5B6803F00C0136
:1003C00021B1042906D008292CD107E0234B244C65
:1003D00023602BE0214B224C236027E01A4B5B6803
:1003E00003F47010184B5B6803F480324FF0020383
:1003F00003EB90402AB91B4B00FB03F3184C23601E
:100400000FE0114B5B6813F4003F05D0154B00FB68
:1004100003F3134C236004E0104B00FB03F3104C78
:10042000236003E00D4B0E4C236000BF00BF064B62
:100430005B68C3F303130C4CE15C094B1B6823FAA4
:1004400001F3074C236010BD001002400020024061
:100450000000FFF8FFFFF6FE08ED00E000127A0052
:100460000000002000093D00040000204FF0E021C2
:10047000096921F004014FF0E02211614FEAE072B6
:1004800000EB52724FEAE202244B1A7019460978C7
:100490004FF47A7201FB02F1214A11807047014644
:1004A0001E4A127801FB02F24FF0E0235A614FF02E
:1004B00000029A614FF001021A6100BF4FF0E02282
:1004C000106910F0010F02D010F4803FF6D04FF009
:1004D00000024FF0E0231A619A6170470146104A0A
:1004E000128801FB02F24FF0E0235A614FF0000244
:1004F0009A614FF001021A6100BF4FF0E0221069CB
:1005000010F0010F02D010F4803FF6D04FF000023F
:100510004FF0E0231A619A61704700001400002038
:10052000160000204FF0000053490861C8604FF0EA
:10053000140048614FF000008861C86108460068F7
:1005400040F001000860084640684C4900EA01009C
:100550004949486008460068494900EA010046499F
:1005600008600846006820F480200860084640685B
:1005700020F4FE0048604FF000008860704710B51E
:100580004048006840F004003E4908603A48C069AD
:1005900040F080503849C8613B48406840F4807062
:1005A000394948600846006840F004000860084681
:1005B000006840F002000860FFF72AFE10BD3348D3
:1005C00033490860704701464FEA41612A4A9269FF
:1005D00042F00102284B9A612E4A526822F0E062F2
:1005E0002C4B5A601A46526842EA01025A60704720
:1005F00000B502464FF00003FFF794FF1E48006865
:1006000040F480301C49086000BF1B480068400C63
:10061000FBD04FF4806018494860A2F10200C2B2DA
:100620000846406840EA824048600846406840F416
:10063000803048601848006840F032001649086071
:100640000D48006840F080700B49086000BF0A4800
:100650000068400EFBD00848406840F002000649A0
:10066000486005E004484068C0F3870303F00303D3
:10067000022BF7D100BD0000001002400000FFF87F
:10068000FFFFF6FE10ED00E0007000400400FA05E8
:100690000CED00E0000001400020024000B587B0F2
:1006A000012144F2050002F05DF84FF40070ADF84E
:1006B00018004FF003008DF81A004FF018008DF865
:1006C0001B0006A9474801F043FD4FF48060ADF8D8
:1006D00018004FF048008DF81B0006A9414801F0B2
:1006E00037FD4FF4165002904FF00000ADF80C00AB
:1006F000ADF80E00ADF81000ADF814004FF00C008E
:10070000ADF812004FF00000ADF80000ADF80200A7
:100710004FF40070ADF804004FF00000ADF8060093
:100720004FF0010240F225512F4803F0F3F96946DA
:100730002D4803F0C4F902A92B4803F034F9012134
:10074000294803F0DAF907B000BD014600BF704741
:10075000C2B2264B1A8000BF234A128812F0400F03
:10076000FAD070472149088000BF1F49098811F05D
:10077000400FFAD0704700B50D20FFF7F3FF0A20B5
:10078000FFF7F0FF00BD09E010F8011B174A1180C8
:1007900000BF1549098811F0400FFAD001780029EF
:1007A000F2D1704710B525210F4803F0F8FA0E4832
:1007B000008810F0200F13D00C4800880C490D4A17
:1007C000127841F822000B48007800F10100094935
:1007D000087008460078042802D14FF00000087025
:1007E00010BD0000000801400038014004380140FD
:1007F000EC0100201800002000B585B00121082080
:1008000001F0B0FF0121880501F0BBFF4FF440600B
:10081000ADF810004FF003008DF812004FF01C00EF
:100820008DF8130004A9C14801F092FC4FF00000BC
:10083000ADF804004BF6FF70ADF806004FF0D000A5
:10084000ADF808004FF48060ADF80A004FF4804026
:10085000ADF80C00B64800904FF00101B54803F028
:100860005AFB6946B34803F0C8FA0121B14803F0C6
:1008700093FB05B000BD10B54FF0000400BF01218F
:10088000AC4803F06FFB1421AA4803F0D9FB0446DF
:100890004FF000024FF0D001A64803F0C7FB14212F
:1008A000A44803F0CDFB10F0020FE8D0A249A14804
:1008B00003F099FC01219F4803F061FB10BD70B566
:1008C00004460D4600BF4FF400319A4803F067FC20
:1008D0000028F8D10121974803F044FB00BF974955
:1008E000944803F034FC0028F9D00022D02191482C
:1008F00003F09CFB00BF92498E4803F028FC0028BF
:10090000F9D021468B4803F08BFB00BF8C49891C32
:10091000884803F01CFC0028F8D02946854803F0DD
:100920007FFB00BF8649891C824803F010FC002829
:10093000F8D001217F4803F022FBFFF79CFF70BD38
:1009400010B56420FFF7CAFD00216B20FFF7B7FF49
:100950000A20FFF7C3FD07211920FFF7B0FF0A2087
:10096000FFF7BCFD06211A20FFF7A9FF0A20FFF7B9
:10097000B5FD18211B20FFF7A2FF0A20FFF7AEFDEF
:1009800001211C20FFF79BFF4FF47A70FFF7A6FDB3
:1009900010BD70B5044600BF4FF40031654803F048
:1009A000FEFB0028F8D10121624803F0DBFA00BF0A
:1009B0006249604803F0CBFB0028F9D00022D02127
:1009C0005C4803F033FB00BF5D495A4803F0BFFBAE
:1009D0000028F9D00121574803F09DFA21465548D7
:1009E00003F01EFB00BF5649891C524803F0AFFBC1
:1009F0000028F8D001214F4803F0B4FA00BF4F4956
:100A00004C4803F0A4FB0028F9D00122D02149482A
:100A100003F00CFB00BF4949491C464803F097FB13
:100A20000028F8D00021434803F0B6FA01214148DC
:100A300003F0A5FA41493F313E4803F088FB18B165
:100A40003C4803F0EFFA054601213A4803F0A4FAC6
:100A5000284670BD70B505460E46144600BF4FF4DB
:100A60000031344803F09BFB0028F8D101213148C4
:100A700003F078FA00BF31492E4803F068FB0028E4
:100A8000F9D00022D0212B4803F0D0FA00BF2C4926
:100A9000284803F05CFB0028F9D00121254803F029
:100AA0003AFA3146234803F0BBFA00BF2449891CB7
:100AB000204803F04CFB0028F8D001211D4803F02A
:100AC00051FA00BF1D491B4803F041FB0028F9D033
:100AD0000122D021174803F0A9FA00BF1749491C89
:100AE000144803F034FB0028F8D018E0012C07D19B
:100AF0000021104803F050FA01210E4803F03FFA9C
:100B00000E493F310B4803F022FB40B1094803F086
:100B100089FA287005F10105A4F10100C4B2002C86
:100B2000E4D10121034803F037FA70BD000C014005
:100B3000801A060000580040000400100100030065
:100B40008200070040F60661884200DD0846FE4943
:100B5000884200DA084600F56161FC4A1180C0F560
:100B6000616102F104021180704740F6066188421B
:100B700000DD0846F449884200DA084600F5616164
:100B8000F34A1180C0F5616102F1040211807047DF
:100B900070B54FF000010A460B464FF001001AE015
:100BA000EC4C34F81050A0F10104EA4E26F8145031
:100BB000E94C34F81050A0F10104E74E26F8145027
:100BC000E64C34F81050A0F10104E44E26F814501D
:100BD00000F10104E0B21028E2DBE14CB4F900407E
:100BE000DC4DEC83DF4CB4F90040DB4DEC83DE4C94
:100BF000B4F90040D94DEC834FF000000EE0D54C25
:100C000034F910402144D44C34F910402244D34CE0
:100C100034F91040234400F10104E0B21028EEDB67
:100C20000C464FEAE17501EB15754FEA25152DB21B
:100C3000CB4E358014464FEAE27502EB15754FEA4C
:100C400025152DB2C74E35801C464FEAE37503EBE0
:100C500015754FEA25152DB2C34E358070BD2DE9AF
:100C6000F05F05460C46C14EC14FDFF80883C14610
:100C7000C1480168204604F07FFD8346494604F0E0
:100C80006DFC8246BD480168504604F0CFFABB496E
:100C90000860BB484168304604F06EFD8246B848A3
:100CA0008168504604F068FDB6490860B448C068E1
:100CB00080F000404860B248C06880F00040886022
:100CC0000846C7600868494604F048FC8246AC48BC
:100CD0000168504604F0AAFAA9490860A949486881
:100CE000494604F03BFC8246A5484168504604F062
:100CF0009DFAA3494860A3498868494604F02EFC40
:100D000082469F488168504604F090FA9C4988606A
:100D10009C49C868494604F021FC82469848C1684D
:100D2000504604F083FA9649C86094480168284602
:100D300004F022FD94490860914801684FF07E500C
:100D400004F00CFC914908608D4881684FF07E509A
:100D500004F004FC8E4908608C4801684FF07E5016
:100D600004F0FCFB8246414604F060FA89490860C1
:100D7000084601688548006804F0C6FA864908609C
:100D8000844801688248006804F0BEFA834908601C
:100D90007E48006882490860794840688149086057
:100DA0007F4801687C48006804F0D8FB824674489C
:100DB0000168504604F0D6FC714908607948016822
:100DC0007548006804F0CAFB82466D484168504689
:100DD00004F0C8FC6A494860714801686F480068BF
:100DE00004F0BCFB824666488168504604F0BAFCB9
:100DF000634988606B4801686848006804F0AEFB8E
:100E000082465F48C168504604F0ACFC5C49C8604B
:100E10005D4801686048006804F0A0FB82465748BE
:100E20000168504604F002FA5449086056480168C7
:100E30005A48006804F092FB82464F4801685046C9
:100E400004F0F4F94C49086008460168204604F0B3
:100E500093FC55490860BDE8F09F2DE9FC5F022234
:100E60003B215248FFF7F6FD02223D215048FFF793
:100E7000F1FD02223F214F48FFF7ECFD0222432102
:100E80004D48FFF7E7FD494840784849097800EBAD
:100E9000012000B232490880454840784449097829
:100EA00000EB012000B22F490880424840784149B8
:100EB000097800EB012000B22B4908803E484078B9
:100EC0003D49097800EB012000B23C490880FFF75A
:100ED0005FFE2448B0F9000004F0F4FA38490860D5
:100EE0001F49B1F9001049431E4AB2F900201D4BB9
:100EF000B3F9003002FB03111B4AB2F900201A4B70
:100F0000B3F9003002FB031003F000FE804603F04B
:100F100091FB04460D461348B0F9000003F0F6FDBE
:100F2000064622462B4603F099FC824603F040FA1F
:100F3000CDE9000103F0A4FB2249086008460068DF
:100F400004F048F982463FE0FAF1FFFF3404004024
:100F50003C0400402C0200204C0200206C020020C7
:100F60007C0000207E00002080000020A69B443BE7
:100F70006F12833A0AD7233C58000020200000203B
:100F800048000020FC0100205C00002060000020E0
:100F90006400002074000020780000206800002019
:100FA0006C0000207000002024000020420000207F
:100FB0004400002046000020400000208200002065
:100FC000900000208C0000200022C74B03F0F2FDAF
:100FD0008046C64AC64B03F041FC04460022C54B7E
:100FE00003F01CFF064603F04BFBC3490860C348EF
:100FF000B0F9000004F066FAC1490860BF48B0F9D2
:10100000000003F083FD80460022BE4B03F06AFB24
:10101000824603F035FB019004F0DCF806464FF001
:101020006632B94B03F01AFC044603F029FBB749BA
:10103000086008460168B0480068FFF710FEBDE888
:10104000FC9F2DE9F04F87B00646174600F047FA9F
:10105000044604F037FAAE49086000F036FA044658
:1010600004F030FAAB49086008460168A8480068F7
:1010700004F0DCF8824604F0ADF880460022A64B6E
:1010800003F098FD044603F0FBFAA4490860084603
:10109000006804F09FF804464FF03332A04B03F091
:1010A00089FD82468B469F48006804F093F8044609
:1010B0004FF066329C4B03F07DFD52465B46CDE916
:1010C000040103F00FFB804603F0DAFA954908604B
:1010D0000846006804F07EF8044694480CC8204690
:1010E00003F000FB914A03C29148006803F00EFD33
:1010F00004468E480CC8204603F090FE8B4A03C27B
:1011000000228C4B894903C903F052FE06D24FF0EE
:1011100000018848854AC2E900100CE00022864B95
:10112000824903C903F00AFD05D24FF0000182484D
:101130007E4AC2E90010764801687648006804F0EB
:101140001BFB7E490860084601687D48006804F082
:101150006DF87B4908600846006804F03BF80446D7
:101160000022134603F026FDCDE904017348006810
:1011700004F030F804460022674B03F01BFD824662
:10118000DDE9042303F0AEFA804603F079FA6D49F5
:1011900008604FF000005E4908605E4908605648EC
:1011A000006804F017F804460022674B03F0C6FC01
:1011B00053D85148006804F00DF804460022634BF0
:1011C00003F0F6FD49D8624801686248006800F003
:1011D00099F90446314604F029F85F4908605C48F3
:1011E0000168384604F0BAF904465A4801685A487A
:1011F000006804F0B3F90546214604F017F8574992
:1012000008605048006803F0E5FFCDE90401544848
:10121000006803F0DFFF044644480CC8204603F092
:10122000C9FCCDE900013F4801684E48006804F060
:1012300095F9044603F0CEFF8046DDE9002303F074
:1012400051FACDE90201DDE9042303F04BFA8246AD
:1012500003F016FA4449086005E04FF000003F49EA
:1012600008604149086007B0BDE8F08F2DE9F04102
:101270004FF0000425463948006880F000483A489D
:101280000168404604F078FA074604F0FFF8064685
:101290003648006806EB000434480068A6EB0005F9
:1012A000002C02DD04F11E0401E0A4F11E04002D57
:1012B00002DD05F11E0501E0A5F11E052046FFF740
:1012C00041FC2846FFF751FCBDE8F08170B50446AB
:1012D0000D461646FFF7C1FD324629462046FFF768
:1012E000B0FEFFF7C3FF70BD008066401F85EB5165
:1012F000B81E094000805640840000208200002073
:101300009400002000003D406666304088000020C8
:10131000A4000020A80000200000E03FB80000204A
:101320003333D33FBC0000206666E63FC000002098
:10133000D0010020006AE840006AE8C0AC0000204C
:10134000B0000020B400002000004440000044C071
:1013500024000020200000202C000020A0000020FD
:101360003C00002038000020C8000020D4010020EC
:1013700000B587B00121082001F0F4F906A800F0BB
:1013800079FF4FF0C000ADF818004FF004008DF861
:101390001B0006A9574800F0DBFE0121042001F0E4
:1013A000F0F9554801F0D4FA03A9534801F0A4FB21
:1013B0004FF6FF70ADF810004FF00000ADF80C00D4
:1013C000ADF81200ADF80E0003A94B4801F094FBF4
:1013D00000231A460321484802F017F8684601F036
:1013E00032FF4FF00600ADF808006946424801F0B0
:1013F00065FE0121404802F077FA4FF000003F49B6
:1014000008804FF001013C4801F033FF07B000BDF8
:1014100000B587B00121042001F0A4F906A800F06E
:1014200029FF4FF00300ADF818004FF004008DF8CD
:101430001B0006A9324800F08BFE0121084601F08E
:10144000A0F94FF0804001F083FA03A94FF08040EB
:1014500001F052FB4FF6FF70ADF810004FF00000A6
:10146000ADF80C00ADF81200ADF80E0003A94FF076
:10147000804001F041FB00231A4603214FF08040D9
:1014800001F0C3FF684601F0DEFE4FF00600ADF844
:10149000080069464FF0804001F010FE01218807E6
:1014A00002F022FA4FF000004FF0804188844FF0A4
:1014B00001014FF0804001F0DCFE07B000BD10B527
:1014C000FFF756FFFFF7A4FF10BD0C490988C1F1D3
:1014D000000108B24FF00001084A118070474FF038
:1014E0008041898C08B24FF000014FF08042918416
:1014F00070470000000C0140000800402408004034
:101500000008014003B59DB0FE48C0684042089005
:1015100003F0D8FF09901D9903F0ECFF7DD2F94844
:10152000C068089003F0CEFF09901D9904F0E9F817
:10153000F4D2F44880684042089003F0C3FF099059
:101540001D9904F0DEF820D86FF001001390ED48EB
:10155000C068EC498968A0EB0100069003F0B2FF77
:101560000890E84880684042059003F0ABFF069081
:101570001D9904F001F90790089903F0C5FEE249AE
:10158000099003F0EBFF1A90F7E0DE484068404214
:10159000089003F097FF09901D9904F0B2F820D845
:1015A0004FF0FF301390D7488068D6494968A0EBC8
:1015B0000100069003F086FF0890D2484068404240
:1015C000059003F07FFF06901D9904F0D5F8079071
:1015D000089903F099FECC49099003F0BFFF1A90D7
:1015E000CBE0C8480068089003F06CFF09901D9993
:1015F00004F087F822D84FF000001390C1484068EB
:10160000C0490968A0EB0100069003F05BFF089059
:10161000BC4800684042059000E08DE003F052FFB6
:1016200006901D9904F0A8F80790089903F06CFE45
:10163000B549099003F092FF1A909EE0B1484068C6
:10164000089003F03FFF09901D9904F05AF81FD845
:101650004FF001001390AB484068AA490968A0EB1D
:101660000100069003F02EFF0890A6484068059000
:1016700003F028FF06901D9904F07EF80790089962
:1016800003F042FEA049099003F068FF1A9074E04D
:101690009C488068089003F015FF09901D9904F09C
:1016A00030F81FD84FF00200139096488068954993
:1016B0004968A0EB0100069003F004FF08909148F0
:1016C0008068059003F0FEFE06901D9904F054F822
:1016D0000790089903F018FE8B49099003F03EFF2C
:1016E0001A904AE08748C068089003F0EBFE099022
:1016F0001D9904F006F840D84FF00300139081487C
:10170000C06880498968A0EB0100069003F0DAFE0A
:1017100008907C48C068059003F0D4FE06901D999F
:1017200004F02AF80790089903F0EEFD7649099035
:1017300003F014FF1A9020E07248C06840420890FD
:1017400003F0C0FE09901D9903F0DBFF05D86FF090
:10175000010013906C481A900FE06A48C068089026
:1017600003F0B0FE09901D9903F0C4FE05D84FF0B8
:10177000030013904FF000001A901A980146099048
:10178000614803F0F9FF1B906048C0684042089030
:1017900003F098FE09901E9903F0ACFE7DD25B48E1
:1017A000C068089003F08EFE09901E9903F0A9FF0F
:1017B000F4D2564880684042089003F083FE0990B6
:1017C0001E9903F09EFF20D86FF0010012904F4841
:1017D000C0684E498968A0EB0100069003F072FED4
:1017E00008904A4880684042059003F06BFE0690DE
:1017F0001E9903F0C1FF0790089903F085FD424947
:10180000099003F0ABFE1890FFE04048406840426A
:10181000089003F057FE09901E9903F072FF20D83C
:101820004FF0FF3012903948806838494968A0EB82
:101830000100069003F046FE08903448406840429C
:10184000059003F03FFE06901E9903F095FF079068
:10185000089903F059FD2C49099003F07FFE189078
:10186000D3E02A480068089003F02CFE09901E99E6
:1018700003F047FF22D84FF0000012902348406841
:1018800022490968A0EB0100069003F01BFE0890B6
:101890001E4800684042059000E095E003F012FE0B
:1018A00006901E9903F068FF0790089903F02CFD3D
:1018B0001549099003F052FE1890A6E013484068BD
:1018C000089003F0FFFD09901E9903F01AFF27D836
:1018D0004FF0010012900D4840680C490968A0EBD8
:1018E0000100069003F0EEFD08900848406805905E
:1018F00003F0E8FD06901E9903F03EFF079008995B
:1019000006E00000CC0000200000C842DC000020FF
:1019100003F0FAFCFE49099003F020FE189074E0F1
:10192000FC488068089003F0CDFD09901E9903F0F3
:10193000E8FE1FD84FF002001290F6488068F54983
:101940004968A0EB0100069003F0BCFD0890F14847
:101950008068059003F0B6FD06901E9903F00CFF19
:101960000790089903F0D0FCE949099003F0F6FDCF
:1019700018904AE0E748C068089003F0A3FD09907A
:101980001E9903F0BEFE40D84FF003001290E148CC
:10199000C068E0498968A0EB0100069003F092FD61
:1019A0000890DC48C068059003F08CFD06901E99F5
:1019B00003F0E2FE0790089903F0A6FCD4490990D1
:1019C00003F0CCFD189020E0D248C0684042089057
:1019D00003F078FD09901E9903F093FE05D86FF08F
:1019E00001001290CA4818900FE0CA48C0680890D9
:1019F00003F068FD09901E9903F07CFD05D84FF0B7
:101A0000030012904FF000001890189801460990BA
:101A1000BF4803F0B1FE1990139800F10200C0EB2B
:101A2000C000BD4901EB8001129800F1020051F89D
:101A300020000E90139800F10300C0EBC000B649DF
:101A400001EB8001129800F1020051F820000F9084
:101A5000139800F10200C0EBC000AF4901EB800118
:101A6000129800F1030051F820001090139800F133
:101A70000300C0EBC000A84901EB8001129800F1FF
:101A8000030051F820001190189809901A980890B6
:101A9000099903F02FFD02D81A98149001E01898C4
:101AA0001490189809901B980890099903F022FD4A
:101AB00002D81B98159001E0189815901998099074
:101AC0001A980890099903F015FD02D81A981690F3
:101AD00001E019981690199809901B980890099997
:101AE00003F008FD02D81B98179001E01998179091
:101AF000DDE90E0188420ED11598099014980890DE
:101B0000099903F0FEFD03D24FF00000159002E0AA
:101B10004FF00000149010990E9888420ED116983C
:101B2000099014980890099903F0EBFD03D24FF047
:101B30000000169002E04FF00000149011990E98EA
:101B400088420ED11798099014980890099903F0CB
:101B5000D8FD03D24FF00000179002E04FF00000D4
:101B60001490DDE90F0188420ED11698099015985E
:101B70000890099903F0C5FD03D24FF000001690BC
:101B800002E04FF00000159011990F9888420ED195
:101B90001798099015980890099903F0B2FD03D29F
:101BA0004FF00000179002E04FF000001590DDE9C3
:101BB000100188420ED1179809901698089009993B
:101BC00003F09FFD03D24FF00000179002E04FF0AA
:101BD000000016900E98002805DB50490E9851F829
:101BE00020000E9008E00E98C0F100004B4951F81B
:101BF0002000C0F100000E900F98002805DB474937
:101C00000F9851F820000F9008E00F98C0F10000E5
:101C1000424951F82000C0F100000F9010980028B0
:101C200005DB3E49109851F82000109008E010980C
:101C3000C0F10000394951F82000C0F100001090B7
:101C40001198002805DB3549119851F820001190B2
:101C500008E01198C0F10000304951F82000C0F1AF
:101C6000000011901198059003F02CFC0690179835
:101C700001460590069803F071FC089010980390B7
:101C800003F020FC0490169801460390049803F09A
:101C900065FC06900F98019003F014FC02901598D3
:101CA00001460190029803F059FC04900E980190AF
:101CB00003F008FC0290149801460190029803F08A
:101CC0004DFC0390049903F0B1FA0590069903F0D6
:101CD000ADFA0790089903F0A9FA099003F07AFA8F
:101CE000CDE90C011598069014980590069903F01B
:101CF0009DFA0790169801460690079803F096FA09
:101D00000890179801460790089803F08FFA07E0AB
:101D10000000C842DC00002008010020EC00002088
:101D2000099003F057FACDE90A01DDE90A23DDE95C
:101D30000C0102F093FDCDE9080102F0A1FC1C901A
:101D40001C981FB000BD000008B500214FF00060D6
:101D500000F0C4FD4FF4A06000F07AFD4FF01C00CD
:101D60008DF800004FF000008DF801004FF00100E9
:101D70008DF802008DF80300684600F06FFD4FF00B
:101D800019008DF800004FF000008DF801008DF86B
:101D900002004FF001008DF80300684600F05EFD80
:101DA0004FF025008DF800004FF001008DF8010084
:101DB0008DF802008DF80300684600F04FFD08BD65
:101DC00000B587B00121022000F0DBFC41F61F4086
:101DD000ADF814004FF0C800ADF810004FF000004F
:101DE000ADF81600ADF8120004A9A04800F084FE7A
:101DF0004FF06000ADF800004FF00100ADF80200B8
:101E00004FF46160ADF806004FF00000ADF8080037
:101E10006946964800F0B3FE0821944801F084FB1F
:101E20006946924800F0FFFE0821904801F088FBC7
:101E300069468E4800F050FF08218C4801F08EFB67
:101E400069468A4800F0C0FF0821884801F092FBEB
:101E50000121864801F034FB0121844801F009FA90
:101E60000121824801F02CFB0121804801F001FA98
:101E700007B000BD08B501213C2000F073FC4FF015
:101E8000C000ADF800004FF018008DF803004FF0CF
:101E900003008DF802006946754800F059F94FF0CB
:101EA0000300ADF800004FF018008DF803004FF06C
:101EB00003008DF8020069466E4800F049F94FF4BE
:101EC0004070ADF800004FF010008DF803004FF0A7
:101ED00003008DF802006946664800F039F94FF0BA
:101EE0008100ADF800004FF048008DF803004FF07E
:101EF00003008DF8020069465F4800F029F94FF0B1
:101F00000600ADF800004FF048008DF803004FF0D8
:101F100003008DF802006946574800F019F94FF0A8
:101F20000400ADF800004FF048008DF803004FF0BA
:101F300003008DF802006946504800F009F94FF09F
:101F40002000ADF800004FF048008DF803004FF07E
:101F500003008DF802006946464800F0F9F808BD14
:101F600000B587B00121C80200F0FCFB42F20F70FF
:101F7000ADF814004FF04700ADF810004FF000002E
:101F8000ADF81600ADF812008DF80C0004A93C481D
:101F900000F0B2FD01213A4801F0A6FC01221146F1
:101FA000374801F082F90121354801F062F907B0A4
:101FB00000BD10B50620FEF71BFB4820FEF756FAC1
:101FC000FEF76CFBFFF7CCFFFFF754FFFFF7F8FEBF
:101FD000FFF7BAFEFEF710FCFEF7B2FCFFF76FFA50
:101FE0004FF4616027490880A1F104010880264967
:101FF000088001F10401088010BD0EB501210846DA
:1020000000F0BFFB42F20F70ADF804004FF0470044
:10201000ADF800004FF00000ADF80600ADF802008A
:1020200069464FF0804000F067FD0121880701F00C
:1020300073FC01221146900701F037F9012188074E
:1020400001F017F90EBD10B501210D4801F050FC4B
:1020500050B101210A4801F05FFC0C48007818B922
:102060004FF001000949087010BD00000004004055
:1020700000080140000C0140001001400014014024
:10208000002C0140380400403C040040CC010020FA
:1020900010B50446DE48844208D10121042000F036
:1020A0007FFB0021042000F07BFB46E0D9488442FE
:1020B00008D10121082000F073FB0021082000F066
:1020C0006FFB3AE0D448844208D10121102000F08F
:1020D00067FB0021102000F063FB2EE0CF48844214
:1020E00008D10121202000F05BFB0021202000F01E
:1020F00057FB22E0CA48844208D10121402000F069
:102100004FFB0021402000F04BFB16E0C548844205
:1021100008D10121802000F043FB0021802000F045
:102120003FFB0AE0C048844207D10121801500F03E
:1021300037FB0021A01500F033FB10BD10B50121C5
:10214000084600F02DFB0021012000F029FB10BD06
:102150002DE9F04102464FF000052E462846034681
:102160000446074691F803C00CF00F0591F803C030
:102170001CF0100F03D091F802C04CEA0505B1F82D
:1021800000C01CF0FF0F35D014684FF000002EE0A7
:102190004FF0010C0CFA00F3B1F800C00CEA030692
:1021A0009E4222D14FEA80034FF00F0C0CFA03F746
:1021B00024EA070405FA03FC4CEA040491F803C07E
:1021C000BCF1280F06D14FF0010C0CFA00FCC2F84C
:1021D00014C00AE091F803C0BCF1480F05D14FF0DC
:1021E000010C0CFA00FCC2F810C000F10100082834
:1021F000CED31460B1F800C0BCF1FF0F38DD5468D5
:102200004FF0000031E000F1080C4FF0010808FA2F
:102210000CF3B1F800C00CEA03069E4223D14FEA4A
:1022200080034FF00F0C0CFA03F724EA070405FAB9
:1022300003FC4CEA040491F803C0BCF1280F05D15B
:1022400000F1080C08FA0CF8C2F8148091F803C0E9
:10225000BCF1480F07D100F1080C4FF0010808FA53
:102260000CF8C2F8108000F101000828CBD35460AC
:10227000BDE8F0814FF6FF7101804FF002018170DF
:102280004FF00401C170704702464FF000009368A0
:102290000B4202D04FF0010001E04FF00000704708
:1022A0000146886880B2704702464FF00000D3684C
:1022B0000B4202D04FF0010001E04FF000007047E8
:1022C0000146C86880B2704701617047416170473C
:1022D0000AB1016100E041617047C16070474FF48D
:1022E000803242EA0102826181618261826982698F
:1022F000704702464FF000004C4B18684FF6807351
:1023000000EA030040EA021040EA0100474B18606F
:1023100070474749C8617047F0B50A464FF000035F
:102320001C4619460D4600F00046B6F1004F02D19A
:102330003E4EF16901E03D4E7168C0F3034583B242
:1023400000F44016B6F5401F08D121F07061374EF9
:10235000766826F07066354F7E6017E000F48016D0
:10236000B6F5801F08D14FF0030606FA05F421EAFE
:10237000040141F0706109E04FEA50564FEA061639
:1023800003FA06F621EA060141F070613AB14FEA1C
:1023900050564FEA061603FA06F646EA010100F027
:1023A0000046B6F1004F02D1204EF16101E01F4E10
:1023B0007160F0BD30B54FF000024FEA81734FEA13
:1023C00013744FF00F0303FA04F21A4B4FEAA104FF
:1023D00053F8243023EA0203164C4FEAA10544F8CF
:1023E000253023464FEAA10453F824304FEA817484
:1023F0004FEA147400FA04F443EA04030D4C4FEA64
:10240000A10544F8253030BD0B4908607047000035
:1024100000080140000C0140001001400014014080
:1024200000180140001C0140002001400000014054
:102430000000204208000140DC002042F74800680C
:1024400040F00100F549086008464068F44900EA98
:102450000100F249486008460068F24900EA0100BC
:10246000EE4908600846006820F4802008600846AD
:10247000406820F4FE0048604FF41F0088607047F9
:10248000E649096821F48031E44A1160114609687F
:1024900021F480211160B0F5803F03D0B0F5802F8A
:1024A0000ED106E0DD49096841F48031DB4A116054
:1024B00007E0DA49096841F4A021D84A116000E038
:1024C00000BF00BF704710B501464FF00002134631
:1024D00010464FEA6112012A02D1D04C236806E06F
:1024E000022A02D1CD4C236A01E0CC4C636A01F090
:1024F0001F024FF0010404FA02F41C4202D04FF014
:10250000010001E04FF0000010BD70B54FF0000475
:102510002546264600BF3120FFF7D5FF064604F1C9
:102520000104B4F5A06F01D0002EF4D03120FFF7E4
:10253000CAFF10B14FF0010501E04FF00005284639
:1025400070BD01464FF00000B44A106820F0F8005A
:1025500040EAC10010607047B34908607047024606
:102560004FF00000AD4B586820F47C1042EA0103A4
:1025700043EA0000A94B58607047AB4908667047B2
:1025800001464FF00000A54A506820F0030040EAE1
:10259000010050607047A148406800F00C0070478F
:1025A00001464FF000009D4A506820F0F00040EADC
:1025B00001005060704701464FF00000974A506894
:1025C00020F4E06040EA01005060704701464FF09F
:1025D0000000924A506820F4605040EAC100506008
:1025E000704731B18D4A527A42EA00028B4B5A72DF
:1025F00008E08A4A527A6FEA0003DBB202EA030279
:10260000864B5A72704789490860704701464FF0FF
:102610000000824A506820F4404040EA01005060C7
:1026200070474FF00001824A11707C4A82F82010F6
:10263000012802D004280AD104E04FF001017C4AAD
:10264000117005E04FF00501794A117000E000BFFC
:1026500000BF70477749086070477049096A41EACE
:1026600000016E4A1162704773490860704730B5C7
:102670004FF000010A460C460B46684D6D6805F0A8
:102680000C0121B1042905D0082927D105E06B4DA3
:10269000056026E0694D056023E0604D6D6805F436
:1026A00070125E4D6D6805F480344FF0020505EB45
:1026B000924224B9624D02FB05F505600DE0574DCD
:1026C0006D6815F4003F04D05D4D02FB05F5056013
:1026D00003E05A4D02FB05F5056002E0574D056029
:1026E00000BF00BF4D4D6D6805F0F0014FEA1111BC
:1026F000544D6B5C056825FA03F54560474D6D68E0
:1027000005F4E0614FEA11214E4D6B5C456825FAF6
:1027100003F58560414D6D6805F460514FEAD121A4
:10272000484D6B5C456825FA03F5C5603B4D6D6807
:1027300005F440414FEA9131434D6B5CC568B5FBF0
:10274000F3F5056130BD31B1344A526942EA000205
:10275000324B5A6105E0314A526922EA00022F4B9E
:102760005A61704731B12D4A926942EA00022B4BFF
:102770009A6105E0294A926922EA0002274B9A6190
:10278000704731B1254AD26942EA0002234BDA612F
:1027900005E0224AD26922EA0002204BDA61704742
:1027A00031B11E4AD26842EA00021C4BDA6005E0F1
:1027B0001A4AD26822EA0002184BDA60704731B137
:1027C000164A126942EA0002144B1A6105E0134AE4
:1027D000126922EA0002114B1A6170471B49086016
:1027E00070471149C86470470C49C87170470B485D
:1027F000406A40F0807009494862704701464FF0D6
:102800000000064A92680A4202D04FF0010001E03F
:102810004FF0000070470149887270470010024075
:102820000000FFF8FFFFF6FE00004242D8004242DF
:1028300020100240800442423C04424200127A00CE
:1028400000093D00D8010020E80100204004424278
:10285000384940EA0101384A1160704770B54FF0BD
:1028600000010B464FF00F02C4784CB3324C246881
:1028700004F4E064C4F5E0644FEA1421C1F10403F8
:1028800022FA01F2447804FA03F1847804EA02049B
:1028900044EA01014FEA0111284C0678A155047859
:1028A00004F01F054FF0010404FA05F405784FEA1F
:1028B00065154FF0E02606EB8505C5F800410CE0F4
:1028C000047804F01F054FF0010404FA05F41C4DD0
:1028D00006784FEA661645F8264070BD194A01EAA7
:1028E000020242EA0002184B1A60704731B1174ADF
:1028F000126842EA0002154B1A6005E0134A12689A
:1029000022EA0002114B1A607047042808D14FF0E8
:10291000E021096941F004014FF0E022116107E074
:102920004FF0E021096921F004014FF0E02211612C
:10293000704700000000FA050CED00E000E400E044
:1029400080E100E080FFFF1F08ED00E010ED00E0F7
:1029500010B50446FE48844208D10121C014FFF797
:102960001FFF0021E014FFF71BFFC4E0B4F1804F0C
:1029700008D101210846FFF722FF00210120FFF7BF
:102980001EFFB8E0F348844208D101210220FFF77E
:1029900016FF00210220FFF712FFACE0EE48844250
:1029A00008D101210420FFF70AFF00210420FFF7CE
:1029B00006FFA0E0E948844208D101210820FFF782
:1029C000FEFE00210820FFF7FAFE94E0E44884426E
:1029D00008D101211020FFF7F2FE00211020FFF79F
:1029E000EEFE88E0DF48844208D101212020FFF775
:1029F000E6FE00212020FFF7E2FE7CE0DA48844278
:102A000008D101214014FFF7CBFE00216014FFF72D
:102A1000C7FE70E0D548844209D10121C804FFF700
:102A2000BFFE00214FF40020FFF7BAFE63E0D0485C
:102A3000844209D101210805FFF7B2FE00214FF4BD
:102A40008010FFF7ADFE56E0CA48844209D101214B
:102A50004805FFF7A5FE00214FF40010FFF7A0FE88
:102A600049E0C548844208D101214020FFF7A7FE74
:102A700000214020FFF7A3FE3DE0C048844208D17A
:102A800001218020FFF79BFE00218020FFF797FEA9
:102A900031E0BB48844208D101218015FFF78FFE49
:102AA0000021A015FFF78BFE25E0B648844209D12E
:102AB00001210804FFF774FE00214FF48030FFF776
:102AC0006FFE18E0B048844209D101214804FFF7A5
:102AD00067FE00214FF40030FFF762FE0BE0AB48C9
:102AE000844208D101218804FFF75AFE00214FF4E7
:102AF0008020FFF755FE10BD4FF000020288944B76
:102B000098420ED0984B98420BD0B0F1804F08D02D
:102B1000904B984205D0904B984202D08F4B9842F0
:102B200006D14FF68F7302EA03024B8843EA020292
:102B30008B4B984209D08B4B984206D04FF6FF43FF
:102B400002EA0302CB8843EA020202808B88838573
:102B50000B8803857E4B98420BD0834B984208D05C
:102B6000884B984205D0884B984202D0874B9842B8
:102B700001D10B7A03864FF001038382704770B551
:102B80004FF0000422461346058C4FF6FE7605EA08
:102B900006050584028C8388048B4FF68F7504EA42
:102BA00005044FF6FC7504EA05040D8845EA0404A3
:102BB0004FF6FD7502EA05020D8945EA02024D88CD
:102BC00045EA0202624DA8420BD0674DA84208D0E8
:102BD0006C4DA84205D06C4DA84202D06B4DA84266
:102BE0001BD14FF6F77502EA05024D8945EA02024C
:102BF0004FF6FB7502EA05028D8845EA02024FF6A0
:102C0000FF6503EA05034FF6FF5503EA05038D89C7
:102C100045EA0303CD8945EA030383800483CD8815
:102C20008586028470BD70B54FF0000422461346BD
:102C3000058C4FF6EF7605EA06050584028C83883D
:102C4000048B48F6FF7504EA05044FF6FF4504EAD5
:102C500005040D884FEA056544EA15444FF6DF7513
:102C600002EA05020D894FEA055542EA15424D88F0
:102C70004FEA055542EA1542354DA84202D03A4D79
:102C8000A84223D14FF67F7502EA05024D894FEA2B
:102C9000055542EA15424FF6BF7502EA05028D88D6
:102CA0004FEA055542EA15424FF6FF3503EA0503A0
:102CB0004FF2FF7503EA05038D894FEA854543EA24
:102CC0001543CD894FEA854543EA15438380048344
:102CD000CD880587028470BD70B54FF00004224690
:102CE0001346058C4FF6FF6605EA06050584028C3F
:102CF0008388848B4FF68F7504EA05044FF6FC75C4
:102D000004EA05040D8845EA04044FF6FF5502EA7B
:102D100005020D894FEA056542EA15424D884FEAE2
:102D2000056542EA15420A4DA84202D00E4DA8425E
:102D300044D14FF2FF7502EA05024D894FEA05655D
:102D400042EA15424FF6FF3502EA05028D881FE080
:102D5000002C01400004004000080040000C00402E
:102D6000001000400014004000340140004C0140BD
:102D7000005001400054014000180040001C004079
:102D80000020004000400140004401400048014054
:102D90004FEA056542EA15424EF6FF7503EA050360
:102DA0004DF6FF7503EA05038D894FEA055543EAA1
:102DB0001543CD894FEA055543EA15438380848343
:102DC000CD888587028470BD70B54FF00002134630
:102DD0001446058C4EF6FF7605EA06050584038C3D
:102DE0008488828B48F6FF7502EA05024FF6FF459C
:102DF00002EA05020D884FEA056542EA15424DF6E2
:102E0000FF7503EA05030D894FEA057543EA15438B
:102E10004D884FEA057543EA1543FB4DA84202D0A1
:102E2000FA4DA84208D14BF6FF7504EA05048D89D6
:102E30004FEA855544EA154484808283CD88A0F802
:102E40004050038470BD828B4FF2FF3302EA0302CD
:102E50008283828B4FEA016342EA13428283704786
:102E6000F0B50C4615464FF0000211460E46078C91
:102E70004EF6FF7C07EA0C070784828B018C4FEA31
:102E800004774FEA174640F6FF4702EA07024FEA87
:102E9000056742EA17424FEA037742EA1742DA4FE0
:102EA000B8420ED0D94FB8420BD0B0F1804F08D005
:102EB000D74FB84205D0D74FB84202D0D64FB8420C
:102EC00008D14DF6FF7701EA070146F4805747EA3B
:102ED000010107E047F6FF5701EA070144F4805774
:102EE00047EA010182830184F0BD828B4FF6F373C0
:102EF00002EA03028283828B42EA010282837047E4
:102F0000F0B50C4615464FF0000211460E46078CF0
:102F10004FF6FF6C07EA0C070784828B018C4FEA9F
:102F200004674FEA17464FF60C7702EA07024FEAAA
:102F3000035745EA174747EA0202B34FB8420ED09B
:102F4000B24FB8420BD0B0F1804F08D0B04FB8426A
:102F500005D0B04FB84202D0AF4FB84208D14FF6BB
:102F6000FF5701EA070146F4807747EA010107E0CD
:102F70004FF2FF5701EA070144F4807747EA010165
:102F800082830184F0BD028B4FF2FF3302EA030219
:102F90000283028B4FEA016342EA134202837047C5
:102FA000F0B50C4615464FF0000211460E46078C50
:102FB0004FF6EF7C07EA0C070784028B018C4FEA7F
:102FC00004574FEA174640F6FF4702EA07024FEA66
:102FD000037742EA17424FEA056742EA17428A4FEF
:102FE000B8420ED0894FB8420BD0B0F1804F08D014
:102FF000874FB84205D0874FB84202D0864FB842BB
:1030000008D14FF6DF7701EA070146F0100747EADB
:10301000010107E04FF65F7701EA070144F010076E
:1030200047EA010102830184F0BD028B4FF6F3737E
:1030300002EA03020283028B42EA01020283704722
:10304000F0B50C4615464FF000021146068C4FF6BF
:10305000FE7706EA07060684028B018C4FF60C7693
:1030600002EA06024FEA035645EA164646EA02021B
:10307000654EB0420ED0654EB0420BD0B0F1804FDD
:1030800008D0634EB04205D0624EB04202D0624ECC
:10309000B04208D14FF6FD7601EA060144F0010680
:1030A00046EA010107E04FF6F57601EA060144F031
:1030B000010646EA010102830184F0BD70B50546B0
:1030C0000C46514885420ED0504885420BD0B5F190
:1030D000804F08D04E48854205D04E48854202D0E8
:1030E0004D48854200D100E000BF208850B92389B7
:1030F000A28861882846FFF7A3FFE1882846FFF7EA
:1031000094FF25E0208804280AD12389A2886188B9
:103110002846FFF745FFE1882846FFF734FF17E010
:10312000208808280AD12389A28861882846FFF7C9
:10313000E7FEE1882846FFF7D8FE09E02389A28848
:1031400061882846FFF78CFEE1882846FFF77BFE62
:1031500070BD2DE9F04105460C464FF000064FF0DA
:103160000107608810B94FF0020601E04FF0000639
:10317000A088012802D14FF0020701E04FF00107BB
:103180002088A0B92389A28861882846FFF758FFC4
:10319000E1882846FFF749FF23893A463146284609
:1031A000FFF7FEFEE1882846FFF7EDFE13E02389D6
:1031B000A28861882846FFF7F3FEE1882846FFF7DA
:1031C000E2FE23893A4631462846FFF739FFE18877
:1031D0002846FFF72AFFBDE8F0810A884B8842EABB
:1031E00003028B8842EA0302CB8842EA03020B897E
:1031F00042EA03024B8942EA03028B8942EA030254
:10320000A0F8442070470000002C01400034014029
:103210000004004000080040000C00404FF6FF7121
:1032200081804FF000010180C180418001727047B0
:103230004FF00001018041808180C1800181418186
:103240008181C18170474FF00001018041804FF0C2
:10325000010181804FF00001C180018170474FF072
:103260000001018041808180C18001814181818193
:10327000704721B1028842F00102028005E0028815
:103280004FF6FE7302EA03020280704731B1B0F8D4
:10329000442042F40042A0F8442005E0B0F8442065
:1032A000C2F30E02A0F84420704710B522B1838902
:1032B00043EA0103838106E083896FEA0104A4B233
:1032C00003EA0403838110BD8182704741EA02034F
:1032D000A0F84830704710B522B1838943EA010352
:1032E000838106E083896FEA0104A4B203EA040340
:1032F000838110BD01894FF6F87201EA0201018154
:1033000070470A464FF0000101894FF68F7301EABA
:10331000030141EA02010181704730B504460D46C0
:1033200029462046FFF7EDFF208940F00700208165
:1033300030BD2DE9F04104460D4616461F46602D6E
:1033400006D13B46012231462046FFF729FE05E023
:103350003B46012231462046FFF772FE29462046B1
:10336000FFF7CFFF208940F007002081BDE8F08102
:1033700030B50C464FF000010189C9B24FEA036530
:1033800042EA154545EA040545EA0101018130BDDF
:103390002DE9F04105460E46174698464FF00004C9
:1033A00043463A4631462846FFF7E2FF2C894FF65E
:1033B000F87004EA000444F007044FF68F7004EA42
:1033C000000444F070042C81BDE8F081F0B504469F
:1033D0000D4616461F463B46324629462046FFF715
:1033E000C7FF208940F480402081F0BD01858282A2
:1033F00070470A464FF0000101884FF68F7301EACB
:10340000030141EA020101807047F0B50C46154600
:103410001E464FF000010A460B460189028B038CC1
:103420004FF6F87701EA070141EA04014FF6FC473D
:1034300002EA070240F2011742EA07024FF6DD777F
:1034400003EA07034FEA065745EA174747EA03032B
:10345000018102830384F0BD0A464FF00001018B15
:103460004FF68F7301EA030141EA020101837047BD
:103470000A464FF00001018B48F6FF7301EA030191
:103480004FEA026341EA1341018370470A464FF055
:103490000001818B4FF68F7301EA030141EA0201BB
:1034A000818370470A464FF00001818B48F6FF7315
:1034B00001EA03014FEA026341EA13418183704745
:1034C00021B1028842F08002028005E002884FF6B6
:1034D0007F7302EA03020280704721B1828842F0C2
:1034E0000402828005E082884FF6FB7302EA030241
:1034F0008280704721B1828842F00802828005E014
:1035000082884FF6F77302EA03028280704721B186
:10351000828842F00102828005E082884FF6FE73C5
:1035200002EA0302828070470A464FF00001018BD5
:103530004FF6F77301EA030141EA02010183704784
:103540000A464FF00001018B4FF2FF7301EA0301BD
:103550004FEA026341EA1341018370470A464FF084
:103560000001818B4FF6F77301EA030141EA020182
:10357000818370470A464FF00001818B4FF2FF7341
:1035800001EA03014FEA026341EA13418183704774
:103590000A464FF00001018B4FF6FB7301EA03016D
:1035A00041EA0201018370470A464FF00001018B96
:1035B0004FF6FF3301EA03014FEA026341EA134188
:1035C000018370470A464FF00001818B4FF6FB7371
:1035D00001EA030141EA0201818370470A464FF084
:1035E0000001818B4FF6FF3301EA03014FEA0263CA
:1035F00041EA1341818370470A464FF00001018B75
:103600004FF67F7301EA030141EA0201018370472B
:103610000A464FF00001018BC1F30E014FEA02632D
:1036200041EA1341018370470A464FF00001818B44
:103630004FF67F7301EA030141EA0201818370477B
:103640000A464FF00001818BC1F30E014FEA02637D
:1036500041EA1341818370470A464FF00001018C13
:103660004FF6FD7301EA030141EA0201018470474C
:103670000A464FF00001018C4FF6F77301EA03018F
:1036800041EA0201018470470A464FF00001018CB3
:103690004FF6DF7301EA03014FEA025341EA134197
:1036A000018470470A464FF00001018C4FF67F738A
:1036B00001EA03014FEA025341EA134101847047D2
:1036C0000A464FF00001018C4FF6FF5301EA030157
:1036D0004FEA026341EA1341018470470A464FF002
:1036E0000001018C4FF2FF7301EA03014FEA02630C
:1036F00041EA1341018470470A464FF00001018CF2
:103700004DF6FF7301EA03014FEA027341EA1341E8
:103710000184704730B54FF000034FF0010404FA04
:1037200001F4A3B2048C6FEA0305ADB204EA050408
:103730000484048C02FA01F5ADB244EA0504048461
:1037400030BD30B54FF000034FF0040404FA01F42B
:10375000A3B2048C6FEA0305ADB204EA0504048445
:10376000048C02FA01F5ADB244EA0504048430BDCC
:1037700070B503464FF000000446184600F11800EB
:103780004FF0010505FA01F5ACB21D8C6FEA040695
:10379000B6B205EA06051D8409B108290AD100EB75
:1037A0006100056825F070050560056845EA0205B9
:1037B00005600EE0A1F10405ADB200EB65000568FF
:1037C00025F4E045056005684FEA026645EA1645BE
:1037D000056070BD21B1028842F00202028005E05E
:1037E00002884FF6FD7302EA03020280704721B19E
:1037F000028842F00402028005E002884FF6FB7363
:1038000002EA03020280704721B1828842F08002FE
:10381000828005E082884FF67F7302EA030282808D
:10382000704702884FF6F77302EA030202800288AB
:1038300042EA01020280704782884FF68F7302EAE3
:1038400003028280828842EA0102828070470289F4
:103850004FF6F87302EA03020281028942EA01028A
:103860000281704702894FF67F7302EA03020281E8
:10387000028942EA01020281704781847047818592
:103880007047818670470187704781877047A0F82D
:103890004010704702884FF6FF4302EA030202809D
:1038A000028842EA0102028070470146888E704712
:1038B0000146088F70470146888F70470146B1F86E
:1038C000400070470146888C70470146088D70475C
:1038D00002464FF00000138A0B4202D04FF0010065
:1038E00001E04FF0000070476FEA0102028270476A
:1038F00030B502464FF0000003460446158A05EA3B
:103900000103958905EA01041BB114B14FF00100D0
:1039100001E04FF0000030BD6FEA01020282704703
:1039200010B50446F848844209D101218803FEF706
:1039300037FF00214FF48040FEF732FF32E0F348BA
:10394000844209D101214804FEF739FF00214FF4D8
:103950000030FEF734FF25E0ED48844209D1012113
:103960008804FEF72CFF00214FF48020FEF727FF8C
:1039700018E0E848844209D10121C804FEF71FFF7E
:1039800000214FF40020FEF71AFF0BE0E2488442CA
:1039900008D101210805FEF712FF00214FF4801025
:1039A000FEF70DFF10BD2DE9F04786B005460E4627
:1039B0004FF00004A24600BFA1462746B08900B1DF
:1039C00000BF2F462C8A4CF6FF7004EA0004F088F2
:1039D00040EA04042C82AC894EF6F31004EA000499
:1039E000B088318940EA0100718940EA010040EA6B
:1039F0000404AC81AC8A4FF6FF4004EA0004B089AD
:103A000040EA0404AC8201A8FEF731FEBE488742BA
:103A100002D1DDF810A001E0DDF80CA0A88910F4B7
:103A2000004F09D00AEBCA0000EB0A1031684FEAD8
:103A30004101B0FBF1F808E00AEBCA0000EB0A1004
:103A400031684FEA8101B0FBF1F84FF06400B8FB38
:103A5000F0F04FEA00144FEA14104FF0640101FB3C
:103A60001089A88910F4004F0AD04FF0320000EB03
:103A7000C900B0FBF1F000F0070040EA04040BE0DD
:103A80004FF0320000EB09104FF06401B0FBF1F091
:103A900000F00F0040EA04042C8106B0BDE8F08776
:103AA0004FF4165101604FF000018180C180018107
:103AB0004FF00C0141814FF000018181704710B53A
:103AC00002464FF00000108A4FF2FF0300EA0300A5
:103AD0000B884C8843EA04038C8843EA0403CC88AF
:103AE00043EA040343EA0000108210BD4FF00001D6
:103AF000018041808180C180704721B1828942F478
:103B00000052828105E082894DF6FF7302EA0302CA
:103B100082817047F0B503464FF0000426462546E3
:103B20002046A1F510676A3F00D100BF1846C1F3D7
:103B3000421401F01F064FF0010707FA06F5012CA9
:103B400002D100F10C0006E0022C02D100F11000BD
:103B500001E000F1140022B1076847EA0507076099
:103B600003E0076827EA05070760F0BD10B522B13A
:103B7000838A43EA0103838206E0838A6FEA0104B1
:103B8000A4B203EA0403838210BD028A4FF6F073E5
:103B900002EA03020282028A42EA010202827047BA
:103BA00082894FF2FF7302EA03028281828942EA2C
:103BB00001028281704721B1828942F00202828132
:103BC00005E082894FF6FD7302EA030282817047A5
:103BD000028A4FF6DF7302EA03020282028A42EA95
:103BE00001020282704721B1028A42F480420282BD
:103BF00005E0028A4BF6FF7302EA03020282704775
:103C0000C1F308028280704701468888C0F308002B
:103C10007047818941F0010181817047028BD2B2E6
:103C20000283028B42EA012202837047028B02F474
:103C30007F420283028B42EA01020283704721B174
:103C4000828A42F02002828205E0828A4FF6DF7388
:103C500002EA03028282704721B1828A42F0100296
:103C6000828205E0828A4FF6EF7302EA03028282C3
:103C7000704721B1828A42F00802828205E0828A7E
:103C80004FF6F77302EA03028282704721B18289FC
:103C900042F40042828103E08289C2F30E028281F3
:103CA000704721B1828A42F40062828205E0828AF2
:103CB0004FF2FF7302EA030282827047828A4FF654
:103CC000FB7302EA03028282828A42EA0102828252
:103CD000704721B1828A42F00202828205E0828A24
:103CE0004FF6FD7302EA03028282704702464FF0EC
:103CF0000000B1F5007F00D100BF13880B420DD04A
:103D00004FF001000CE0000000380140004400408A
:103D100000480040004C0040005000404FF00000C0
:103D2000704701F40072B2F5007F00D100BF6FEA66
:103D300001020280704770B502464FF0000423462E
:103D40001D461846A1F510666A3E00D100BFC1F3BA
:103D5000421501F01F034FF0010606FA03F3012D8F
:103D600003D1968906EA030308E0022D03D1168ADF
:103D700006EA030302E0968A06EA03034FEA2124D7
:103D80004FF0010606FA04F4168806EA04041BB193
:103D900014B14FF0010001E04FF0000070BD10B50C
:103DA0004FF000021346A1F510646A3C00D100BF39
:103DB0004FEA21224FF0010404FA02F4A3B26FEAA1
:103DC0000304048010BD000010B50446FB48844283
:103DD00009D101214805FEF7F2FC00214FF4001043
:103DE000FEF7EDFC08E001218805FEF7E8FC002164
:103DF0004FF48000FEF7E3FC10BD2DE9F04385B0E1
:103E000004460D464FF00006B1464FF00407DFF8B8
:103E1000B083A6884FF6C07006EA00066846FEF733
:103E200026FCDDF80880E748B8FBF0F01FFA80F9BF
:103E300046EA0906A68020884FF6FE7100EA0100D6
:103E400020804FF00006E049286888420FD8286893
:103E50004FEA4000B8FBF0F087B2042F01DA4FF0D0
:103E6000040746EA070609F10100208429E0E888F2
:103E7000A0F53F41FF3906D1286800EB4000B8FBB0
:103E8000F0F087B209E0286800EBC00101EB0010F8
:103E9000B8FBF0F087B247F480473805000D01D138
:103EA00047F0010747F4004040EA06064FF49670D9
:103EB00009FB00F04FF47A7190FBF1F000F1010082
:103EC0002084A683208840F00100208026884FF6B9
:103ED000F53006EA0006A888698940EA010040EA50
:103EE00006062680A889298940EA0100208105B0BC
:103EF000BDE8F08341F2883101604FF0000181801C
:103F00004BF6FF71C1804FF00001018141814FF4F8
:103F100080418181704721B1028842F00102028014
:103F200005E002884FF6FE7302EA03020280704742
:103F300021B1828842F40062828005E082884FF2DB
:103F4000FF7302EA03028280704721B1828842F443
:103F50008052828005E082884EF6FF7302EA0302F7
:103F60008280704721B1028842F48072028005E0AD
:103F700002884FF6FF6302EA03020280704721B114
:103F8000028842F40072028005E002884FF6FF5377
:103F900002EA03020280704721B1028842F4806283
:103FA000028005E002884FF6FF3302EA0302028036
:103FB00070470A464FF0000181894FF6017301EA0C
:103FC000030102F0FE0343EA01018181704721B140
:103FD000828942F00102828105E082894FF6FE73F8
:103FE00002EA03028281704721B1028842F0400256
:103FF000028005E002884FF6BF7302EA03020280E6
:10400000704710B522B1838843EA0103838006E03C
:1040100083886FEA0104A4B203EA0403838010BD1D
:10402000018270470146088AC0B2704712B141F060
:10403000010103E04FF6FE7301EA030101827047BC
:1040400002464FF0000313460B441888704721B115
:10405000028842F40042028003E00288C2F30E02AA
:1040600002807047B1F5006F04D1028842F400620B
:10407000028005E002884FF2FF7302EA0302028029
:104080007047B1F5005F04D1028842F4005202800B
:1040900005E002884DF6FF7302EA030202807047D2
:1040A00021B1028842F48052028005E002884EF677
:1040B000FF7302EA030202807047B1F5006F04D17A
:1040C000028842F40062028005E002884FF2FF732A
:1040D00002EA03020280704721B1028842F0200206
:1040E000028005E002884FF6DF7302EA03020280D5
:1040F00070470146088B4FEA2020704721B10288A3
:1041000042F01002028005E002884FF6EF7302EAE7
:1041100003020280704721B9028842F080020280C7
:1041200005E002884FF67F7302EA030202807047BF
:10413000B1F5804F06D0828B4BF6FF7302EA030283
:10414000828303E0828B42F480428283704770B5A1
:1041500002464FF00004254623461846958A138BE5
:104160004FEA034345EA030626F07F4404EA0106CA
:104170008E4202D14FF0010001E04FF0000070BD0F
:1041800010B501464FF00000034602468B8A0A8BA9
:104190004FEA024243EA020424F07F4010BD30B5EA
:1041A00003464FF00000044602461A464FEA1174D7
:1041B00021F07F4154B102F114020BE000540040A1
:1041C00000127A0040420F00A08601004FEA114120
:1041D00002F1180215680D4202D04FF0010001E013
:1041E0004FF0000030BD4FF0000221F07F426FEA37
:1041F00002038382704730B502464FF00000034649
:10420000948801F0E06504EA154321F07F41948A27
:104210000C4203D013B14FF0010001E04FF0000059
:1042200030BD4FF0000221F07F426FEA020383822B
:10423000704700000948804709480047FEE7FEE74D
:10424000FEE7FEE7FEE7FEE7FEE7FEE7FEE7FEE746
:1042500004480549054A064B704700005D03000805
:104260003101000810030020100900201005002073
:10427000100500207047704770477047704710B5B1
:1042800000F008F8006810BD10B5044600F002F810
:10429000046010BD00487047AC0200200048704721
:1042A000AC0200207546FFF7F9FFAE4605006946EF
:1042B000534620F00700854618B020B5FFF7C8FF29
:1042C000BDE820404FF000064FF000074FF0000817
:1042D0004FF0000B21F00701AC46ACE8C009ACE898
:1042E000C009ACE8C009ACE8C0098D467047044677
:1042F000AFF300802046FBF784FF000000487047C2
:10430000B00200202DE9F0414F1E00EBC70104462A
:10431000D1E9000115461E4637F006020DD02A46A7
:10432000334600F047FC7F1E04EBC703D3E90023AC
:1043300000F0D8F937F00602F1D1022F25D0042F72
:1043400013D0062F18BFBDE8F0812A46334600F08F
:1043500031FCD4E90A2300F0C5F92A46334600F0BF
:1043600029FCD4E9082300F0BDF92A46334600F0C1
:1043700021FCD4E9062300F0B5F92A46334600F0C3
:1043800019FCD4E9042300F0ADF92A46334600F0C5
:1043900011FCD4E9022300F0A5F92A46334600F0C7
:1043A00009FCD4E90023BDE8F04100F09BB900000E
:1043B0002DE9F04D0546DFF8408221F000408F4F97
:1043C00082B00C46404525DBA0EB080129430CD008
:1043D0008B49884201DC11D185B102B028462146C3
:1043E000BDE8F04D012201F06EBA002CC7BF0020DD
:1043F00001468448394602B0BDE8F08D0120FFF740
:1044000043FF02B00022BDE8F04D134610461146AE
:1044100000F024BA7C49884244DA7C498142A1BF39
:1044200078487B4902B0BDE8F08D2A462346104605
:10443000194600F0BFFB8346024676480E460B46FF
:1044400006217844FFF75EFF5A46334600F0B2FB80
:10445000074671488A465A46334604217844FFF796
:1044600051FF5A46334600F0A5FB0022434600F0B8
:1044700039F902460B463846514600F0EFF92A4614
:10448000234600F097FB654A654B00F0C7FC2A46BF
:10449000234600F0C3FC02B05A4ABDE8F04D5C4B25
:1044A00000F0BCBC002C4FF000024BDA46464346FD
:1044B0002846214600F016F94FF0FF3201F003FACA
:1044C0000446024657480D460B4606217844FFF73E
:1044D00019FF22462B4600F06DFB804652488A4663
:1044E00022462B4604217844FFF70CFF22462B4638
:1044F00000F060FB0022334600F0F4F806468B46DD
:104500002046294600F096F804460D4632465B46A2
:104510004046514600F0A2F922462B4600F04AFBE5
:104520003E4A3F4B00F06CFD22462B4600F0DAF885
:10453000012201F0C8F902B03B46BDE8F04D314A16
:1045400000F06CBC2C4B2846214600F067FC4FF075
:10455000FF3201F0B8F905460E4600F06BF800276F
:104560000C4680463A460B4600F0BCF882468B4625
:104570003A4623461046194600F01CFB2A463346AD
:1045800000F04CFC52465B4600F068F98246274832
:104590008B462A46334606217844FFF7B3FE2A4667
:1045A000334600F007FBCDE9000121482A46334697
:1045B00004217844FFF7A6FE2A46334600F0FAFAB3
:1045C00000220D4B00F08EF802460B46DDE900019B
:1045D00000F044F94246234600F0ECFA52465B46AE
:1045E00000F080F83A46234600F07CF802B0012241
:1045F000BDE8F04D01F067B90000F03FFB21094034
:104600000000F07F182D44540000E03F0000603CA3
:10461000FB21F93F1215000028150000075C143338
:1046200026A6913C881400009E140000BC130000D4
:10463000D21300002DE9F04106460F4600F0FAFBC8
:104640000D46040018BF0120284320F00040C0F1AF
:104650007F6010F1E0400FD5002E14BF0120002034
:10466000384320F00040C0F17F6000F1E0400028B6
:10467000A4BF0120FFF708FE20462946BDE8F081CF
:1046800021F00042A2F16052B2F5801F01F0004318
:1046900028BFD2F17F6C0BD95FEA001C43EAC2024B
:1046A00042EB507018BF704728BF20F001007047E0
:1046B000B2F5801FBCBF184670474FEA410C1CF58D
:1046C000001F02D2084601F017B870B500F01CFBBD
:1046D00000000089FFF7F6BF4FF00040A0F5800012
:1046E0007047000010B591EA030F48BF83F0004304
:1046F00000F18E84841A71EB030C05D2121943EB7E
:104700000C03001B61EB0C01DFF824E14FEA1154AC
:10471000A4EB135C1EEA430F18BF9EEA445F73D0FC
:1047200023EA0E03DCF1200E21EA045143F4801346
:1047300032D322FA0CFE10EB0E0023FA0CFE41EBF2
:104740000E01CCF1200E03FA0EFE10EB0E0051F11B
:104750000001B1F5801FCCF1200E32D201EB0451E3
:1047600012FA0EF2BDE8104058BF7047401C38BF27
:104770005FEA420218BF7047002814BF20F0010012
:1047800041F100014FEA410313F5001F38BF7047A4
:10479000A1F1C04100F006BB012A43EB0302ACF1DA
:1047A000200CDCF11F0E32BF4FF0000E23FA0CF389
:1047B00010EB030041EB0451B4EB115FD0D0A1EB3F
:1047C000045101F5801149085FEA300001EB045102
:1047D0000ED350F1000038BF12FA0EFE08D1BDE82A
:1047E0001040C9E7401C38BF5FEA4202CAD1C3E7A4
:1047F000BDE810404FEA410313F5001F38BF704772
:10480000A1F1C04100F0CEBA9EEA445F08D011EA9F
:104810005E0FBDE8104004BF01F00041002070476A
:10482000BDE8104070B500F06FFA00BF64FBBE3EFB
:104830000000E0FF02494FF0000001F012B800BF95
:104840000000F87F491058BFC1F140415B1058BFCC
:10485000C3F140438B42EFF3008070472DE9C04124
:1048600030B4DFF8A0C23CEA111418BF3CEA1314BC
:1048700000F0EC8081EA03051CEA111444EAD574C7
:1048800018BF1CEA131500F0C780A4EB05044FF015
:10489000004545EAC12145EAC32341EA505143EAB4
:1048A000525304F17F74994204F500344FEAC0205A
:1048B0004FEAC22208BF904200F09C804FEA136585
:1048C0000FF24016765D4FEA134506FB05F7C7F178
:1048D000807706FB07F74FEAD737A7FB03687642D6
:1048E000C8F58038A7FB06CE38BFA8F1010807FB42
:1048F00008E64FF0000EA6FB028CE6FB03CEDCF1CF
:10490000000CCEF1004E38BFAEF1010EA6FB0C58E4
:104910004FF000074FF00005E6FB0E87A1FB08C62D
:10492000A0FB07CE16EB0E0645F10005E1FB07657F
:1049300015F1E04E7EBFA4F580345FEA46066D4176
:1049400016F1800745F100054FEA17274FEA066682
:1049500047EA0567A6F1DE46B6F1805F4FEA152506
:104960001FD9384624F0010C05EBC471BCF1FE6F71
:1049700001EB0C1102D8F0BCBDE8008124425CBF01
:1049800001F5801E9EEAC47F02D4F0BCBDE8008120
:10499000244238D4F0BCA1F1C041BDE8004100F090
:1049A00001BA4FEAD22242EA43524FEAD323A7FB8D
:1049B00002864FEAD02040EA415007FB03661EEA18
:1049C0000E0F4FEAD12105FB026658BFA6EB005639
:1049D000B6EB00564FEA520E4EEAC37E18EB0E0EAF
:1049E00056EB530EBDD518EB02085E417F1C55F106
:1049F0000005B6E74FF480154FF000074FF00006B2
:104A00004FF00008ADE7F0BC4FF0000001F1C041ED
:104A100001F00041BDE8008111EA0C1F0CEA1315FA
:104A200000D00CE013EA0C1F00F025804FF00000CE
:104A3000F0BC81EA030101F00041BDE80081F0BC57
:104A4000BDE8004181EA030100F0ACB9F0BCBDE86B
:104A5000004170B500F058F9097EFC3E00F007B83F
:104A600081EA03014FF0000001F00041704781EA44
:104A7000030100F097B9F0BCBDE800414FF0000021
:104A800021497047FFFDFBF9F7F5F4F2F0EEEDEB8D
:104A9000E9E8E6E4E3E1E0DEDDDBDAD8D7D5D4D33C
:104AA000D1D0CFCDCCCBCAC8C7C6C5C4C2C1C0BF88
:104AB000BEBDBCBBBAB9B8B7B6B5B4B3B2B1B0AF8E
:104AC000AEADACABAAA9A8A8A7A6A5A4A3A3A2A172
:104AD000A09F9F9E9D9C9C9B9A999998979796952D
:104AE00095949393929191908F8F8E8E8D8C8C8BC9
:104AF0008B8A898988888787868585848483838251
:104B0000828181800000FF070000F87F10F00042E2
:104B100048BF4042B0FA80F310FA03F10AD0C3F163
:104B20001D0303F580634FEA415002EB035202EB91
:104B3000D12170474FF000007047000051EA030C8C
:104B400017D41CF5801F58BFBCF5801F00F10680EC
:104B5000994218BF704708BF9042704707D711F5B8
:104B6000801F58BF13F5801F19D49942704789429E
:104B700070471CF5801F08D5BCF5801FF7D58B4208
:104B800018BF704708BF824270474FF4001C1CEBEF
:104B9000410F38BF1CEB430F01D28B42704770B5F9
:104BA00000F0B2F8922449004FF000514FF08053CA
:104BB000FFF748BEDFF848C170B51CEA111E1EBFE2
:104BC0001CEA13159EEA0C0F95EA0C0F00F06F809B
:104BD00081EA030423EA4C134EEAD47E21EA4C1105
:104BE00041F4801143F48013AE44A1FB024CA0FBBE
:104BF0000365AEF17F7E361955EB0C05A1FB034C26
:104C00004CF10003A0FB021C16EB0C06654153F1AE
:104C10000003094218BF46F0010613F4007F0BD1D0
:104C20004FEA03314FEA0530340341EA155140EAB7
:104C300016506FF003020AE04FEAC3214FEAC52085
:104C4000F40241EA555140EA56506FF0020202EB7D
:104C50002E4201EB025585EACE710AD05FEA440C80
:104C600018BF24F0004450F1000041F1000120EA97
:104C7000D47040F2FE7C624500D270BDA84214BFE1
:104C80004FF080444FF04044002E08BF0024BEF196
:104C9000806FA8BFA1F1C041BDE8704080F2828062
:104CA0004FF0000001F1C04101F0004170479EEA61
:104CB0000C0F0CEA131518BF95EA0C0F06D04FF035
:104CC000000081EA030E0EF0004170BD00F01CF8F8
:104CD0008900013E00F007B800F009B84FEA430C24
:104CE0005FEA5C5C08D081EA030100F05BB84FEA40
:104CF000410C5FEA5C5CF6D14FF00000014970475F
:104D00000000FF070000F87F0EF1020E2EF0030EE8
:104D10005EF8046B364205D4012A43EB030515F512
:104D2000001F12D8012841EB010C1CF5001F0CD804
:104D30000ED14FEAD17C15F5001F0CEB4C0C0CF199
:104D4000020C08BF4CEBD37C04E04FF0080C01E0F0
:104D50004FEAD37C0CEB4C0526FA05F606F0070665
:104D6000B6F1040C06D20EEB860CBDE870404CF098
:104D7000010C6047DFE80CF0090B02024FF0004124
:104D80004FF00000A1F5002170BD19461046012822
:104D900051EB010418BFD4F5001484BF002001F0CA
:104DA000004170BD0808A0F500114FEA31017047BD
:104DB00053EA010C17D41CF5801F58BFBCF5801FA7
:104DC00000F106808B4218BF704708BF82427047CF
:104DD00007D713F5801F58BF11F5801F19D48B42D8
:104DE00070479B4270471CF5801F08D5BCF5801F9B
:104DF000F7D5994218BF704708BF904270474FF4EB
:104E0000001C1CEB430F38BF1CEB410F01D2994231
:104E100070470FB40CBC03BCFFF7C1BE91EA030F8F
:104E200010B581F000413FF565AC83F0004300F020
:104E3000EFB800002DE9F04101F5801CBCF5001F22
:104E4000C0F2C3804FEA115C21EA0C510CF1FD0C59
:104E500041F480115FEA5C0C0CF5C07C01D340008A
:104E600049413DA4890241EA905187028E0E0A0C05
:104E7000A45D04FB04F602FB06F6C6F14046A4FB63
:104E80000662F60D46EA422606FB06F4A4FB012361
:104E90005242C3F1404338BF5B1EA6FB02420024CE
:104EA000E6FB0324D20B42EA4446A6FB0623A1FB01
:104EB00002E2A3FB07E4A4184FF0000252F1000243
:104EC000E3FB01426442C2F1404E38BFAEF1010E35
:104ED000A6FB04234FF00002E6FB0E32A2FB0346C2
:104EE0004FF00004B61954F10004E2FB0264A1FB88
:104EF00006E6A4FB07E816EB08064FF0000858F199
:104F00000008E4FB01687642C8F1405838BFA8F1B8
:104F10000108A2FB06E4A3FB08E52D194FF00004ED
:104F200054F10004E2FB0854A1FB05E6A7FB04E8EA
:104F300018EB06084FF0000656F10006E1FB048668
:104F400018F1200556F10006A809A8F11B08B109BF
:104F500008F03F08B8F10A0F40EA86601CD901EB5F
:104F60000C51BDE8F08100BFFCF5EEE8E2DDD8D3DE
:104F7000CFCBC7C3C0BDB9B6B4B1AEACA9A7A5A3CA
:104F8000A19F9D9B9A9896959392908F8D8C8B89DB
:104F90008887868584838281A0FB006800FB01F2FC
:104FA00008EB4208B8EB872807D5341858EB010402
:104FB000D5D5401C51F10001D1E7341A78EB01043A
:104FC000CDD4401E71F10001C9E75FEA4C0C5FEAE5
:104FD0009C5C0DD105D34FF0000001F00041BDE80D
:104FE000F081BDE8F04170B5FFF78EFE6DDBFFBECE
:104FF000BDE8F0414FF00000004970470000F87F25
:1050000010B591EA030F48BF83F000433FF572AB40
:10501000841A71EB030C07D212198CF0004C43EB8D
:105020000C03001B61EB0C01DFF8A4E14FEA115403
:10503000A4EB135C1EEA430F18BF9EEA445F00F026
:10504000B08023EA6E03524221EA0451C3EB6E039F
:1050500038BF5B1EDCF1200E25D322FA0CFE10EBCC
:105060000E0043FA0CFE41EB0E01CCF1200E03FAC8
:105070000EFE10EB0E0051F10001CCF1200E29D4F0
:1050800012FA0EF201EB0451BDE8104058BF704710
:10509000401C1CBFB2F1004F704700280CBF491CD8
:1050A00020F00100704712EB020E43EB030218BF21
:1050B0004FF0010E4EEA4202ACF1200CDCF11E0E64
:1050C00054D943FA0CFE10EB0E0051F1FF31CCF134
:1050D0001E0ED5D50EF1010E12FA0EFE404141EB27
:1050E000010101EB445C5FEA5C5C10D910EBDE70FF
:1050F00001EB045138BFBEF1004FBDE8104018BFAE
:10510000704700280CBF491C20F00100704730D2C6
:105110004FEAD42C11F5001124F400641BD0B1FA2D
:1051200081F20B3AA41AA41ED2F12003914030FA66
:1051300003F31943904001EBCC71002C01EB0451B7
:10514000BDE81040A8BF704701F1C0414FF000001A
:1051500001F000417047B0FA80F310FA03F100D17A
:1051600010BDE41A173C4805C90AE4E701EB0451F5
:1051700010BD491001EB0451BDE810404FEA30006A
:1051800002E04FF0000170474A0008BF0042F8D02B
:10519000B2F5001F28BF704701F000414FF000003A
:1051A00070479EEA445F07D011EA5E0FBDE81040E9
:1051B00004BF002100207047BDE8104070B5FFF724
:1051C000A3FD00BF40DFF63E83F00041104670476C
:1051D0000000E0FF43004FEAD30C4FEA3C0C434091
:1051E0001FBF40070CF1605113F0FE4F70471CF0D9
:1051F000006F03D100200CF0004170470CF0004319
:1052000043EA507010B540EACC0000F028FA00BF25
:10521000000000924FEA0001FFF7C4BD4FF00041CB
:105220004FF00000A1F500217047000090EA010F47
:1052300048BF81F0004100F1A682421A3CBF801AAB
:1052400089184FEAD0524FF07F4C1CEA410FA2EB75
:10525000D15318BF9CEA026F00F03B804FF0004C26
:105260004CEA00204CEA012121FA03FC10EB0C0C63
:105270001ED202F1FF325FEA1C2040EBC25038BF61
:1052800070471CF07F0F4FEA400C18BFBCF17F4FF6
:1052900038BF7047C3F12003994008BF20F00100D8
:1052A000BCF17F4F38BF7047A0F1C04000F024BA76
:1052B0004FEA3C00000A40EBC25028BF1CF0FF0F31
:1052C0004FEA400CE6D018BFBCF17F4F38BF7047A3
:1052D000EAE79CEA026F05D010EA5C0F08BF00F015
:1052E0000040704710B500F0BAF900BF64FBBE3E45
:1052F000401058BFC0F14040491058BFC1F1404173
:105300008142EFF3008070474FF47F0C1CEAD0120B
:105310001EBF1CEAD11392EA0C0F93EA0C0F00F0A7
:10532000858090EA010F48BF42F4807240F4000C7F
:1053300041F400002CF07F4120F07F4000B5814215
:10534000A2EB03020FF2081CACEB504EC0F10000C0
:105350009EF800E04FEA4E0E00FB0EFC38BF4900FD
:105360004FEA2C1C02F5FA020CFB0EF34FEACE1E9C
:105370004FEA112C4FEAC1210EEB635E42EB224251
:105380000EFB0CFC4FEA1C5300FB03114FEA112CDF
:105390004FEA01310EFB0CFC4FEADC4C00FB0C1118
:1053A000C14228BF09184CEB03335DF804EB10EB46
:1053B000410143EBC250B2F57C0F38BF704729D58D
:1053C00012F0F00F1CBF00F1C04000F00040704729
:1053D000008182838485868788898B8C8D8E8F91CE
:1053E0009293959697999A9C9D9FA0A2A3A5A7A8F2
:1053F000AAACAEB0B2B3B5B7B9BCBEC0C2C5C7C91E
:10540000CCCED1D4D7D9DCDFE2E6E9ECF0F3F7FA81
:10541000FE0000004FEA400C0CF1807CBCF17E4F96
:1054200028BF7047B0F1C04000F066B990EA010FA4
:105430000CEAD11348BF42F48072624538BF63451D
:1054400007D213F47F0F16D080EA010000F000406D
:10545000704710B500F003F9097EFC3E00F005B876
:1054600080EA010000F00040704780EA010000F08F
:10547000004000F041B912F47F0F04BF02487047AA
:1054800080EA010000F038B90000C07F41000B0E37
:10549000D3F19E0208D950F400034FEA032323FA04
:1054A00002F048BF4042704710B500F0D8F800BF86
:1054B00049922480002070476FF0004282EA200069
:1054C0007047000010F0004148BF4042B0FA80F33E
:1054D00010FA03F2C3F19D030BD051EAC35101EB63
:1054E0001220530638BF704700F1010008BF20F0BA
:1054F0000100704750EA010C00F113801CF5000F09
:1055000058BFBCF5000F01D48842704707D710F58B
:10551000000F58BF11F5000F15D48842704789421B
:1055200070471CF5000F04D5BCF5000FF7D581427C
:1055300070474FF0807C1CEB400F38BF1CEB410FD5
:1055400001D28142704710B500F089F892244900D9
:105550004FF000504FF08051FFF7CABE4FF47F0C60
:105560001CEAD0121EBF1CEAD11392EA0C0F93EA78
:105570000C0F00F0478090EA010F48BF42F48072A0
:105580004FF0004C4CEA00204CEA012102EB0302F0
:10559000A0FB0113A2F50002002918BF43F001038C
:1055A0005B0028BF4FEA330342EB22425FEA132C31
:1055B0004CEBC2502EBFBCEB436FB2F57C0F704773
:1055C0004FEA036CBCF1004F08BF20F00100B2F5B8
:1055D0007C0F38BF70470BD582F0FF0212F5803F79
:1055E000C8BF704700F1C040D8BF00F0004070470E
:1055F00000F5000C5FEA4C0C48BF7047B0F1C040AA
:1056000000F07AB890EA010F0CEAD11348BF42F4D7
:105610008072624538BF634504D280EA010000F021
:105620000040704710B500F01AF800BF8900013E35
:1056300000F007B800F009B85FEA410C5FEA1C6CA3
:1056400008D080EA010000F057B85FEA400C5FEA3A
:105650001C6CF6D14FF00040A0F5800070470EF1B1
:10566000020E2EF0030E5EF8044B244204D44FEADF
:105670004102B2F17F4F11D84FEA4003B3F17F4F9F
:105680000CD80ED14FEAD07CB2F17F4F0CEB4C0C12
:105690000CF1020C08BF4CEBD17C04E04FF0080C7D
:1056A00001E04FEAD17C0CEB4C0324FA03F404F044
:1056B0000704B4F1040C06D20EEB840CBDE81040D4
:1056C0004CF0010C6047DFE80CF0070802024FF0D5
:1056D0000040A0F5800010BD0846420018BFD2F17E
:1056E000807288BF00F0004010BD10B5FEF706FEC6
:1056F0004FF00001016010BDFF2141EAD050C0050C
:10570000704751EA000C00F113801CF5000F58BFE0
:10571000BCF5000F01D48142704707D711F5000F87
:1057200058BF10F5000F15D4814270478942704769
:105730001CF5000F04D5BCF5000FF7D58842704763
:105740004FF0807C1CEB410F38BF1CEB400F01D2A7
:105750008842704780EA010081EA000180EA010086
:10576000FFF7F1BE80F0004090EA010F7FF565ADD4
:1057700081F0004100F007B890EA010F48BF81F0C6
:1057800000413FF55AAD421A04D882F00042A0EB26
:10579000020011444FEAD0524FF07F4C1CEA410FF7
:1057A000A2EBD15318BF9CEA026F4AD04FF0004CD5
:1057B0004CEA00204CEA012121FA03FCB0EB0C0C6E
:1057C0000FD412F0FE0F36D05FEA4C001DD5001248
:1057D00040EBC25038BF70471CF03F0F18BF7047F6
:1057E0000BE0A2F101025FEA1C2040EBC25038BF7F
:1057F00070471CF07F0F18BF7047C3F1200399401A
:1058000014BF401E20F00100704780084FEA1223A9
:1058100008BF7047B0FA80FCA2EB0C02CCF1280C58
:1058200060FA0CF093EA122F04BF00EBC2507047ED
:105830004FEAC3707047130A5FEADC1008BF704775
:10584000F6E79CEA026F04D010EA5C0F08BF002064
:10585000704710B5FFF703FF40DFF63E81F00040D0
:1058600070470CF00F03092B08BF082000F0598087
:105870000A2B0BD0082B18BF704708BF1CF0400F35
:105880000AD04FF000004FF0000170471CF0400FAD
:1058900018BF4FF0004070471CF0100F08D020F0E8
:1058A000704300F07F4242EAD3014FEA43707047F1
:1058B00000F0604021F07F4242EA000201F07F40A8
:1058C00040EA727070474FF0FF0C4CF4E06C1CEA39
:1058D00011531CBF9CEA030C9445C2BFDA4201EB92
:1058E00002517047002B0DD0BCF1000F0FD0002AE1
:1058F00001F00041A4BF41F0E04141F07F614FF071
:105900000000704701F000414FF00000704750EA7E
:1059100001334FF09B0C18BF4CF0806C7EF48AAFC3
:1059200070471CF4801F11D01CF4E02F03D06FEAE5
:10593000CC31490070474FF04050EFF3008222F025
:10594000704242EA000282F3008870474FF0000084
:105950007047000000000000555555555555C53F8E
:105960007D6FEB0312D6D4BF5544880E55C1C93F95
:105970003B8F68B52882A4BF88B20175E0EF493F2C
:1059800009F7FD0DE13D023F4B2D8A1C273A03C06C
:10599000C88A599CE52A004059018D1B6C06E6BF58
:1059A00082922EB1C5B8B33FC8590008000000204C
:1059B000EC0100006C010008245A0008EC010020F2
:1059C00024070000C80100081184A24A0400093617
:1059D00001020304060708090B14803F0C016E3214
:1059E0000832107218290C322D7250320C02131E1C
:1059F0000A1102045A0104A90CA904A928011409D6
:105A00001254690401146954690C091270E97C0983
:105A10001A542D01020304040009000607080902B4
:045A20000406080070
:0400000508000131BD
:00000001FF
